{"contracts/Pokemon.sol":{"Pokemon":{"abi":[{"inputs":[],"stateMutability":"payable","type":"constructor"},{"anonymous":false,"inputs":[{"indexed":true,"internalType":"address","name":"owner","type":"address"},{"indexed":true,"internalType":"address","name":"approved","type":"address"},{"indexed":true,"internalType":"uint256","name":"tokenId","type":"uint256"}],"name":"Approval","type":"event"},{"anonymous":false,"inputs":[{"indexed":true,"internalType":"address","name":"owner","type":"address"},{"indexed":true,"internalType":"address","name":"operator","type":"address"},{"indexed":false,"internalType":"bool","name":"approved","type":"bool"}],"name":"ApprovalForAll","type":"event"},{"anonymous":false,"inputs":[{"indexed":true,"internalType":"address","name":"previousOwner","type":"address"},{"indexed":true,"internalType":"address","name":"newOwner","type":"address"}],"name":"OwnershipTransferred","type":"event"},{"anonymous":false,"inputs":[{"indexed":true,"internalType":"address","name":"from","type":"address"},{"indexed":true,"internalType":"address","name":"to","type":"address"},{"indexed":true,"internalType":"uint256","name":"tokenId","type":"uint256"}],"name":"Transfer","type":"event"},{"inputs":[{"internalType":"address","name":"to","type":"address"},{"internalType":"uint256","name":"tokenId","type":"uint256"}],"name":"approve","outputs":[],"stateMutability":"nonpayable","type":"function"},{"inputs":[{"internalType":"address","name":"owner","type":"address"}],"name":"balanceOf","outputs":[{"internalType":"uint256","name":"","type":"uint256"}],"stateMutability":"view","type":"function"},{"inputs":[{"internalType":"uint256","name":"tokenId","type":"uint256"}],"name":"getApproved","outputs":[{"internalType":"address","name":"","type":"address"}],"stateMutability":"view","type":"function"},{"inputs":[{"internalType":"address","name":"owner","type":"address"},{"internalType":"address","name":"operator","type":"address"}],"name":"isApprovedForAll","outputs":[{"internalType":"bool","name":"","type":"bool"}],"stateMutability":"view","type":"function"},{"inputs":[],"name":"maxPerWallet","outputs":[{"internalType":"uint256","name":"","type":"uint256"}],"stateMutability":"view","type":"function"},{"inputs":[],"name":"maxSupply","outputs":[{"internalType":"uint256","name":"","type":"uint256"}],"stateMutability":"view","type":"function"},{"inputs":[{"internalType":"uint256","name":"_quantity","type":"uint256"}],"name":"mint","outputs":[],"stateMutability":"payable","type":"function"},{"inputs":[{"internalType":"address","name":"recipient","type":"address"},{"internalType":"string","name":"tokenURI","type":"string"}],"name":"mintNFT","outputs":[{"internalType":"uint256","name":"","type":"uint256"}],"stateMutability":"nonpayable","type":"function"},{"inputs":[],"name":"mintPrice","outputs":[{"internalType":"uint256","name":"","type":"uint256"}],"stateMutability":"view","type":"function"},{"inputs":[],"name":"name","outputs":[{"internalType":"string","name":"","type":"string"}],"stateMutability":"view","type":"function"},{"inputs":[],"name":"owner","outputs":[{"internalType":"address","name":"","type":"address"}],"stateMutability":"view","type":"function"},{"inputs":[{"internalType":"uint256","name":"tokenId","type":"uint256"}],"name":"ownerOf","outputs":[{"internalType":"address","name":"","type":"address"}],"stateMutability":"view","type":"function"},{"inputs":[],"name":"renounceOwnership","outputs":[],"stateMutability":"nonpayable","type":"function"},{"inputs":[{"internalType":"address","name":"from","type":"address"},{"internalType":"address","name":"to","type":"address"},{"internalType":"uint256","name":"tokenId","type":"uint256"}],"name":"safeTransferFrom","outputs":[],"stateMutability":"nonpayable","type":"function"},{"inputs":[{"internalType":"address","name":"from","type":"address"},{"internalType":"address","name":"to","type":"address"},{"internalType":"uint256","name":"tokenId","type":"uint256"},{"internalType":"bytes","name":"data","type":"bytes"}],"name":"safeTransferFrom","outputs":[],"stateMutability":"nonpayable","type":"function"},{"inputs":[{"internalType":"address","name":"operator","type":"address"},{"internalType":"bool","name":"approved","type":"bool"}],"name":"setApprovalForAll","outputs":[],"stateMutability":"nonpayable","type":"function"},{"inputs":[{"internalType":"bytes4","name":"interfaceId","type":"bytes4"}],"name":"supportsInterface","outputs":[{"internalType":"bool","name":"","type":"bool"}],"stateMutability":"view","type":"function"},{"inputs":[],"name":"symbol","outputs":[{"internalType":"string","name":"","type":"string"}],"stateMutability":"view","type":"function"},{"inputs":[{"internalType":"uint256","name":"tokenId","type":"uint256"}],"name":"tokenURI","outputs":[{"internalType":"string","name":"","type":"string"}],"stateMutability":"view","type":"function"},{"inputs":[],"name":"totalSupply","outputs":[{"internalType":"uint256","name":"","type":"uint256"}],"stateMutability":"view","type":"function"},{"inputs":[{"internalType":"address","name":"from","type":"address"},{"internalType":"address","name":"to","type":"address"},{"internalType":"uint256","name":"tokenId","type":"uint256"}],"name":"transferFrom","outputs":[],"stateMutability":"nonpayable","type":"function"},{"inputs":[{"internalType":"address","name":"newOwner","type":"address"}],"name":"transferOwnership","outputs":[],"stateMutability":"nonpayable","type":"function"},{"inputs":[{"internalType":"address","name":"","type":"address"}],"name":"walletMints","outputs":[{"internalType":"uint256","name":"","type":"uint256"}],"stateMutability":"view","type":"function"},{"inputs":[],"name":"withdraw","outputs":[],"stateMutability":"nonpayable","type":"function"},{"inputs":[],"name":"withdrawWallet","outputs":[{"internalType":"address payable","name":"","type":"address"}],"stateMutability":"view","type":"function"}],"evm":{"bytecode":{"linkReferences":{},"object":"60806040526040518060400160405280600a81526020017f506f6b656d6f6e4e4654000000000000000000000000000000000000000000008152506040518060400160405280600781526020017f506f6b654e465400000000000000000000000000000000000000000000000000815250816000908162000081919062000423565b50806001908162000093919062000423565b505050620000b6620000aa620000db60201b60201c565b620000e360201b60201c565b66470de4df8200006009819055506103e8600a819055506003600c819055506200050a565b600033905090565b6000600760009054906101000a900473ffffffffffffffffffffffffffffffffffffffff16905081600760006101000a81548173ffffffffffffffffffffffffffffffffffffffff021916908373ffffffffffffffffffffffffffffffffffffffff1602179055508173ffffffffffffffffffffffffffffffffffffffff168173ffffffffffffffffffffffffffffffffffffffff167f8be0079c531659141344cd1fd0a4f28419497f9722a3daafe3b4186f6b6457e060405160405180910390a35050565b600081519050919050565b7f4e487b7100000000000000000000000000000000000000000000000000000000600052604160045260246000fd5b7f4e487b7100000000000000000000000000000000000000000000000000000000600052602260045260246000fd5b600060028204905060018216806200022b57607f821691505b602082108103620002415762000240620001e3565b5b50919050565b60008190508160005260206000209050919050565b60006020601f8301049050919050565b600082821b905092915050565b600060088302620002ab7fffffffffffffffffffffffffffffffffffffffffffffffffffffffffffffffff826200026c565b620002b786836200026c565b95508019841693508086168417925050509392505050565b6000819050919050565b6000819050919050565b600062000304620002fe620002f884620002cf565b620002d9565b620002cf565b9050919050565b6000819050919050565b6200032083620002e3565b620003386200032f826200030b565b84845462000279565b825550505050565b600090565b6200034f62000340565b6200035c81848462000315565b505050565b5b8181101562000384576200037860008262000345565b60018101905062000362565b5050565b601f821115620003d3576200039d8162000247565b620003a8846200025c565b81016020851015620003b8578190505b620003d0620003c7856200025c565b83018262000361565b50505b505050565b600082821c905092915050565b6000620003f860001984600802620003d8565b1980831691505092915050565b6000620004138383620003e5565b9150826002028217905092915050565b6200042e82620001a9565b67ffffffffffffffff8111156200044a5762000449620001b4565b5b62000456825462000212565b6200046382828562000388565b600060209050601f8311600181146200049b576000841562000486578287015190505b62000492858262000405565b86555062000502565b601f198416620004ab8662000247565b60005b82811015620004d557848901518255600182019150602085019450602081019050620004ae565b86831015620004f55784890151620004f1601f891682620003e5565b8355505b6001600288020188555050505b505050505050565b6135ca806200051a6000396000f3fe6080604052600436106101665760003560e01c8063715018a6116100d1578063b88d4fde1161008a578063e985e9c511610064578063e985e9c51461050b578063eacabe1414610548578063f0293fd314610585578063f2fde38b146105c257610166565b8063b88d4fde1461047a578063c87b56dd146104a3578063d5abeb01146104e057610166565b8063715018a61461039d57806385d178f4146103b45780638da5cb5b146103df57806395d89b411461040a578063a0712d6814610435578063a22cb4651461045157610166565b80633ccfd60b116101235780633ccfd60b1461028d57806342842e0e146102a4578063453c2310146102cd5780636352211e146102f85780636817c76c1461033557806370a082311461036057610166565b806301ffc9a71461016b57806306fdde03146101a8578063081812fc146101d3578063095ea7b31461021057806318160ddd1461023957806323b872dd14610264575b600080fd5b34801561017757600080fd5b50610192600480360381019061018d9190611fd7565b6105eb565b60405161019f919061201f565b60405180910390f35b3480156101b457600080fd5b506101bd6106cd565b6040516101ca91906120ca565b60405180910390f35b3480156101df57600080fd5b506101fa60048036038101906101f59190612122565b61075f565b6040516102079190612190565b60405180910390f35b34801561021c57600080fd5b50610237600480360381019061023291906121d7565b6107a5565b005b34801561024557600080fd5b5061024e6108bc565b60405161025b9190612226565b60405180910390f35b34801561027057600080fd5b5061028b60048036038101906102869190612241565b6108c2565b005b34801561029957600080fd5b506102a2610922565b005b3480156102b057600080fd5b506102cb60048036038101906102c69190612241565b6109fb565b005b3480156102d957600080fd5b506102e2610a1b565b6040516102ef9190612226565b60405180910390f35b34801561030457600080fd5b5061031f600480360381019061031a9190612122565b610a21565b60405161032c9190612190565b60405180910390f35b34801561034157600080fd5b5061034a610ad2565b6040516103579190612226565b60405180910390f35b34801561036c57600080fd5b5061038760048036038101906103829190612294565b610ad8565b6040516103949190612226565b60405180910390f35b3480156103a957600080fd5b506103b2610b8f565b005b3480156103c057600080fd5b506103c9610ba3565b6040516103d691906122e2565b60405180910390f35b3480156103eb57600080fd5b506103f4610bc9565b6040516104019190612190565b60405180910390f35b34801561041657600080fd5b5061041f610bf3565b60405161042c91906120ca565b60405180910390f35b61044f600480360381019061044a9190612122565b610c85565b005b34801561045d57600080fd5b5061047860048036038101906104739190612329565b610e0d565b005b34801561048657600080fd5b506104a1600480360381019061049c919061249e565b610e23565b005b3480156104af57600080fd5b506104ca60048036038101906104c59190612122565b610e85565b6040516104d791906120ca565b60405180910390f35b3480156104ec57600080fd5b506104f5610f97565b6040516105029190612226565b60405180910390f35b34801561051757600080fd5b50610532600480360381019061052d9190612521565b610f9d565b60405161053f919061201f565b60405180910390f35b34801561055457600080fd5b5061056f600480360381019061056a9190612602565b611031565b60405161057c9190612226565b60405180910390f35b34801561059157600080fd5b506105ac60048036038101906105a79190612294565b611071565b6040516105b99190612226565b60405180910390f35b3480156105ce57600080fd5b506105e960048036038101906105e49190612294565b611089565b005b60007f80ac58cd000000000000000000000000000000000000000000000000000000007bffffffffffffffffffffffffffffffffffffffffffffffffffffffff1916827bffffffffffffffffffffffffffffffffffffffffffffffffffffffff191614806106b657507f5b5e139f000000000000000000000000000000000000000000000000000000007bffffffffffffffffffffffffffffffffffffffffffffffffffffffff1916827bffffffffffffffffffffffffffffffffffffffffffffffffffffffff1916145b806106c657506106c58261110c565b5b9050919050565b6060600080546106dc9061268d565b80601f01602080910402602001604051908101604052809291908181526020018280546107089061268d565b80156107555780601f1061072a57610100808354040283529160200191610755565b820191906000526020600020905b81548152906001019060200180831161073857829003601f168201915b5050505050905090565b600061076a82611176565b6004600083815260200190815260200160002060009054906101000a900473ffffffffffffffffffffffffffffffffffffffff169050919050565b60006107b082610a21565b90508073ffffffffffffffffffffffffffffffffffffffff168373ffffffffffffffffffffffffffffffffffffffff1603610820576040517f08c379a000000000000000000000000000000000000000000000000000000000815260040161081790612730565b60405180910390fd5b8073ffffffffffffffffffffffffffffffffffffffff1661083f6111c1565b73ffffffffffffffffffffffffffffffffffffffff16148061086e575061086d816108686111c1565b610f9d565b5b6108ad576040517f08c379a00000000000000000000000000000000000000000000000000000000081526004016108a4906127c2565b60405180910390fd5b6108b783836111c9565b505050565b600b5481565b6108d36108cd6111c1565b82611282565b610912576040517f08c379a000000000000000000000000000000000000000000000000000000000815260040161090990612854565b60405180910390fd5b61091d838383611317565b505050565b61092a61157d565b6000600d60009054906101000a900473ffffffffffffffffffffffffffffffffffffffff1673ffffffffffffffffffffffffffffffffffffffff1647604051610972906128a5565b60006040518083038185875af1925050503d80600081146109af576040519150601f19603f3d011682016040523d82523d6000602084013e6109b4565b606091505b50509050806109f8576040517f08c379a00000000000000000000000000000000000000000000000000000000081526004016109ef90612906565b60405180910390fd5b50565b610a1683838360405180602001604052806000815250610e23565b505050565b600c5481565b6000806002600084815260200190815260200160002060009054906101000a900473ffffffffffffffffffffffffffffffffffffffff169050600073ffffffffffffffffffffffffffffffffffffffff168173ffffffffffffffffffffffffffffffffffffffff1603610ac9576040517f08c379a0000000000000000000000000000000000000000000000000000000008152600401610ac090612972565b60405180910390fd5b80915050919050565b60095481565b60008073ffffffffffffffffffffffffffffffffffffffff168273ffffffffffffffffffffffffffffffffffffffff1603610b48576040517f08c379a0000000000000000000000000000000000000000000000000000000008152600401610b3f90612a04565b60405180910390fd5b600360008373ffffffffffffffffffffffffffffffffffffffff1673ffffffffffffffffffffffffffffffffffffffff168152602001908152602001600020549050919050565b610b9761157d565b610ba160006115fb565b565b600d60009054906101000a900473ffffffffffffffffffffffffffffffffffffffff1681565b6000600760009054906101000a900473ffffffffffffffffffffffffffffffffffffffff16905090565b606060018054610c029061268d565b80601f0160208091040260200160405190810160405280929190818152602001828054610c2e9061268d565b8015610c7b5780601f10610c5057610100808354040283529160200191610c7b565b820191906000526020600020905b815481529060010190602001808311610c5e57829003601f168201915b5050505050905090565b60095481610c939190612a53565b3414610cd4576040517f08c379a0000000000000000000000000000000000000000000000000000000008152600401610ccb90612ae1565b60405180910390fd5b600a5481600b54610ce59190612b01565b1115610d26576040517f08c379a0000000000000000000000000000000000000000000000000000000008152600401610d1d90612b81565b60405180910390fd5b600c5481600e60003373ffffffffffffffffffffffffffffffffffffffff1673ffffffffffffffffffffffffffffffffffffffff16815260200190815260200160002054610d749190612b01565b1115610db5576040517f08c379a0000000000000000000000000000000000000000000000000000000008152600401610dac90612bed565b60405180910390fd5b60005b81811015610e095760006001600b54610dd19190612b01565b9050600b6000815480929190610de690612c0d565b9190505550610df533826116c1565b508080610e0190612c0d565b915050610db8565b5050565b610e1f610e186111c1565b83836116df565b5050565b610e34610e2e6111c1565b83611282565b610e73576040517f08c379a0000000000000000000000000000000000000000000000000000000008152600401610e6a90612854565b60405180910390fd5b610e7f8484848461184b565b50505050565b6060610e9082611176565b6000600660008481526020019081526020016000208054610eb09061268d565b80601f0160208091040260200160405190810160405280929190818152602001828054610edc9061268d565b8015610f295780601f10610efe57610100808354040283529160200191610f29565b820191906000526020600020905b815481529060010190602001808311610f0c57829003601f168201915b505050505090506000610f3a6118a7565b90506000815103610f4f578192505050610f92565b600082511115610f84578082604051602001610f6c929190612c91565b60405160208183030381529060405292505050610f92565b610f8d846118be565b925050505b919050565b600a5481565b6000600560008473ffffffffffffffffffffffffffffffffffffffff1673ffffffffffffffffffffffffffffffffffffffff16815260200190815260200160002060008373ffffffffffffffffffffffffffffffffffffffff1673ffffffffffffffffffffffffffffffffffffffff16815260200190815260200160002060009054906101000a900460ff16905092915050565b600061103b61157d565b6110456008611926565b6000611051600861193c565b905061105d848261194a565b6110678184611b23565b8091505092915050565b600e6020528060005260406000206000915090505481565b61109161157d565b600073ffffffffffffffffffffffffffffffffffffffff168173ffffffffffffffffffffffffffffffffffffffff1603611100576040517f08c379a00000000000000000000000000000000000000000000000000000000081526004016110f790612d27565b60405180910390fd5b611109816115fb565b50565b60007f01ffc9a7000000000000000000000000000000000000000000000000000000007bffffffffffffffffffffffffffffffffffffffffffffffffffffffff1916827bffffffffffffffffffffffffffffffffffffffffffffffffffffffff1916149050919050565b61117f81611b90565b6111be576040517f08c379a00000000000000000000000000000000000000000000000000000000081526004016111b590612972565b60405180910390fd5b50565b600033905090565b816004600083815260200190815260200160002060006101000a81548173ffffffffffffffffffffffffffffffffffffffff021916908373ffffffffffffffffffffffffffffffffffffffff160217905550808273ffffffffffffffffffffffffffffffffffffffff1661123c83610a21565b73ffffffffffffffffffffffffffffffffffffffff167f8c5be1e5ebec7d5bd14f71427d1e84f3dd0314c0f7b2291e5b200ac8c7c3b92560405160405180910390a45050565b60008061128e83610a21565b90508073ffffffffffffffffffffffffffffffffffffffff168473ffffffffffffffffffffffffffffffffffffffff1614806112d057506112cf8185610f9d565b5b8061130e57508373ffffffffffffffffffffffffffffffffffffffff166112f68461075f565b73ffffffffffffffffffffffffffffffffffffffff16145b91505092915050565b8273ffffffffffffffffffffffffffffffffffffffff1661133782610a21565b73ffffffffffffffffffffffffffffffffffffffff161461138d576040517f08c379a000000000000000000000000000000000000000000000000000000000815260040161138490612db9565b60405180910390fd5b600073ffffffffffffffffffffffffffffffffffffffff168273ffffffffffffffffffffffffffffffffffffffff16036113fc576040517f08c379a00000000000000000000000000000000000000000000000000000000081526004016113f390612e4b565b60405180910390fd5b611407838383611bfc565b6114126000826111c9565b6001600360008573ffffffffffffffffffffffffffffffffffffffff1673ffffffffffffffffffffffffffffffffffffffff16815260200190815260200160002060008282546114629190612e6b565b925050819055506001600360008473ffffffffffffffffffffffffffffffffffffffff1673ffffffffffffffffffffffffffffffffffffffff16815260200190815260200160002060008282546114b99190612b01565b92505081905550816002600083815260200190815260200160002060006101000a81548173ffffffffffffffffffffffffffffffffffffffff021916908373ffffffffffffffffffffffffffffffffffffffff160217905550808273ffffffffffffffffffffffffffffffffffffffff168473ffffffffffffffffffffffffffffffffffffffff167fddf252ad1be2c89b69c2b068fc378daa952ba7f163c4a11628f55a4df523b3ef60405160405180910390a4611578838383611c01565b505050565b6115856111c1565b73ffffffffffffffffffffffffffffffffffffffff166115a3610bc9565b73ffffffffffffffffffffffffffffffffffffffff16146115f9576040517f08c379a00000000000000000000000000000000000000000000000000000000081526004016115f090612eeb565b60405180910390fd5b565b6000600760009054906101000a900473ffffffffffffffffffffffffffffffffffffffff16905081600760006101000a81548173ffffffffffffffffffffffffffffffffffffffff021916908373ffffffffffffffffffffffffffffffffffffffff1602179055508173ffffffffffffffffffffffffffffffffffffffff168173ffffffffffffffffffffffffffffffffffffffff167f8be0079c531659141344cd1fd0a4f28419497f9722a3daafe3b4186f6b6457e060405160405180910390a35050565b6116db828260405180602001604052806000815250611c06565b5050565b8173ffffffffffffffffffffffffffffffffffffffff168373ffffffffffffffffffffffffffffffffffffffff160361174d576040517f08c379a000000000000000000000000000000000000000000000000000000000815260040161174490612f57565b60405180910390fd5b80600560008573ffffffffffffffffffffffffffffffffffffffff1673ffffffffffffffffffffffffffffffffffffffff16815260200190815260200160002060008473ffffffffffffffffffffffffffffffffffffffff1673ffffffffffffffffffffffffffffffffffffffff16815260200190815260200160002060006101000a81548160ff0219169083151502179055508173ffffffffffffffffffffffffffffffffffffffff168373ffffffffffffffffffffffffffffffffffffffff167f17307eab39ab6107e8899845ad3d59bd9653f200f220920489ca2b5937696c318360405161183e919061201f565b60405180910390a3505050565b611856848484611317565b61186284848484611c61565b6118a1576040517f08c379a000000000000000000000000000000000000000000000000000000000815260040161189890612fe9565b60405180910390fd5b50505050565b606060405180602001604052806000815250905090565b60606118c982611176565b60006118d36118a7565b905060008151116118f3576040518060200160405280600081525061191e565b806118fd84611de8565b60405160200161190e929190612c91565b6040516020818303038152906040525b915050919050565b6001816000016000828254019250508190555050565b600081600001549050919050565b600073ffffffffffffffffffffffffffffffffffffffff168273ffffffffffffffffffffffffffffffffffffffff16036119b9576040517f08c379a00000000000000000000000000000000000000000000000000000000081526004016119b090613055565b60405180910390fd5b6119c281611b90565b15611a02576040517f08c379a00000000000000000000000000000000000000000000000000000000081526004016119f9906130c1565b60405180910390fd5b611a0e60008383611bfc565b6001600360008473ffffffffffffffffffffffffffffffffffffffff1673ffffffffffffffffffffffffffffffffffffffff1681526020019081526020016000206000828254611a5e9190612b01565b92505081905550816002600083815260200190815260200160002060006101000a81548173ffffffffffffffffffffffffffffffffffffffff021916908373ffffffffffffffffffffffffffffffffffffffff160217905550808273ffffffffffffffffffffffffffffffffffffffff16600073ffffffffffffffffffffffffffffffffffffffff167fddf252ad1be2c89b69c2b068fc378daa952ba7f163c4a11628f55a4df523b3ef60405160405180910390a4611b1f60008383611c01565b5050565b611b2c82611b90565b611b6b576040517f08c379a0000000000000000000000000000000000000000000000000000000008152600401611b6290613153565b60405180910390fd5b80600660008481526020019081526020016000209081611b8b919061331f565b505050565b60008073ffffffffffffffffffffffffffffffffffffffff166002600084815260200190815260200160002060009054906101000a900473ffffffffffffffffffffffffffffffffffffffff1673ffffffffffffffffffffffffffffffffffffffff1614159050919050565b505050565b505050565b611c10838361194a565b611c1d6000848484611c61565b611c5c576040517f08c379a0000000000000000000000000000000000000000000000000000000008152600401611c5390612fe9565b60405180910390fd5b505050565b6000611c828473ffffffffffffffffffffffffffffffffffffffff16611f48565b15611ddb578373ffffffffffffffffffffffffffffffffffffffff1663150b7a02611cab6111c1565b8786866040518563ffffffff1660e01b8152600401611ccd9493929190613446565b6020604051808303816000875af1925050508015611d0957506040513d601f19601f82011682018060405250810190611d0691906134a7565b60015b611d8b573d8060008114611d39576040519150601f19603f3d011682016040523d82523d6000602084013e611d3e565b606091505b506000815103611d83576040517f08c379a0000000000000000000000000000000000000000000000000000000008152600401611d7a90612fe9565b60405180910390fd5b805181602001fd5b63150b7a0260e01b7bffffffffffffffffffffffffffffffffffffffffffffffffffffffff1916817bffffffffffffffffffffffffffffffffffffffffffffffffffffffff191614915050611de0565b600190505b949350505050565b606060008203611e2f576040518060400160405280600181526020017f30000000000000000000000000000000000000000000000000000000000000008152509050611f43565b600082905060005b60008214611e61578080611e4a90612c0d565b915050600a82611e5a9190613503565b9150611e37565b60008167ffffffffffffffff811115611e7d57611e7c612373565b5b6040519080825280601f01601f191660200182016040528015611eaf5781602001600182028036833780820191505090505b5090505b60008514611f3c57600182611ec89190612e6b565b9150600a85611ed79190613534565b6030611ee39190612b01565b60f81b818381518110611ef957611ef8613565565b5b60200101907effffffffffffffffffffffffffffffffffffffffffffffffffffffffffffff1916908160001a905350600a85611f359190613503565b9450611eb3565b8093505050505b919050565b6000808273ffffffffffffffffffffffffffffffffffffffff163b119050919050565b6000604051905090565b600080fd5b600080fd5b60007fffffffff0000000000000000000000000000000000000000000000000000000082169050919050565b611fb481611f7f565b8114611fbf57600080fd5b50565b600081359050611fd181611fab565b92915050565b600060208284031215611fed57611fec611f75565b5b6000611ffb84828501611fc2565b91505092915050565b60008115159050919050565b61201981612004565b82525050565b60006020820190506120346000830184612010565b92915050565b600081519050919050565b600082825260208201905092915050565b60005b83811015612074578082015181840152602081019050612059565b60008484015250505050565b6000601f19601f8301169050919050565b600061209c8261203a565b6120a68185612045565b93506120b6818560208601612056565b6120bf81612080565b840191505092915050565b600060208201905081810360008301526120e48184612091565b905092915050565b6000819050919050565b6120ff816120ec565b811461210a57600080fd5b50565b60008135905061211c816120f6565b92915050565b60006020828403121561213857612137611f75565b5b60006121468482850161210d565b91505092915050565b600073ffffffffffffffffffffffffffffffffffffffff82169050919050565b600061217a8261214f565b9050919050565b61218a8161216f565b82525050565b60006020820190506121a56000830184612181565b92915050565b6121b48161216f565b81146121bf57600080fd5b50565b6000813590506121d1816121ab565b92915050565b600080604083850312156121ee576121ed611f75565b5b60006121fc858286016121c2565b925050602061220d8582860161210d565b9150509250929050565b612220816120ec565b82525050565b600060208201905061223b6000830184612217565b92915050565b60008060006060848603121561225a57612259611f75565b5b6000612268868287016121c2565b9350506020612279868287016121c2565b925050604061228a8682870161210d565b9150509250925092565b6000602082840312156122aa576122a9611f75565b5b60006122b8848285016121c2565b91505092915050565b60006122cc8261214f565b9050919050565b6122dc816122c1565b82525050565b60006020820190506122f760008301846122d3565b92915050565b61230681612004565b811461231157600080fd5b50565b600081359050612323816122fd565b92915050565b600080604083850312156123405761233f611f75565b5b600061234e858286016121c2565b925050602061235f85828601612314565b9150509250929050565b600080fd5b600080fd5b7f4e487b7100000000000000000000000000000000000000000000000000000000600052604160045260246000fd5b6123ab82612080565b810181811067ffffffffffffffff821117156123ca576123c9612373565b5b80604052505050565b60006123dd611f6b565b90506123e982826123a2565b919050565b600067ffffffffffffffff82111561240957612408612373565b5b61241282612080565b9050602081019050919050565b82818337600083830152505050565b600061244161243c846123ee565b6123d3565b90508281526020810184848401111561245d5761245c61236e565b5b61246884828561241f565b509392505050565b600082601f83011261248557612484612369565b5b813561249584826020860161242e565b91505092915050565b600080600080608085870312156124b8576124b7611f75565b5b60006124c6878288016121c2565b94505060206124d7878288016121c2565b93505060406124e88782880161210d565b925050606085013567ffffffffffffffff81111561250957612508611f7a565b5b61251587828801612470565b91505092959194509250565b6000806040838503121561253857612537611f75565b5b6000612546858286016121c2565b9250506020612557858286016121c2565b9150509250929050565b600067ffffffffffffffff82111561257c5761257b612373565b5b61258582612080565b9050602081019050919050565b60006125a56125a084612561565b6123d3565b9050828152602081018484840111156125c1576125c061236e565b5b6125cc84828561241f565b509392505050565b600082601f8301126125e9576125e8612369565b5b81356125f9848260208601612592565b91505092915050565b6000806040838503121561261957612618611f75565b5b6000612627858286016121c2565b925050602083013567ffffffffffffffff81111561264857612647611f7a565b5b612654858286016125d4565b9150509250929050565b7f4e487b7100000000000000000000000000000000000000000000000000000000600052602260045260246000fd5b600060028204905060018216806126a557607f821691505b6020821081036126b8576126b761265e565b5b50919050565b7f4552433732313a20617070726f76616c20746f2063757272656e74206f776e6560008201527f7200000000000000000000000000000000000000000000000000000000000000602082015250565b600061271a602183612045565b9150612725826126be565b604082019050919050565b600060208201905081810360008301526127498161270d565b9050919050565b7f4552433732313a20617070726f76652063616c6c6572206973206e6f7420746f60008201527f6b656e206f776e6572206e6f7220617070726f76656420666f7220616c6c0000602082015250565b60006127ac603e83612045565b91506127b782612750565b604082019050919050565b600060208201905081810360008301526127db8161279f565b9050919050565b7f4552433732313a2063616c6c6572206973206e6f7420746f6b656e206f776e6560008201527f72206e6f7220617070726f766564000000000000000000000000000000000000602082015250565b600061283e602e83612045565b9150612849826127e2565b604082019050919050565b6000602082019050818103600083015261286d81612831565b9050919050565b600081905092915050565b50565b600061288f600083612874565b915061289a8261287f565b600082019050919050565b60006128b082612882565b9150819050919050565b7f7769746864726177206661696c65640000000000000000000000000000000000600082015250565b60006128f0600f83612045565b91506128fb826128ba565b602082019050919050565b6000602082019050818103600083015261291f816128e3565b9050919050565b7f4552433732313a20696e76616c696420746f6b656e2049440000000000000000600082015250565b600061295c601883612045565b915061296782612926565b602082019050919050565b6000602082019050818103600083015261298b8161294f565b9050919050565b7f4552433732313a2061646472657373207a65726f206973206e6f74206120766160008201527f6c6964206f776e65720000000000000000000000000000000000000000000000602082015250565b60006129ee602983612045565b91506129f982612992565b604082019050919050565b60006020820190508181036000830152612a1d816129e1565b9050919050565b7f4e487b7100000000000000000000000000000000000000000000000000000000600052601160045260246000fd5b6000612a5e826120ec565b9150612a69836120ec565b9250828202612a77816120ec565b91508282048414831517612a8e57612a8d612a24565b5b5092915050565b7f57726f6e67206d696e742076616c756500000000000000000000000000000000600082015250565b6000612acb601083612045565b9150612ad682612a95565b602082019050919050565b60006020820190508181036000830152612afa81612abe565b9050919050565b6000612b0c826120ec565b9150612b17836120ec565b9250828201905080821115612b2f57612b2e612a24565b5b92915050565b7f536f6c64206f7574000000000000000000000000000000000000000000000000600082015250565b6000612b6b600883612045565b9150612b7682612b35565b602082019050919050565b60006020820190508181036000830152612b9a81612b5e565b9050919050565b7f4578636565646564206d61782077616c6c657400000000000000000000000000600082015250565b6000612bd7601383612045565b9150612be282612ba1565b602082019050919050565b60006020820190508181036000830152612c0681612bca565b9050919050565b6000612c18826120ec565b91507fffffffffffffffffffffffffffffffffffffffffffffffffffffffffffffffff8203612c4a57612c49612a24565b5b600182019050919050565b600081905092915050565b6000612c6b8261203a565b612c758185612c55565b9350612c85818560208601612056565b80840191505092915050565b6000612c9d8285612c60565b9150612ca98284612c60565b91508190509392505050565b7f4f776e61626c653a206e6577206f776e657220697320746865207a65726f206160008201527f6464726573730000000000000000000000000000000000000000000000000000602082015250565b6000612d11602683612045565b9150612d1c82612cb5565b604082019050919050565b60006020820190508181036000830152612d4081612d04565b9050919050565b7f4552433732313a207472616e736665722066726f6d20696e636f72726563742060008201527f6f776e6572000000000000000000000000000000000000000000000000000000602082015250565b6000612da3602583612045565b9150612dae82612d47565b604082019050919050565b60006020820190508181036000830152612dd281612d96565b9050919050565b7f4552433732313a207472616e7366657220746f20746865207a65726f2061646460008201527f7265737300000000000000000000000000000000000000000000000000000000602082015250565b6000612e35602483612045565b9150612e4082612dd9565b604082019050919050565b60006020820190508181036000830152612e6481612e28565b9050919050565b6000612e76826120ec565b9150612e81836120ec565b9250828203905081811115612e9957612e98612a24565b5b92915050565b7f4f776e61626c653a2063616c6c6572206973206e6f7420746865206f776e6572600082015250565b6000612ed5602083612045565b9150612ee082612e9f565b602082019050919050565b60006020820190508181036000830152612f0481612ec8565b9050919050565b7f4552433732313a20617070726f766520746f2063616c6c657200000000000000600082015250565b6000612f41601983612045565b9150612f4c82612f0b565b602082019050919050565b60006020820190508181036000830152612f7081612f34565b9050919050565b7f4552433732313a207472616e7366657220746f206e6f6e20455243373231526560008201527f63656976657220696d706c656d656e7465720000000000000000000000000000602082015250565b6000612fd3603283612045565b9150612fde82612f77565b604082019050919050565b6000602082019050818103600083015261300281612fc6565b9050919050565b7f4552433732313a206d696e7420746f20746865207a65726f2061646472657373600082015250565b600061303f602083612045565b915061304a82613009565b602082019050919050565b6000602082019050818103600083015261306e81613032565b9050919050565b7f4552433732313a20746f6b656e20616c7265616479206d696e74656400000000600082015250565b60006130ab601c83612045565b91506130b682613075565b602082019050919050565b600060208201905081810360008301526130da8161309e565b9050919050565b7f45524337323155524953746f726167653a2055524920736574206f66206e6f6e60008201527f6578697374656e7420746f6b656e000000000000000000000000000000000000602082015250565b600061313d602e83612045565b9150613148826130e1565b604082019050919050565b6000602082019050818103600083015261316c81613130565b9050919050565b60008190508160005260206000209050919050565b60006020601f8301049050919050565b600082821b905092915050565b6000600883026131d57fffffffffffffffffffffffffffffffffffffffffffffffffffffffffffffffff82613198565b6131df8683613198565b95508019841693508086168417925050509392505050565b6000819050919050565b600061321c613217613212846120ec565b6131f7565b6120ec565b9050919050565b6000819050919050565b61323683613201565b61324a61324282613223565b8484546131a5565b825550505050565b600090565b61325f613252565b61326a81848461322d565b505050565b5b8181101561328e57613283600082613257565b600181019050613270565b5050565b601f8211156132d3576132a481613173565b6132ad84613188565b810160208510156132bc578190505b6132d06132c885613188565b83018261326f565b50505b505050565b600082821c905092915050565b60006132f6600019846008026132d8565b1980831691505092915050565b600061330f83836132e5565b9150826002028217905092915050565b6133288261203a565b67ffffffffffffffff81111561334157613340612373565b5b61334b825461268d565b613356828285613292565b600060209050601f8311600181146133895760008415613377578287015190505b6133818582613303565b8655506133e9565b601f19841661339786613173565b60005b828110156133bf5784890151825560018201915060208501945060208101905061339a565b868310156133dc57848901516133d8601f8916826132e5565b8355505b6001600288020188555050505b505050505050565b600081519050919050565b600082825260208201905092915050565b6000613418826133f1565b61342281856133fc565b9350613432818560208601612056565b61343b81612080565b840191505092915050565b600060808201905061345b6000830187612181565b6134686020830186612181565b6134756040830185612217565b8181036060830152613487818461340d565b905095945050505050565b6000815190506134a181611fab565b92915050565b6000602082840312156134bd576134bc611f75565b5b60006134cb84828501613492565b91505092915050565b7f4e487b7100000000000000000000000000000000000000000000000000000000600052601260045260246000fd5b600061350e826120ec565b9150613519836120ec565b925082613529576135286134d4565b5b828204905092915050565b600061353f826120ec565b915061354a836120ec565b92508261355a576135596134d4565b5b828206905092915050565b7f4e487b7100000000000000000000000000000000000000000000000000000000600052603260045260246000fdfea2646970667358221220d4472b9e3624ffbd6bc82f1e7798aef95b88942cec93b2751bd1979013d14f1b64736f6c63430008110033","opcodes":"PUSH1 0x80 PUSH1 0x40 MSTORE PUSH1 0x40 MLOAD DUP1 PUSH1 0x40 ADD PUSH1 0x40 MSTORE DUP1 PUSH1 0xA DUP2 MSTORE PUSH1 0x20 ADD PUSH32 0x506F6B656D6F6E4E465400000000000000000000000000000000000000000000 DUP2 MSTORE POP PUSH1 0x40 MLOAD DUP1 PUSH1 0x40 ADD PUSH1 0x40 MSTORE DUP1 PUSH1 0x7 DUP2 MSTORE PUSH1 0x20 ADD PUSH32 0x506F6B654E465400000000000000000000000000000000000000000000000000 DUP2 MSTORE POP DUP2 PUSH1 0x0 SWAP1 DUP2 PUSH3 0x81 SWAP2 SWAP1 PUSH3 0x423 JUMP JUMPDEST POP DUP1 PUSH1 0x1 SWAP1 DUP2 PUSH3 0x93 SWAP2 SWAP1 PUSH3 0x423 JUMP JUMPDEST POP POP POP PUSH3 0xB6 PUSH3 0xAA PUSH3 0xDB PUSH1 0x20 SHL PUSH1 0x20 SHR JUMP JUMPDEST PUSH3 0xE3 PUSH1 0x20 SHL PUSH1 0x20 SHR JUMP JUMPDEST PUSH7 0x470DE4DF820000 PUSH1 0x9 DUP2 SWAP1 SSTORE POP PUSH2 0x3E8 PUSH1 0xA DUP2 SWAP1 SSTORE POP PUSH1 0x3 PUSH1 0xC DUP2 SWAP1 SSTORE POP PUSH3 0x50A JUMP JUMPDEST PUSH1 0x0 CALLER SWAP1 POP SWAP1 JUMP JUMPDEST PUSH1 0x0 PUSH1 0x7 PUSH1 0x0 SWAP1 SLOAD SWAP1 PUSH2 0x100 EXP SWAP1 DIV PUSH20 0xFFFFFFFFFFFFFFFFFFFFFFFFFFFFFFFFFFFFFFFF AND SWAP1 POP DUP2 PUSH1 0x7 PUSH1 0x0 PUSH2 0x100 EXP DUP2 SLOAD DUP2 PUSH20 0xFFFFFFFFFFFFFFFFFFFFFFFFFFFFFFFFFFFFFFFF MUL NOT AND SWAP1 DUP4 PUSH20 0xFFFFFFFFFFFFFFFFFFFFFFFFFFFFFFFFFFFFFFFF AND MUL OR SWAP1 SSTORE POP DUP2 PUSH20 0xFFFFFFFFFFFFFFFFFFFFFFFFFFFFFFFFFFFFFFFF AND DUP2 PUSH20 0xFFFFFFFFFFFFFFFFFFFFFFFFFFFFFFFFFFFFFFFF AND PUSH32 0x8BE0079C531659141344CD1FD0A4F28419497F9722A3DAAFE3B4186F6B6457E0 PUSH1 0x40 MLOAD PUSH1 0x40 MLOAD DUP1 SWAP2 SUB SWAP1 LOG3 POP POP JUMP JUMPDEST PUSH1 0x0 DUP2 MLOAD SWAP1 POP SWAP2 SWAP1 POP JUMP JUMPDEST PUSH32 0x4E487B7100000000000000000000000000000000000000000000000000000000 PUSH1 0x0 MSTORE PUSH1 0x41 PUSH1 0x4 MSTORE PUSH1 0x24 PUSH1 0x0 REVERT JUMPDEST PUSH32 0x4E487B7100000000000000000000000000000000000000000000000000000000 PUSH1 0x0 MSTORE PUSH1 0x22 PUSH1 0x4 MSTORE PUSH1 0x24 PUSH1 0x0 REVERT JUMPDEST PUSH1 0x0 PUSH1 0x2 DUP3 DIV SWAP1 POP PUSH1 0x1 DUP3 AND DUP1 PUSH3 0x22B JUMPI PUSH1 0x7F DUP3 AND SWAP2 POP JUMPDEST PUSH1 0x20 DUP3 LT DUP2 SUB PUSH3 0x241 JUMPI PUSH3 0x240 PUSH3 0x1E3 JUMP JUMPDEST JUMPDEST POP SWAP2 SWAP1 POP JUMP JUMPDEST PUSH1 0x0 DUP2 SWAP1 POP DUP2 PUSH1 0x0 MSTORE PUSH1 0x20 PUSH1 0x0 KECCAK256 SWAP1 POP SWAP2 SWAP1 POP JUMP JUMPDEST PUSH1 0x0 PUSH1 0x20 PUSH1 0x1F DUP4 ADD DIV SWAP1 POP SWAP2 SWAP1 POP JUMP JUMPDEST PUSH1 0x0 DUP3 DUP3 SHL SWAP1 POP SWAP3 SWAP2 POP POP JUMP JUMPDEST PUSH1 0x0 PUSH1 0x8 DUP4 MUL PUSH3 0x2AB PUSH32 0xFFFFFFFFFFFFFFFFFFFFFFFFFFFFFFFFFFFFFFFFFFFFFFFFFFFFFFFFFFFFFFFF DUP3 PUSH3 0x26C JUMP JUMPDEST PUSH3 0x2B7 DUP7 DUP4 PUSH3 0x26C JUMP JUMPDEST SWAP6 POP DUP1 NOT DUP5 AND SWAP4 POP DUP1 DUP7 AND DUP5 OR SWAP3 POP POP POP SWAP4 SWAP3 POP POP POP JUMP JUMPDEST PUSH1 0x0 DUP2 SWAP1 POP SWAP2 SWAP1 POP JUMP JUMPDEST PUSH1 0x0 DUP2 SWAP1 POP SWAP2 SWAP1 POP JUMP JUMPDEST PUSH1 0x0 PUSH3 0x304 PUSH3 0x2FE PUSH3 0x2F8 DUP5 PUSH3 0x2CF JUMP JUMPDEST PUSH3 0x2D9 JUMP JUMPDEST PUSH3 0x2CF JUMP JUMPDEST SWAP1 POP SWAP2 SWAP1 POP JUMP JUMPDEST PUSH1 0x0 DUP2 SWAP1 POP SWAP2 SWAP1 POP JUMP JUMPDEST PUSH3 0x320 DUP4 PUSH3 0x2E3 JUMP JUMPDEST PUSH3 0x338 PUSH3 0x32F DUP3 PUSH3 0x30B JUMP JUMPDEST DUP5 DUP5 SLOAD PUSH3 0x279 JUMP JUMPDEST DUP3 SSTORE POP POP POP POP JUMP JUMPDEST PUSH1 0x0 SWAP1 JUMP JUMPDEST PUSH3 0x34F PUSH3 0x340 JUMP JUMPDEST PUSH3 0x35C DUP2 DUP5 DUP5 PUSH3 0x315 JUMP JUMPDEST POP POP POP JUMP JUMPDEST JUMPDEST DUP2 DUP2 LT ISZERO PUSH3 0x384 JUMPI PUSH3 0x378 PUSH1 0x0 DUP3 PUSH3 0x345 JUMP JUMPDEST PUSH1 0x1 DUP2 ADD SWAP1 POP PUSH3 0x362 JUMP JUMPDEST POP POP JUMP JUMPDEST PUSH1 0x1F DUP3 GT ISZERO PUSH3 0x3D3 JUMPI PUSH3 0x39D DUP2 PUSH3 0x247 JUMP JUMPDEST PUSH3 0x3A8 DUP5 PUSH3 0x25C JUMP JUMPDEST DUP2 ADD PUSH1 0x20 DUP6 LT ISZERO PUSH3 0x3B8 JUMPI DUP2 SWAP1 POP JUMPDEST PUSH3 0x3D0 PUSH3 0x3C7 DUP6 PUSH3 0x25C JUMP JUMPDEST DUP4 ADD DUP3 PUSH3 0x361 JUMP JUMPDEST POP POP JUMPDEST POP POP POP JUMP JUMPDEST PUSH1 0x0 DUP3 DUP3 SHR SWAP1 POP SWAP3 SWAP2 POP POP JUMP JUMPDEST PUSH1 0x0 PUSH3 0x3F8 PUSH1 0x0 NOT DUP5 PUSH1 0x8 MUL PUSH3 0x3D8 JUMP JUMPDEST NOT DUP1 DUP4 AND SWAP2 POP POP SWAP3 SWAP2 POP POP JUMP JUMPDEST PUSH1 0x0 PUSH3 0x413 DUP4 DUP4 PUSH3 0x3E5 JUMP JUMPDEST SWAP2 POP DUP3 PUSH1 0x2 MUL DUP3 OR SWAP1 POP SWAP3 SWAP2 POP POP JUMP JUMPDEST PUSH3 0x42E DUP3 PUSH3 0x1A9 JUMP JUMPDEST PUSH8 0xFFFFFFFFFFFFFFFF DUP2 GT ISZERO PUSH3 0x44A JUMPI PUSH3 0x449 PUSH3 0x1B4 JUMP JUMPDEST JUMPDEST PUSH3 0x456 DUP3 SLOAD PUSH3 0x212 JUMP JUMPDEST PUSH3 0x463 DUP3 DUP3 DUP6 PUSH3 0x388 JUMP JUMPDEST PUSH1 0x0 PUSH1 0x20 SWAP1 POP PUSH1 0x1F DUP4 GT PUSH1 0x1 DUP2 EQ PUSH3 0x49B JUMPI PUSH1 0x0 DUP5 ISZERO PUSH3 0x486 JUMPI DUP3 DUP8 ADD MLOAD SWAP1 POP JUMPDEST PUSH3 0x492 DUP6 DUP3 PUSH3 0x405 JUMP JUMPDEST DUP7 SSTORE POP PUSH3 0x502 JUMP JUMPDEST PUSH1 0x1F NOT DUP5 AND PUSH3 0x4AB DUP7 PUSH3 0x247 JUMP JUMPDEST PUSH1 0x0 JUMPDEST DUP3 DUP2 LT ISZERO PUSH3 0x4D5 JUMPI DUP5 DUP10 ADD MLOAD DUP3 SSTORE PUSH1 0x1 DUP3 ADD SWAP2 POP PUSH1 0x20 DUP6 ADD SWAP5 POP PUSH1 0x20 DUP2 ADD SWAP1 POP PUSH3 0x4AE JUMP JUMPDEST DUP7 DUP4 LT ISZERO PUSH3 0x4F5 JUMPI DUP5 DUP10 ADD MLOAD PUSH3 0x4F1 PUSH1 0x1F DUP10 AND DUP3 PUSH3 0x3E5 JUMP JUMPDEST DUP4 SSTORE POP JUMPDEST PUSH1 0x1 PUSH1 0x2 DUP9 MUL ADD DUP9 SSTORE POP POP POP JUMPDEST POP POP POP POP POP POP JUMP JUMPDEST PUSH2 0x35CA DUP1 PUSH3 0x51A PUSH1 0x0 CODECOPY PUSH1 0x0 RETURN INVALID PUSH1 0x80 PUSH1 0x40 MSTORE PUSH1 0x4 CALLDATASIZE LT PUSH2 0x166 JUMPI PUSH1 0x0 CALLDATALOAD PUSH1 0xE0 SHR DUP1 PUSH4 0x715018A6 GT PUSH2 0xD1 JUMPI DUP1 PUSH4 0xB88D4FDE GT PUSH2 0x8A JUMPI DUP1 PUSH4 0xE985E9C5 GT PUSH2 0x64 JUMPI DUP1 PUSH4 0xE985E9C5 EQ PUSH2 0x50B JUMPI DUP1 PUSH4 0xEACABE14 EQ PUSH2 0x548 JUMPI DUP1 PUSH4 0xF0293FD3 EQ PUSH2 0x585 JUMPI DUP1 PUSH4 0xF2FDE38B EQ PUSH2 0x5C2 JUMPI PUSH2 0x166 JUMP JUMPDEST DUP1 PUSH4 0xB88D4FDE EQ PUSH2 0x47A JUMPI DUP1 PUSH4 0xC87B56DD EQ PUSH2 0x4A3 JUMPI DUP1 PUSH4 0xD5ABEB01 EQ PUSH2 0x4E0 JUMPI PUSH2 0x166 JUMP JUMPDEST DUP1 PUSH4 0x715018A6 EQ PUSH2 0x39D JUMPI DUP1 PUSH4 0x85D178F4 EQ PUSH2 0x3B4 JUMPI DUP1 PUSH4 0x8DA5CB5B EQ PUSH2 0x3DF JUMPI DUP1 PUSH4 0x95D89B41 EQ PUSH2 0x40A JUMPI DUP1 PUSH4 0xA0712D68 EQ PUSH2 0x435 JUMPI DUP1 PUSH4 0xA22CB465 EQ PUSH2 0x451 JUMPI PUSH2 0x166 JUMP JUMPDEST DUP1 PUSH4 0x3CCFD60B GT PUSH2 0x123 JUMPI DUP1 PUSH4 0x3CCFD60B EQ PUSH2 0x28D JUMPI DUP1 PUSH4 0x42842E0E EQ PUSH2 0x2A4 JUMPI DUP1 PUSH4 0x453C2310 EQ PUSH2 0x2CD JUMPI DUP1 PUSH4 0x6352211E EQ PUSH2 0x2F8 JUMPI DUP1 PUSH4 0x6817C76C EQ PUSH2 0x335 JUMPI DUP1 PUSH4 0x70A08231 EQ PUSH2 0x360 JUMPI PUSH2 0x166 JUMP JUMPDEST DUP1 PUSH4 0x1FFC9A7 EQ PUSH2 0x16B JUMPI DUP1 PUSH4 0x6FDDE03 EQ PUSH2 0x1A8 JUMPI DUP1 PUSH4 0x81812FC EQ PUSH2 0x1D3 JUMPI DUP1 PUSH4 0x95EA7B3 EQ PUSH2 0x210 JUMPI DUP1 PUSH4 0x18160DDD EQ PUSH2 0x239 JUMPI DUP1 PUSH4 0x23B872DD EQ PUSH2 0x264 JUMPI JUMPDEST PUSH1 0x0 DUP1 REVERT JUMPDEST CALLVALUE DUP1 ISZERO PUSH2 0x177 JUMPI PUSH1 0x0 DUP1 REVERT JUMPDEST POP PUSH2 0x192 PUSH1 0x4 DUP1 CALLDATASIZE SUB DUP2 ADD SWAP1 PUSH2 0x18D SWAP2 SWAP1 PUSH2 0x1FD7 JUMP JUMPDEST PUSH2 0x5EB JUMP JUMPDEST PUSH1 0x40 MLOAD PUSH2 0x19F SWAP2 SWAP1 PUSH2 0x201F JUMP JUMPDEST PUSH1 0x40 MLOAD DUP1 SWAP2 SUB SWAP1 RETURN JUMPDEST CALLVALUE DUP1 ISZERO PUSH2 0x1B4 JUMPI PUSH1 0x0 DUP1 REVERT JUMPDEST POP PUSH2 0x1BD PUSH2 0x6CD JUMP JUMPDEST PUSH1 0x40 MLOAD PUSH2 0x1CA SWAP2 SWAP1 PUSH2 0x20CA JUMP JUMPDEST PUSH1 0x40 MLOAD DUP1 SWAP2 SUB SWAP1 RETURN JUMPDEST CALLVALUE DUP1 ISZERO PUSH2 0x1DF JUMPI PUSH1 0x0 DUP1 REVERT JUMPDEST POP PUSH2 0x1FA PUSH1 0x4 DUP1 CALLDATASIZE SUB DUP2 ADD SWAP1 PUSH2 0x1F5 SWAP2 SWAP1 PUSH2 0x2122 JUMP JUMPDEST PUSH2 0x75F JUMP JUMPDEST PUSH1 0x40 MLOAD PUSH2 0x207 SWAP2 SWAP1 PUSH2 0x2190 JUMP JUMPDEST PUSH1 0x40 MLOAD DUP1 SWAP2 SUB SWAP1 RETURN JUMPDEST CALLVALUE DUP1 ISZERO PUSH2 0x21C JUMPI PUSH1 0x0 DUP1 REVERT JUMPDEST POP PUSH2 0x237 PUSH1 0x4 DUP1 CALLDATASIZE SUB DUP2 ADD SWAP1 PUSH2 0x232 SWAP2 SWAP1 PUSH2 0x21D7 JUMP JUMPDEST PUSH2 0x7A5 JUMP JUMPDEST STOP JUMPDEST CALLVALUE DUP1 ISZERO PUSH2 0x245 JUMPI PUSH1 0x0 DUP1 REVERT JUMPDEST POP PUSH2 0x24E PUSH2 0x8BC JUMP JUMPDEST PUSH1 0x40 MLOAD PUSH2 0x25B SWAP2 SWAP1 PUSH2 0x2226 JUMP JUMPDEST PUSH1 0x40 MLOAD DUP1 SWAP2 SUB SWAP1 RETURN JUMPDEST CALLVALUE DUP1 ISZERO PUSH2 0x270 JUMPI PUSH1 0x0 DUP1 REVERT JUMPDEST POP PUSH2 0x28B PUSH1 0x4 DUP1 CALLDATASIZE SUB DUP2 ADD SWAP1 PUSH2 0x286 SWAP2 SWAP1 PUSH2 0x2241 JUMP JUMPDEST PUSH2 0x8C2 JUMP JUMPDEST STOP JUMPDEST CALLVALUE DUP1 ISZERO PUSH2 0x299 JUMPI PUSH1 0x0 DUP1 REVERT JUMPDEST POP PUSH2 0x2A2 PUSH2 0x922 JUMP JUMPDEST STOP JUMPDEST CALLVALUE DUP1 ISZERO PUSH2 0x2B0 JUMPI PUSH1 0x0 DUP1 REVERT JUMPDEST POP PUSH2 0x2CB PUSH1 0x4 DUP1 CALLDATASIZE SUB DUP2 ADD SWAP1 PUSH2 0x2C6 SWAP2 SWAP1 PUSH2 0x2241 JUMP JUMPDEST PUSH2 0x9FB JUMP JUMPDEST STOP JUMPDEST CALLVALUE DUP1 ISZERO PUSH2 0x2D9 JUMPI PUSH1 0x0 DUP1 REVERT JUMPDEST POP PUSH2 0x2E2 PUSH2 0xA1B JUMP JUMPDEST PUSH1 0x40 MLOAD PUSH2 0x2EF SWAP2 SWAP1 PUSH2 0x2226 JUMP JUMPDEST PUSH1 0x40 MLOAD DUP1 SWAP2 SUB SWAP1 RETURN JUMPDEST CALLVALUE DUP1 ISZERO PUSH2 0x304 JUMPI PUSH1 0x0 DUP1 REVERT JUMPDEST POP PUSH2 0x31F PUSH1 0x4 DUP1 CALLDATASIZE SUB DUP2 ADD SWAP1 PUSH2 0x31A SWAP2 SWAP1 PUSH2 0x2122 JUMP JUMPDEST PUSH2 0xA21 JUMP JUMPDEST PUSH1 0x40 MLOAD PUSH2 0x32C SWAP2 SWAP1 PUSH2 0x2190 JUMP JUMPDEST PUSH1 0x40 MLOAD DUP1 SWAP2 SUB SWAP1 RETURN JUMPDEST CALLVALUE DUP1 ISZERO PUSH2 0x341 JUMPI PUSH1 0x0 DUP1 REVERT JUMPDEST POP PUSH2 0x34A PUSH2 0xAD2 JUMP JUMPDEST PUSH1 0x40 MLOAD PUSH2 0x357 SWAP2 SWAP1 PUSH2 0x2226 JUMP JUMPDEST PUSH1 0x40 MLOAD DUP1 SWAP2 SUB SWAP1 RETURN JUMPDEST CALLVALUE DUP1 ISZERO PUSH2 0x36C JUMPI PUSH1 0x0 DUP1 REVERT JUMPDEST POP PUSH2 0x387 PUSH1 0x4 DUP1 CALLDATASIZE SUB DUP2 ADD SWAP1 PUSH2 0x382 SWAP2 SWAP1 PUSH2 0x2294 JUMP JUMPDEST PUSH2 0xAD8 JUMP JUMPDEST PUSH1 0x40 MLOAD PUSH2 0x394 SWAP2 SWAP1 PUSH2 0x2226 JUMP JUMPDEST PUSH1 0x40 MLOAD DUP1 SWAP2 SUB SWAP1 RETURN JUMPDEST CALLVALUE DUP1 ISZERO PUSH2 0x3A9 JUMPI PUSH1 0x0 DUP1 REVERT JUMPDEST POP PUSH2 0x3B2 PUSH2 0xB8F JUMP JUMPDEST STOP JUMPDEST CALLVALUE DUP1 ISZERO PUSH2 0x3C0 JUMPI PUSH1 0x0 DUP1 REVERT JUMPDEST POP PUSH2 0x3C9 PUSH2 0xBA3 JUMP JUMPDEST PUSH1 0x40 MLOAD PUSH2 0x3D6 SWAP2 SWAP1 PUSH2 0x22E2 JUMP JUMPDEST PUSH1 0x40 MLOAD DUP1 SWAP2 SUB SWAP1 RETURN JUMPDEST CALLVALUE DUP1 ISZERO PUSH2 0x3EB JUMPI PUSH1 0x0 DUP1 REVERT JUMPDEST POP PUSH2 0x3F4 PUSH2 0xBC9 JUMP JUMPDEST PUSH1 0x40 MLOAD PUSH2 0x401 SWAP2 SWAP1 PUSH2 0x2190 JUMP JUMPDEST PUSH1 0x40 MLOAD DUP1 SWAP2 SUB SWAP1 RETURN JUMPDEST CALLVALUE DUP1 ISZERO PUSH2 0x416 JUMPI PUSH1 0x0 DUP1 REVERT JUMPDEST POP PUSH2 0x41F PUSH2 0xBF3 JUMP JUMPDEST PUSH1 0x40 MLOAD PUSH2 0x42C SWAP2 SWAP1 PUSH2 0x20CA JUMP JUMPDEST PUSH1 0x40 MLOAD DUP1 SWAP2 SUB SWAP1 RETURN JUMPDEST PUSH2 0x44F PUSH1 0x4 DUP1 CALLDATASIZE SUB DUP2 ADD SWAP1 PUSH2 0x44A SWAP2 SWAP1 PUSH2 0x2122 JUMP JUMPDEST PUSH2 0xC85 JUMP JUMPDEST STOP JUMPDEST CALLVALUE DUP1 ISZERO PUSH2 0x45D JUMPI PUSH1 0x0 DUP1 REVERT JUMPDEST POP PUSH2 0x478 PUSH1 0x4 DUP1 CALLDATASIZE SUB DUP2 ADD SWAP1 PUSH2 0x473 SWAP2 SWAP1 PUSH2 0x2329 JUMP JUMPDEST PUSH2 0xE0D JUMP JUMPDEST STOP JUMPDEST CALLVALUE DUP1 ISZERO PUSH2 0x486 JUMPI PUSH1 0x0 DUP1 REVERT JUMPDEST POP PUSH2 0x4A1 PUSH1 0x4 DUP1 CALLDATASIZE SUB DUP2 ADD SWAP1 PUSH2 0x49C SWAP2 SWAP1 PUSH2 0x249E JUMP JUMPDEST PUSH2 0xE23 JUMP JUMPDEST STOP JUMPDEST CALLVALUE DUP1 ISZERO PUSH2 0x4AF JUMPI PUSH1 0x0 DUP1 REVERT JUMPDEST POP PUSH2 0x4CA PUSH1 0x4 DUP1 CALLDATASIZE SUB DUP2 ADD SWAP1 PUSH2 0x4C5 SWAP2 SWAP1 PUSH2 0x2122 JUMP JUMPDEST PUSH2 0xE85 JUMP JUMPDEST PUSH1 0x40 MLOAD PUSH2 0x4D7 SWAP2 SWAP1 PUSH2 0x20CA JUMP JUMPDEST PUSH1 0x40 MLOAD DUP1 SWAP2 SUB SWAP1 RETURN JUMPDEST CALLVALUE DUP1 ISZERO PUSH2 0x4EC JUMPI PUSH1 0x0 DUP1 REVERT JUMPDEST POP PUSH2 0x4F5 PUSH2 0xF97 JUMP JUMPDEST PUSH1 0x40 MLOAD PUSH2 0x502 SWAP2 SWAP1 PUSH2 0x2226 JUMP JUMPDEST PUSH1 0x40 MLOAD DUP1 SWAP2 SUB SWAP1 RETURN JUMPDEST CALLVALUE DUP1 ISZERO PUSH2 0x517 JUMPI PUSH1 0x0 DUP1 REVERT JUMPDEST POP PUSH2 0x532 PUSH1 0x4 DUP1 CALLDATASIZE SUB DUP2 ADD SWAP1 PUSH2 0x52D SWAP2 SWAP1 PUSH2 0x2521 JUMP JUMPDEST PUSH2 0xF9D JUMP JUMPDEST PUSH1 0x40 MLOAD PUSH2 0x53F SWAP2 SWAP1 PUSH2 0x201F JUMP JUMPDEST PUSH1 0x40 MLOAD DUP1 SWAP2 SUB SWAP1 RETURN JUMPDEST CALLVALUE DUP1 ISZERO PUSH2 0x554 JUMPI PUSH1 0x0 DUP1 REVERT JUMPDEST POP PUSH2 0x56F PUSH1 0x4 DUP1 CALLDATASIZE SUB DUP2 ADD SWAP1 PUSH2 0x56A SWAP2 SWAP1 PUSH2 0x2602 JUMP JUMPDEST PUSH2 0x1031 JUMP JUMPDEST PUSH1 0x40 MLOAD PUSH2 0x57C SWAP2 SWAP1 PUSH2 0x2226 JUMP JUMPDEST PUSH1 0x40 MLOAD DUP1 SWAP2 SUB SWAP1 RETURN JUMPDEST CALLVALUE DUP1 ISZERO PUSH2 0x591 JUMPI PUSH1 0x0 DUP1 REVERT JUMPDEST POP PUSH2 0x5AC PUSH1 0x4 DUP1 CALLDATASIZE SUB DUP2 ADD SWAP1 PUSH2 0x5A7 SWAP2 SWAP1 PUSH2 0x2294 JUMP JUMPDEST PUSH2 0x1071 JUMP JUMPDEST PUSH1 0x40 MLOAD PUSH2 0x5B9 SWAP2 SWAP1 PUSH2 0x2226 JUMP JUMPDEST PUSH1 0x40 MLOAD DUP1 SWAP2 SUB SWAP1 RETURN JUMPDEST CALLVALUE DUP1 ISZERO PUSH2 0x5CE JUMPI PUSH1 0x0 DUP1 REVERT JUMPDEST POP PUSH2 0x5E9 PUSH1 0x4 DUP1 CALLDATASIZE SUB DUP2 ADD SWAP1 PUSH2 0x5E4 SWAP2 SWAP1 PUSH2 0x2294 JUMP JUMPDEST PUSH2 0x1089 JUMP JUMPDEST STOP JUMPDEST PUSH1 0x0 PUSH32 0x80AC58CD00000000000000000000000000000000000000000000000000000000 PUSH28 0xFFFFFFFFFFFFFFFFFFFFFFFFFFFFFFFFFFFFFFFFFFFFFFFFFFFFFFFF NOT AND DUP3 PUSH28 0xFFFFFFFFFFFFFFFFFFFFFFFFFFFFFFFFFFFFFFFFFFFFFFFFFFFFFFFF NOT AND EQ DUP1 PUSH2 0x6B6 JUMPI POP PUSH32 0x5B5E139F00000000000000000000000000000000000000000000000000000000 PUSH28 0xFFFFFFFFFFFFFFFFFFFFFFFFFFFFFFFFFFFFFFFFFFFFFFFFFFFFFFFF NOT AND DUP3 PUSH28 0xFFFFFFFFFFFFFFFFFFFFFFFFFFFFFFFFFFFFFFFFFFFFFFFFFFFFFFFF NOT AND EQ JUMPDEST DUP1 PUSH2 0x6C6 JUMPI POP PUSH2 0x6C5 DUP3 PUSH2 0x110C JUMP JUMPDEST JUMPDEST SWAP1 POP SWAP2 SWAP1 POP JUMP JUMPDEST PUSH1 0x60 PUSH1 0x0 DUP1 SLOAD PUSH2 0x6DC SWAP1 PUSH2 0x268D JUMP JUMPDEST DUP1 PUSH1 0x1F ADD PUSH1 0x20 DUP1 SWAP2 DIV MUL PUSH1 0x20 ADD PUSH1 0x40 MLOAD SWAP1 DUP2 ADD PUSH1 0x40 MSTORE DUP1 SWAP3 SWAP2 SWAP1 DUP2 DUP2 MSTORE PUSH1 0x20 ADD DUP3 DUP1 SLOAD PUSH2 0x708 SWAP1 PUSH2 0x268D JUMP JUMPDEST DUP1 ISZERO PUSH2 0x755 JUMPI DUP1 PUSH1 0x1F LT PUSH2 0x72A JUMPI PUSH2 0x100 DUP1 DUP4 SLOAD DIV MUL DUP4 MSTORE SWAP2 PUSH1 0x20 ADD SWAP2 PUSH2 0x755 JUMP JUMPDEST DUP3 ADD SWAP2 SWAP1 PUSH1 0x0 MSTORE PUSH1 0x20 PUSH1 0x0 KECCAK256 SWAP1 JUMPDEST DUP2 SLOAD DUP2 MSTORE SWAP1 PUSH1 0x1 ADD SWAP1 PUSH1 0x20 ADD DUP1 DUP4 GT PUSH2 0x738 JUMPI DUP3 SWAP1 SUB PUSH1 0x1F AND DUP3 ADD SWAP2 JUMPDEST POP POP POP POP POP SWAP1 POP SWAP1 JUMP JUMPDEST PUSH1 0x0 PUSH2 0x76A DUP3 PUSH2 0x1176 JUMP JUMPDEST PUSH1 0x4 PUSH1 0x0 DUP4 DUP2 MSTORE PUSH1 0x20 ADD SWAP1 DUP2 MSTORE PUSH1 0x20 ADD PUSH1 0x0 KECCAK256 PUSH1 0x0 SWAP1 SLOAD SWAP1 PUSH2 0x100 EXP SWAP1 DIV PUSH20 0xFFFFFFFFFFFFFFFFFFFFFFFFFFFFFFFFFFFFFFFF AND SWAP1 POP SWAP2 SWAP1 POP JUMP JUMPDEST PUSH1 0x0 PUSH2 0x7B0 DUP3 PUSH2 0xA21 JUMP JUMPDEST SWAP1 POP DUP1 PUSH20 0xFFFFFFFFFFFFFFFFFFFFFFFFFFFFFFFFFFFFFFFF AND DUP4 PUSH20 0xFFFFFFFFFFFFFFFFFFFFFFFFFFFFFFFFFFFFFFFF AND SUB PUSH2 0x820 JUMPI PUSH1 0x40 MLOAD PUSH32 0x8C379A000000000000000000000000000000000000000000000000000000000 DUP2 MSTORE PUSH1 0x4 ADD PUSH2 0x817 SWAP1 PUSH2 0x2730 JUMP JUMPDEST PUSH1 0x40 MLOAD DUP1 SWAP2 SUB SWAP1 REVERT JUMPDEST DUP1 PUSH20 0xFFFFFFFFFFFFFFFFFFFFFFFFFFFFFFFFFFFFFFFF AND PUSH2 0x83F PUSH2 0x11C1 JUMP JUMPDEST PUSH20 0xFFFFFFFFFFFFFFFFFFFFFFFFFFFFFFFFFFFFFFFF AND EQ DUP1 PUSH2 0x86E JUMPI POP PUSH2 0x86D DUP2 PUSH2 0x868 PUSH2 0x11C1 JUMP JUMPDEST PUSH2 0xF9D JUMP JUMPDEST JUMPDEST PUSH2 0x8AD JUMPI PUSH1 0x40 MLOAD PUSH32 0x8C379A000000000000000000000000000000000000000000000000000000000 DUP2 MSTORE PUSH1 0x4 ADD PUSH2 0x8A4 SWAP1 PUSH2 0x27C2 JUMP JUMPDEST PUSH1 0x40 MLOAD DUP1 SWAP2 SUB SWAP1 REVERT JUMPDEST PUSH2 0x8B7 DUP4 DUP4 PUSH2 0x11C9 JUMP JUMPDEST POP POP POP JUMP JUMPDEST PUSH1 0xB SLOAD DUP2 JUMP JUMPDEST PUSH2 0x8D3 PUSH2 0x8CD PUSH2 0x11C1 JUMP JUMPDEST DUP3 PUSH2 0x1282 JUMP JUMPDEST PUSH2 0x912 JUMPI PUSH1 0x40 MLOAD PUSH32 0x8C379A000000000000000000000000000000000000000000000000000000000 DUP2 MSTORE PUSH1 0x4 ADD PUSH2 0x909 SWAP1 PUSH2 0x2854 JUMP JUMPDEST PUSH1 0x40 MLOAD DUP1 SWAP2 SUB SWAP1 REVERT JUMPDEST PUSH2 0x91D DUP4 DUP4 DUP4 PUSH2 0x1317 JUMP JUMPDEST POP POP POP JUMP JUMPDEST PUSH2 0x92A PUSH2 0x157D JUMP JUMPDEST PUSH1 0x0 PUSH1 0xD PUSH1 0x0 SWAP1 SLOAD SWAP1 PUSH2 0x100 EXP SWAP1 DIV PUSH20 0xFFFFFFFFFFFFFFFFFFFFFFFFFFFFFFFFFFFFFFFF AND PUSH20 0xFFFFFFFFFFFFFFFFFFFFFFFFFFFFFFFFFFFFFFFF AND SELFBALANCE PUSH1 0x40 MLOAD PUSH2 0x972 SWAP1 PUSH2 0x28A5 JUMP JUMPDEST PUSH1 0x0 PUSH1 0x40 MLOAD DUP1 DUP4 SUB DUP2 DUP6 DUP8 GAS CALL SWAP3 POP POP POP RETURNDATASIZE DUP1 PUSH1 0x0 DUP2 EQ PUSH2 0x9AF JUMPI PUSH1 0x40 MLOAD SWAP2 POP PUSH1 0x1F NOT PUSH1 0x3F RETURNDATASIZE ADD AND DUP3 ADD PUSH1 0x40 MSTORE RETURNDATASIZE DUP3 MSTORE RETURNDATASIZE PUSH1 0x0 PUSH1 0x20 DUP5 ADD RETURNDATACOPY PUSH2 0x9B4 JUMP JUMPDEST PUSH1 0x60 SWAP2 POP JUMPDEST POP POP SWAP1 POP DUP1 PUSH2 0x9F8 JUMPI PUSH1 0x40 MLOAD PUSH32 0x8C379A000000000000000000000000000000000000000000000000000000000 DUP2 MSTORE PUSH1 0x4 ADD PUSH2 0x9EF SWAP1 PUSH2 0x2906 JUMP JUMPDEST PUSH1 0x40 MLOAD DUP1 SWAP2 SUB SWAP1 REVERT JUMPDEST POP JUMP JUMPDEST PUSH2 0xA16 DUP4 DUP4 DUP4 PUSH1 0x40 MLOAD DUP1 PUSH1 0x20 ADD PUSH1 0x40 MSTORE DUP1 PUSH1 0x0 DUP2 MSTORE POP PUSH2 0xE23 JUMP JUMPDEST POP POP POP JUMP JUMPDEST PUSH1 0xC SLOAD DUP2 JUMP JUMPDEST PUSH1 0x0 DUP1 PUSH1 0x2 PUSH1 0x0 DUP5 DUP2 MSTORE PUSH1 0x20 ADD SWAP1 DUP2 MSTORE PUSH1 0x20 ADD PUSH1 0x0 KECCAK256 PUSH1 0x0 SWAP1 SLOAD SWAP1 PUSH2 0x100 EXP SWAP1 DIV PUSH20 0xFFFFFFFFFFFFFFFFFFFFFFFFFFFFFFFFFFFFFFFF AND SWAP1 POP PUSH1 0x0 PUSH20 0xFFFFFFFFFFFFFFFFFFFFFFFFFFFFFFFFFFFFFFFF AND DUP2 PUSH20 0xFFFFFFFFFFFFFFFFFFFFFFFFFFFFFFFFFFFFFFFF AND SUB PUSH2 0xAC9 JUMPI PUSH1 0x40 MLOAD PUSH32 0x8C379A000000000000000000000000000000000000000000000000000000000 DUP2 MSTORE PUSH1 0x4 ADD PUSH2 0xAC0 SWAP1 PUSH2 0x2972 JUMP JUMPDEST PUSH1 0x40 MLOAD DUP1 SWAP2 SUB SWAP1 REVERT JUMPDEST DUP1 SWAP2 POP POP SWAP2 SWAP1 POP JUMP JUMPDEST PUSH1 0x9 SLOAD DUP2 JUMP JUMPDEST PUSH1 0x0 DUP1 PUSH20 0xFFFFFFFFFFFFFFFFFFFFFFFFFFFFFFFFFFFFFFFF AND DUP3 PUSH20 0xFFFFFFFFFFFFFFFFFFFFFFFFFFFFFFFFFFFFFFFF AND SUB PUSH2 0xB48 JUMPI PUSH1 0x40 MLOAD PUSH32 0x8C379A000000000000000000000000000000000000000000000000000000000 DUP2 MSTORE PUSH1 0x4 ADD PUSH2 0xB3F SWAP1 PUSH2 0x2A04 JUMP JUMPDEST PUSH1 0x40 MLOAD DUP1 SWAP2 SUB SWAP1 REVERT JUMPDEST PUSH1 0x3 PUSH1 0x0 DUP4 PUSH20 0xFFFFFFFFFFFFFFFFFFFFFFFFFFFFFFFFFFFFFFFF AND PUSH20 0xFFFFFFFFFFFFFFFFFFFFFFFFFFFFFFFFFFFFFFFF AND DUP2 MSTORE PUSH1 0x20 ADD SWAP1 DUP2 MSTORE PUSH1 0x20 ADD PUSH1 0x0 KECCAK256 SLOAD SWAP1 POP SWAP2 SWAP1 POP JUMP JUMPDEST PUSH2 0xB97 PUSH2 0x157D JUMP JUMPDEST PUSH2 0xBA1 PUSH1 0x0 PUSH2 0x15FB JUMP JUMPDEST JUMP JUMPDEST PUSH1 0xD PUSH1 0x0 SWAP1 SLOAD SWAP1 PUSH2 0x100 EXP SWAP1 DIV PUSH20 0xFFFFFFFFFFFFFFFFFFFFFFFFFFFFFFFFFFFFFFFF AND DUP2 JUMP JUMPDEST PUSH1 0x0 PUSH1 0x7 PUSH1 0x0 SWAP1 SLOAD SWAP1 PUSH2 0x100 EXP SWAP1 DIV PUSH20 0xFFFFFFFFFFFFFFFFFFFFFFFFFFFFFFFFFFFFFFFF AND SWAP1 POP SWAP1 JUMP JUMPDEST PUSH1 0x60 PUSH1 0x1 DUP1 SLOAD PUSH2 0xC02 SWAP1 PUSH2 0x268D JUMP JUMPDEST DUP1 PUSH1 0x1F ADD PUSH1 0x20 DUP1 SWAP2 DIV MUL PUSH1 0x20 ADD PUSH1 0x40 MLOAD SWAP1 DUP2 ADD PUSH1 0x40 MSTORE DUP1 SWAP3 SWAP2 SWAP1 DUP2 DUP2 MSTORE PUSH1 0x20 ADD DUP3 DUP1 SLOAD PUSH2 0xC2E SWAP1 PUSH2 0x268D JUMP JUMPDEST DUP1 ISZERO PUSH2 0xC7B JUMPI DUP1 PUSH1 0x1F LT PUSH2 0xC50 JUMPI PUSH2 0x100 DUP1 DUP4 SLOAD DIV MUL DUP4 MSTORE SWAP2 PUSH1 0x20 ADD SWAP2 PUSH2 0xC7B JUMP JUMPDEST DUP3 ADD SWAP2 SWAP1 PUSH1 0x0 MSTORE PUSH1 0x20 PUSH1 0x0 KECCAK256 SWAP1 JUMPDEST DUP2 SLOAD DUP2 MSTORE SWAP1 PUSH1 0x1 ADD SWAP1 PUSH1 0x20 ADD DUP1 DUP4 GT PUSH2 0xC5E JUMPI DUP3 SWAP1 SUB PUSH1 0x1F AND DUP3 ADD SWAP2 JUMPDEST POP POP POP POP POP SWAP1 POP SWAP1 JUMP JUMPDEST PUSH1 0x9 SLOAD DUP2 PUSH2 0xC93 SWAP2 SWAP1 PUSH2 0x2A53 JUMP JUMPDEST CALLVALUE EQ PUSH2 0xCD4 JUMPI PUSH1 0x40 MLOAD PUSH32 0x8C379A000000000000000000000000000000000000000000000000000000000 DUP2 MSTORE PUSH1 0x4 ADD PUSH2 0xCCB SWAP1 PUSH2 0x2AE1 JUMP JUMPDEST PUSH1 0x40 MLOAD DUP1 SWAP2 SUB SWAP1 REVERT JUMPDEST PUSH1 0xA SLOAD DUP2 PUSH1 0xB SLOAD PUSH2 0xCE5 SWAP2 SWAP1 PUSH2 0x2B01 JUMP JUMPDEST GT ISZERO PUSH2 0xD26 JUMPI PUSH1 0x40 MLOAD PUSH32 0x8C379A000000000000000000000000000000000000000000000000000000000 DUP2 MSTORE PUSH1 0x4 ADD PUSH2 0xD1D SWAP1 PUSH2 0x2B81 JUMP JUMPDEST PUSH1 0x40 MLOAD DUP1 SWAP2 SUB SWAP1 REVERT JUMPDEST PUSH1 0xC SLOAD DUP2 PUSH1 0xE PUSH1 0x0 CALLER PUSH20 0xFFFFFFFFFFFFFFFFFFFFFFFFFFFFFFFFFFFFFFFF AND PUSH20 0xFFFFFFFFFFFFFFFFFFFFFFFFFFFFFFFFFFFFFFFF AND DUP2 MSTORE PUSH1 0x20 ADD SWAP1 DUP2 MSTORE PUSH1 0x20 ADD PUSH1 0x0 KECCAK256 SLOAD PUSH2 0xD74 SWAP2 SWAP1 PUSH2 0x2B01 JUMP JUMPDEST GT ISZERO PUSH2 0xDB5 JUMPI PUSH1 0x40 MLOAD PUSH32 0x8C379A000000000000000000000000000000000000000000000000000000000 DUP2 MSTORE PUSH1 0x4 ADD PUSH2 0xDAC SWAP1 PUSH2 0x2BED JUMP JUMPDEST PUSH1 0x40 MLOAD DUP1 SWAP2 SUB SWAP1 REVERT JUMPDEST PUSH1 0x0 JUMPDEST DUP2 DUP2 LT ISZERO PUSH2 0xE09 JUMPI PUSH1 0x0 PUSH1 0x1 PUSH1 0xB SLOAD PUSH2 0xDD1 SWAP2 SWAP1 PUSH2 0x2B01 JUMP JUMPDEST SWAP1 POP PUSH1 0xB PUSH1 0x0 DUP2 SLOAD DUP1 SWAP3 SWAP2 SWAP1 PUSH2 0xDE6 SWAP1 PUSH2 0x2C0D JUMP JUMPDEST SWAP2 SWAP1 POP SSTORE POP PUSH2 0xDF5 CALLER DUP3 PUSH2 0x16C1 JUMP JUMPDEST POP DUP1 DUP1 PUSH2 0xE01 SWAP1 PUSH2 0x2C0D JUMP JUMPDEST SWAP2 POP POP PUSH2 0xDB8 JUMP JUMPDEST POP POP JUMP JUMPDEST PUSH2 0xE1F PUSH2 0xE18 PUSH2 0x11C1 JUMP JUMPDEST DUP4 DUP4 PUSH2 0x16DF JUMP JUMPDEST POP POP JUMP JUMPDEST PUSH2 0xE34 PUSH2 0xE2E PUSH2 0x11C1 JUMP JUMPDEST DUP4 PUSH2 0x1282 JUMP JUMPDEST PUSH2 0xE73 JUMPI PUSH1 0x40 MLOAD PUSH32 0x8C379A000000000000000000000000000000000000000000000000000000000 DUP2 MSTORE PUSH1 0x4 ADD PUSH2 0xE6A SWAP1 PUSH2 0x2854 JUMP JUMPDEST PUSH1 0x40 MLOAD DUP1 SWAP2 SUB SWAP1 REVERT JUMPDEST PUSH2 0xE7F DUP5 DUP5 DUP5 DUP5 PUSH2 0x184B JUMP JUMPDEST POP POP POP POP JUMP JUMPDEST PUSH1 0x60 PUSH2 0xE90 DUP3 PUSH2 0x1176 JUMP JUMPDEST PUSH1 0x0 PUSH1 0x6 PUSH1 0x0 DUP5 DUP2 MSTORE PUSH1 0x20 ADD SWAP1 DUP2 MSTORE PUSH1 0x20 ADD PUSH1 0x0 KECCAK256 DUP1 SLOAD PUSH2 0xEB0 SWAP1 PUSH2 0x268D JUMP JUMPDEST DUP1 PUSH1 0x1F ADD PUSH1 0x20 DUP1 SWAP2 DIV MUL PUSH1 0x20 ADD PUSH1 0x40 MLOAD SWAP1 DUP2 ADD PUSH1 0x40 MSTORE DUP1 SWAP3 SWAP2 SWAP1 DUP2 DUP2 MSTORE PUSH1 0x20 ADD DUP3 DUP1 SLOAD PUSH2 0xEDC SWAP1 PUSH2 0x268D JUMP JUMPDEST DUP1 ISZERO PUSH2 0xF29 JUMPI DUP1 PUSH1 0x1F LT PUSH2 0xEFE JUMPI PUSH2 0x100 DUP1 DUP4 SLOAD DIV MUL DUP4 MSTORE SWAP2 PUSH1 0x20 ADD SWAP2 PUSH2 0xF29 JUMP JUMPDEST DUP3 ADD SWAP2 SWAP1 PUSH1 0x0 MSTORE PUSH1 0x20 PUSH1 0x0 KECCAK256 SWAP1 JUMPDEST DUP2 SLOAD DUP2 MSTORE SWAP1 PUSH1 0x1 ADD SWAP1 PUSH1 0x20 ADD DUP1 DUP4 GT PUSH2 0xF0C JUMPI DUP3 SWAP1 SUB PUSH1 0x1F AND DUP3 ADD SWAP2 JUMPDEST POP POP POP POP POP SWAP1 POP PUSH1 0x0 PUSH2 0xF3A PUSH2 0x18A7 JUMP JUMPDEST SWAP1 POP PUSH1 0x0 DUP2 MLOAD SUB PUSH2 0xF4F JUMPI DUP2 SWAP3 POP POP POP PUSH2 0xF92 JUMP JUMPDEST PUSH1 0x0 DUP3 MLOAD GT ISZERO PUSH2 0xF84 JUMPI DUP1 DUP3 PUSH1 0x40 MLOAD PUSH1 0x20 ADD PUSH2 0xF6C SWAP3 SWAP2 SWAP1 PUSH2 0x2C91 JUMP JUMPDEST PUSH1 0x40 MLOAD PUSH1 0x20 DUP2 DUP4 SUB SUB DUP2 MSTORE SWAP1 PUSH1 0x40 MSTORE SWAP3 POP POP POP PUSH2 0xF92 JUMP JUMPDEST PUSH2 0xF8D DUP5 PUSH2 0x18BE JUMP JUMPDEST SWAP3 POP POP POP JUMPDEST SWAP2 SWAP1 POP JUMP JUMPDEST PUSH1 0xA SLOAD DUP2 JUMP JUMPDEST PUSH1 0x0 PUSH1 0x5 PUSH1 0x0 DUP5 PUSH20 0xFFFFFFFFFFFFFFFFFFFFFFFFFFFFFFFFFFFFFFFF AND PUSH20 0xFFFFFFFFFFFFFFFFFFFFFFFFFFFFFFFFFFFFFFFF AND DUP2 MSTORE PUSH1 0x20 ADD SWAP1 DUP2 MSTORE PUSH1 0x20 ADD PUSH1 0x0 KECCAK256 PUSH1 0x0 DUP4 PUSH20 0xFFFFFFFFFFFFFFFFFFFFFFFFFFFFFFFFFFFFFFFF AND PUSH20 0xFFFFFFFFFFFFFFFFFFFFFFFFFFFFFFFFFFFFFFFF AND DUP2 MSTORE PUSH1 0x20 ADD SWAP1 DUP2 MSTORE PUSH1 0x20 ADD PUSH1 0x0 KECCAK256 PUSH1 0x0 SWAP1 SLOAD SWAP1 PUSH2 0x100 EXP SWAP1 DIV PUSH1 0xFF AND SWAP1 POP SWAP3 SWAP2 POP POP JUMP JUMPDEST PUSH1 0x0 PUSH2 0x103B PUSH2 0x157D JUMP JUMPDEST PUSH2 0x1045 PUSH1 0x8 PUSH2 0x1926 JUMP JUMPDEST PUSH1 0x0 PUSH2 0x1051 PUSH1 0x8 PUSH2 0x193C JUMP JUMPDEST SWAP1 POP PUSH2 0x105D DUP5 DUP3 PUSH2 0x194A JUMP JUMPDEST PUSH2 0x1067 DUP2 DUP5 PUSH2 0x1B23 JUMP JUMPDEST DUP1 SWAP2 POP POP SWAP3 SWAP2 POP POP JUMP JUMPDEST PUSH1 0xE PUSH1 0x20 MSTORE DUP1 PUSH1 0x0 MSTORE PUSH1 0x40 PUSH1 0x0 KECCAK256 PUSH1 0x0 SWAP2 POP SWAP1 POP SLOAD DUP2 JUMP JUMPDEST PUSH2 0x1091 PUSH2 0x157D JUMP JUMPDEST PUSH1 0x0 PUSH20 0xFFFFFFFFFFFFFFFFFFFFFFFFFFFFFFFFFFFFFFFF AND DUP2 PUSH20 0xFFFFFFFFFFFFFFFFFFFFFFFFFFFFFFFFFFFFFFFF AND SUB PUSH2 0x1100 JUMPI PUSH1 0x40 MLOAD PUSH32 0x8C379A000000000000000000000000000000000000000000000000000000000 DUP2 MSTORE PUSH1 0x4 ADD PUSH2 0x10F7 SWAP1 PUSH2 0x2D27 JUMP JUMPDEST PUSH1 0x40 MLOAD DUP1 SWAP2 SUB SWAP1 REVERT JUMPDEST PUSH2 0x1109 DUP2 PUSH2 0x15FB JUMP JUMPDEST POP JUMP JUMPDEST PUSH1 0x0 PUSH32 0x1FFC9A700000000000000000000000000000000000000000000000000000000 PUSH28 0xFFFFFFFFFFFFFFFFFFFFFFFFFFFFFFFFFFFFFFFFFFFFFFFFFFFFFFFF NOT AND DUP3 PUSH28 0xFFFFFFFFFFFFFFFFFFFFFFFFFFFFFFFFFFFFFFFFFFFFFFFFFFFFFFFF NOT AND EQ SWAP1 POP SWAP2 SWAP1 POP JUMP JUMPDEST PUSH2 0x117F DUP2 PUSH2 0x1B90 JUMP JUMPDEST PUSH2 0x11BE JUMPI PUSH1 0x40 MLOAD PUSH32 0x8C379A000000000000000000000000000000000000000000000000000000000 DUP2 MSTORE PUSH1 0x4 ADD PUSH2 0x11B5 SWAP1 PUSH2 0x2972 JUMP JUMPDEST PUSH1 0x40 MLOAD DUP1 SWAP2 SUB SWAP1 REVERT JUMPDEST POP JUMP JUMPDEST PUSH1 0x0 CALLER SWAP1 POP SWAP1 JUMP JUMPDEST DUP2 PUSH1 0x4 PUSH1 0x0 DUP4 DUP2 MSTORE PUSH1 0x20 ADD SWAP1 DUP2 MSTORE PUSH1 0x20 ADD PUSH1 0x0 KECCAK256 PUSH1 0x0 PUSH2 0x100 EXP DUP2 SLOAD DUP2 PUSH20 0xFFFFFFFFFFFFFFFFFFFFFFFFFFFFFFFFFFFFFFFF MUL NOT AND SWAP1 DUP4 PUSH20 0xFFFFFFFFFFFFFFFFFFFFFFFFFFFFFFFFFFFFFFFF AND MUL OR SWAP1 SSTORE POP DUP1 DUP3 PUSH20 0xFFFFFFFFFFFFFFFFFFFFFFFFFFFFFFFFFFFFFFFF AND PUSH2 0x123C DUP4 PUSH2 0xA21 JUMP JUMPDEST PUSH20 0xFFFFFFFFFFFFFFFFFFFFFFFFFFFFFFFFFFFFFFFF AND PUSH32 0x8C5BE1E5EBEC7D5BD14F71427D1E84F3DD0314C0F7B2291E5B200AC8C7C3B925 PUSH1 0x40 MLOAD PUSH1 0x40 MLOAD DUP1 SWAP2 SUB SWAP1 LOG4 POP POP JUMP JUMPDEST PUSH1 0x0 DUP1 PUSH2 0x128E DUP4 PUSH2 0xA21 JUMP JUMPDEST SWAP1 POP DUP1 PUSH20 0xFFFFFFFFFFFFFFFFFFFFFFFFFFFFFFFFFFFFFFFF AND DUP5 PUSH20 0xFFFFFFFFFFFFFFFFFFFFFFFFFFFFFFFFFFFFFFFF AND EQ DUP1 PUSH2 0x12D0 JUMPI POP PUSH2 0x12CF DUP2 DUP6 PUSH2 0xF9D JUMP JUMPDEST JUMPDEST DUP1 PUSH2 0x130E JUMPI POP DUP4 PUSH20 0xFFFFFFFFFFFFFFFFFFFFFFFFFFFFFFFFFFFFFFFF AND PUSH2 0x12F6 DUP5 PUSH2 0x75F JUMP JUMPDEST PUSH20 0xFFFFFFFFFFFFFFFFFFFFFFFFFFFFFFFFFFFFFFFF AND EQ JUMPDEST SWAP2 POP POP SWAP3 SWAP2 POP POP JUMP JUMPDEST DUP3 PUSH20 0xFFFFFFFFFFFFFFFFFFFFFFFFFFFFFFFFFFFFFFFF AND PUSH2 0x1337 DUP3 PUSH2 0xA21 JUMP JUMPDEST PUSH20 0xFFFFFFFFFFFFFFFFFFFFFFFFFFFFFFFFFFFFFFFF AND EQ PUSH2 0x138D JUMPI PUSH1 0x40 MLOAD PUSH32 0x8C379A000000000000000000000000000000000000000000000000000000000 DUP2 MSTORE PUSH1 0x4 ADD PUSH2 0x1384 SWAP1 PUSH2 0x2DB9 JUMP JUMPDEST PUSH1 0x40 MLOAD DUP1 SWAP2 SUB SWAP1 REVERT JUMPDEST PUSH1 0x0 PUSH20 0xFFFFFFFFFFFFFFFFFFFFFFFFFFFFFFFFFFFFFFFF AND DUP3 PUSH20 0xFFFFFFFFFFFFFFFFFFFFFFFFFFFFFFFFFFFFFFFF AND SUB PUSH2 0x13FC JUMPI PUSH1 0x40 MLOAD PUSH32 0x8C379A000000000000000000000000000000000000000000000000000000000 DUP2 MSTORE PUSH1 0x4 ADD PUSH2 0x13F3 SWAP1 PUSH2 0x2E4B JUMP JUMPDEST PUSH1 0x40 MLOAD DUP1 SWAP2 SUB SWAP1 REVERT JUMPDEST PUSH2 0x1407 DUP4 DUP4 DUP4 PUSH2 0x1BFC JUMP JUMPDEST PUSH2 0x1412 PUSH1 0x0 DUP3 PUSH2 0x11C9 JUMP JUMPDEST PUSH1 0x1 PUSH1 0x3 PUSH1 0x0 DUP6 PUSH20 0xFFFFFFFFFFFFFFFFFFFFFFFFFFFFFFFFFFFFFFFF AND PUSH20 0xFFFFFFFFFFFFFFFFFFFFFFFFFFFFFFFFFFFFFFFF AND DUP2 MSTORE PUSH1 0x20 ADD SWAP1 DUP2 MSTORE PUSH1 0x20 ADD PUSH1 0x0 KECCAK256 PUSH1 0x0 DUP3 DUP3 SLOAD PUSH2 0x1462 SWAP2 SWAP1 PUSH2 0x2E6B JUMP JUMPDEST SWAP3 POP POP DUP2 SWAP1 SSTORE POP PUSH1 0x1 PUSH1 0x3 PUSH1 0x0 DUP5 PUSH20 0xFFFFFFFFFFFFFFFFFFFFFFFFFFFFFFFFFFFFFFFF AND PUSH20 0xFFFFFFFFFFFFFFFFFFFFFFFFFFFFFFFFFFFFFFFF AND DUP2 MSTORE PUSH1 0x20 ADD SWAP1 DUP2 MSTORE PUSH1 0x20 ADD PUSH1 0x0 KECCAK256 PUSH1 0x0 DUP3 DUP3 SLOAD PUSH2 0x14B9 SWAP2 SWAP1 PUSH2 0x2B01 JUMP JUMPDEST SWAP3 POP POP DUP2 SWAP1 SSTORE POP DUP2 PUSH1 0x2 PUSH1 0x0 DUP4 DUP2 MSTORE PUSH1 0x20 ADD SWAP1 DUP2 MSTORE PUSH1 0x20 ADD PUSH1 0x0 KECCAK256 PUSH1 0x0 PUSH2 0x100 EXP DUP2 SLOAD DUP2 PUSH20 0xFFFFFFFFFFFFFFFFFFFFFFFFFFFFFFFFFFFFFFFF MUL NOT AND SWAP1 DUP4 PUSH20 0xFFFFFFFFFFFFFFFFFFFFFFFFFFFFFFFFFFFFFFFF AND MUL OR SWAP1 SSTORE POP DUP1 DUP3 PUSH20 0xFFFFFFFFFFFFFFFFFFFFFFFFFFFFFFFFFFFFFFFF AND DUP5 PUSH20 0xFFFFFFFFFFFFFFFFFFFFFFFFFFFFFFFFFFFFFFFF AND PUSH32 0xDDF252AD1BE2C89B69C2B068FC378DAA952BA7F163C4A11628F55A4DF523B3EF PUSH1 0x40 MLOAD PUSH1 0x40 MLOAD DUP1 SWAP2 SUB SWAP1 LOG4 PUSH2 0x1578 DUP4 DUP4 DUP4 PUSH2 0x1C01 JUMP JUMPDEST POP POP POP JUMP JUMPDEST PUSH2 0x1585 PUSH2 0x11C1 JUMP JUMPDEST PUSH20 0xFFFFFFFFFFFFFFFFFFFFFFFFFFFFFFFFFFFFFFFF AND PUSH2 0x15A3 PUSH2 0xBC9 JUMP JUMPDEST PUSH20 0xFFFFFFFFFFFFFFFFFFFFFFFFFFFFFFFFFFFFFFFF AND EQ PUSH2 0x15F9 JUMPI PUSH1 0x40 MLOAD PUSH32 0x8C379A000000000000000000000000000000000000000000000000000000000 DUP2 MSTORE PUSH1 0x4 ADD PUSH2 0x15F0 SWAP1 PUSH2 0x2EEB JUMP JUMPDEST PUSH1 0x40 MLOAD DUP1 SWAP2 SUB SWAP1 REVERT JUMPDEST JUMP JUMPDEST PUSH1 0x0 PUSH1 0x7 PUSH1 0x0 SWAP1 SLOAD SWAP1 PUSH2 0x100 EXP SWAP1 DIV PUSH20 0xFFFFFFFFFFFFFFFFFFFFFFFFFFFFFFFFFFFFFFFF AND SWAP1 POP DUP2 PUSH1 0x7 PUSH1 0x0 PUSH2 0x100 EXP DUP2 SLOAD DUP2 PUSH20 0xFFFFFFFFFFFFFFFFFFFFFFFFFFFFFFFFFFFFFFFF MUL NOT AND SWAP1 DUP4 PUSH20 0xFFFFFFFFFFFFFFFFFFFFFFFFFFFFFFFFFFFFFFFF AND MUL OR SWAP1 SSTORE POP DUP2 PUSH20 0xFFFFFFFFFFFFFFFFFFFFFFFFFFFFFFFFFFFFFFFF AND DUP2 PUSH20 0xFFFFFFFFFFFFFFFFFFFFFFFFFFFFFFFFFFFFFFFF AND PUSH32 0x8BE0079C531659141344CD1FD0A4F28419497F9722A3DAAFE3B4186F6B6457E0 PUSH1 0x40 MLOAD PUSH1 0x40 MLOAD DUP1 SWAP2 SUB SWAP1 LOG3 POP POP JUMP JUMPDEST PUSH2 0x16DB DUP3 DUP3 PUSH1 0x40 MLOAD DUP1 PUSH1 0x20 ADD PUSH1 0x40 MSTORE DUP1 PUSH1 0x0 DUP2 MSTORE POP PUSH2 0x1C06 JUMP JUMPDEST POP POP JUMP JUMPDEST DUP2 PUSH20 0xFFFFFFFFFFFFFFFFFFFFFFFFFFFFFFFFFFFFFFFF AND DUP4 PUSH20 0xFFFFFFFFFFFFFFFFFFFFFFFFFFFFFFFFFFFFFFFF AND SUB PUSH2 0x174D JUMPI PUSH1 0x40 MLOAD PUSH32 0x8C379A000000000000000000000000000000000000000000000000000000000 DUP2 MSTORE PUSH1 0x4 ADD PUSH2 0x1744 SWAP1 PUSH2 0x2F57 JUMP JUMPDEST PUSH1 0x40 MLOAD DUP1 SWAP2 SUB SWAP1 REVERT JUMPDEST DUP1 PUSH1 0x5 PUSH1 0x0 DUP6 PUSH20 0xFFFFFFFFFFFFFFFFFFFFFFFFFFFFFFFFFFFFFFFF AND PUSH20 0xFFFFFFFFFFFFFFFFFFFFFFFFFFFFFFFFFFFFFFFF AND DUP2 MSTORE PUSH1 0x20 ADD SWAP1 DUP2 MSTORE PUSH1 0x20 ADD PUSH1 0x0 KECCAK256 PUSH1 0x0 DUP5 PUSH20 0xFFFFFFFFFFFFFFFFFFFFFFFFFFFFFFFFFFFFFFFF AND PUSH20 0xFFFFFFFFFFFFFFFFFFFFFFFFFFFFFFFFFFFFFFFF AND DUP2 MSTORE PUSH1 0x20 ADD SWAP1 DUP2 MSTORE PUSH1 0x20 ADD PUSH1 0x0 KECCAK256 PUSH1 0x0 PUSH2 0x100 EXP DUP2 SLOAD DUP2 PUSH1 0xFF MUL NOT AND SWAP1 DUP4 ISZERO ISZERO MUL OR SWAP1 SSTORE POP DUP2 PUSH20 0xFFFFFFFFFFFFFFFFFFFFFFFFFFFFFFFFFFFFFFFF AND DUP4 PUSH20 0xFFFFFFFFFFFFFFFFFFFFFFFFFFFFFFFFFFFFFFFF AND PUSH32 0x17307EAB39AB6107E8899845AD3D59BD9653F200F220920489CA2B5937696C31 DUP4 PUSH1 0x40 MLOAD PUSH2 0x183E SWAP2 SWAP1 PUSH2 0x201F JUMP JUMPDEST PUSH1 0x40 MLOAD DUP1 SWAP2 SUB SWAP1 LOG3 POP POP POP JUMP JUMPDEST PUSH2 0x1856 DUP5 DUP5 DUP5 PUSH2 0x1317 JUMP JUMPDEST PUSH2 0x1862 DUP5 DUP5 DUP5 DUP5 PUSH2 0x1C61 JUMP JUMPDEST PUSH2 0x18A1 JUMPI PUSH1 0x40 MLOAD PUSH32 0x8C379A000000000000000000000000000000000000000000000000000000000 DUP2 MSTORE PUSH1 0x4 ADD PUSH2 0x1898 SWAP1 PUSH2 0x2FE9 JUMP JUMPDEST PUSH1 0x40 MLOAD DUP1 SWAP2 SUB SWAP1 REVERT JUMPDEST POP POP POP POP JUMP JUMPDEST PUSH1 0x60 PUSH1 0x40 MLOAD DUP1 PUSH1 0x20 ADD PUSH1 0x40 MSTORE DUP1 PUSH1 0x0 DUP2 MSTORE POP SWAP1 POP SWAP1 JUMP JUMPDEST PUSH1 0x60 PUSH2 0x18C9 DUP3 PUSH2 0x1176 JUMP JUMPDEST PUSH1 0x0 PUSH2 0x18D3 PUSH2 0x18A7 JUMP JUMPDEST SWAP1 POP PUSH1 0x0 DUP2 MLOAD GT PUSH2 0x18F3 JUMPI PUSH1 0x40 MLOAD DUP1 PUSH1 0x20 ADD PUSH1 0x40 MSTORE DUP1 PUSH1 0x0 DUP2 MSTORE POP PUSH2 0x191E JUMP JUMPDEST DUP1 PUSH2 0x18FD DUP5 PUSH2 0x1DE8 JUMP JUMPDEST PUSH1 0x40 MLOAD PUSH1 0x20 ADD PUSH2 0x190E SWAP3 SWAP2 SWAP1 PUSH2 0x2C91 JUMP JUMPDEST PUSH1 0x40 MLOAD PUSH1 0x20 DUP2 DUP4 SUB SUB DUP2 MSTORE SWAP1 PUSH1 0x40 MSTORE JUMPDEST SWAP2 POP POP SWAP2 SWAP1 POP JUMP JUMPDEST PUSH1 0x1 DUP2 PUSH1 0x0 ADD PUSH1 0x0 DUP3 DUP3 SLOAD ADD SWAP3 POP POP DUP2 SWAP1 SSTORE POP POP JUMP JUMPDEST PUSH1 0x0 DUP2 PUSH1 0x0 ADD SLOAD SWAP1 POP SWAP2 SWAP1 POP JUMP JUMPDEST PUSH1 0x0 PUSH20 0xFFFFFFFFFFFFFFFFFFFFFFFFFFFFFFFFFFFFFFFF AND DUP3 PUSH20 0xFFFFFFFFFFFFFFFFFFFFFFFFFFFFFFFFFFFFFFFF AND SUB PUSH2 0x19B9 JUMPI PUSH1 0x40 MLOAD PUSH32 0x8C379A000000000000000000000000000000000000000000000000000000000 DUP2 MSTORE PUSH1 0x4 ADD PUSH2 0x19B0 SWAP1 PUSH2 0x3055 JUMP JUMPDEST PUSH1 0x40 MLOAD DUP1 SWAP2 SUB SWAP1 REVERT JUMPDEST PUSH2 0x19C2 DUP2 PUSH2 0x1B90 JUMP JUMPDEST ISZERO PUSH2 0x1A02 JUMPI PUSH1 0x40 MLOAD PUSH32 0x8C379A000000000000000000000000000000000000000000000000000000000 DUP2 MSTORE PUSH1 0x4 ADD PUSH2 0x19F9 SWAP1 PUSH2 0x30C1 JUMP JUMPDEST PUSH1 0x40 MLOAD DUP1 SWAP2 SUB SWAP1 REVERT JUMPDEST PUSH2 0x1A0E PUSH1 0x0 DUP4 DUP4 PUSH2 0x1BFC JUMP JUMPDEST PUSH1 0x1 PUSH1 0x3 PUSH1 0x0 DUP5 PUSH20 0xFFFFFFFFFFFFFFFFFFFFFFFFFFFFFFFFFFFFFFFF AND PUSH20 0xFFFFFFFFFFFFFFFFFFFFFFFFFFFFFFFFFFFFFFFF AND DUP2 MSTORE PUSH1 0x20 ADD SWAP1 DUP2 MSTORE PUSH1 0x20 ADD PUSH1 0x0 KECCAK256 PUSH1 0x0 DUP3 DUP3 SLOAD PUSH2 0x1A5E SWAP2 SWAP1 PUSH2 0x2B01 JUMP JUMPDEST SWAP3 POP POP DUP2 SWAP1 SSTORE POP DUP2 PUSH1 0x2 PUSH1 0x0 DUP4 DUP2 MSTORE PUSH1 0x20 ADD SWAP1 DUP2 MSTORE PUSH1 0x20 ADD PUSH1 0x0 KECCAK256 PUSH1 0x0 PUSH2 0x100 EXP DUP2 SLOAD DUP2 PUSH20 0xFFFFFFFFFFFFFFFFFFFFFFFFFFFFFFFFFFFFFFFF MUL NOT AND SWAP1 DUP4 PUSH20 0xFFFFFFFFFFFFFFFFFFFFFFFFFFFFFFFFFFFFFFFF AND MUL OR SWAP1 SSTORE POP DUP1 DUP3 PUSH20 0xFFFFFFFFFFFFFFFFFFFFFFFFFFFFFFFFFFFFFFFF AND PUSH1 0x0 PUSH20 0xFFFFFFFFFFFFFFFFFFFFFFFFFFFFFFFFFFFFFFFF AND PUSH32 0xDDF252AD1BE2C89B69C2B068FC378DAA952BA7F163C4A11628F55A4DF523B3EF PUSH1 0x40 MLOAD PUSH1 0x40 MLOAD DUP1 SWAP2 SUB SWAP1 LOG4 PUSH2 0x1B1F PUSH1 0x0 DUP4 DUP4 PUSH2 0x1C01 JUMP JUMPDEST POP POP JUMP JUMPDEST PUSH2 0x1B2C DUP3 PUSH2 0x1B90 JUMP JUMPDEST PUSH2 0x1B6B JUMPI PUSH1 0x40 MLOAD PUSH32 0x8C379A000000000000000000000000000000000000000000000000000000000 DUP2 MSTORE PUSH1 0x4 ADD PUSH2 0x1B62 SWAP1 PUSH2 0x3153 JUMP JUMPDEST PUSH1 0x40 MLOAD DUP1 SWAP2 SUB SWAP1 REVERT JUMPDEST DUP1 PUSH1 0x6 PUSH1 0x0 DUP5 DUP2 MSTORE PUSH1 0x20 ADD SWAP1 DUP2 MSTORE PUSH1 0x20 ADD PUSH1 0x0 KECCAK256 SWAP1 DUP2 PUSH2 0x1B8B SWAP2 SWAP1 PUSH2 0x331F JUMP JUMPDEST POP POP POP JUMP JUMPDEST PUSH1 0x0 DUP1 PUSH20 0xFFFFFFFFFFFFFFFFFFFFFFFFFFFFFFFFFFFFFFFF AND PUSH1 0x2 PUSH1 0x0 DUP5 DUP2 MSTORE PUSH1 0x20 ADD SWAP1 DUP2 MSTORE PUSH1 0x20 ADD PUSH1 0x0 KECCAK256 PUSH1 0x0 SWAP1 SLOAD SWAP1 PUSH2 0x100 EXP SWAP1 DIV PUSH20 0xFFFFFFFFFFFFFFFFFFFFFFFFFFFFFFFFFFFFFFFF AND PUSH20 0xFFFFFFFFFFFFFFFFFFFFFFFFFFFFFFFFFFFFFFFF AND EQ ISZERO SWAP1 POP SWAP2 SWAP1 POP JUMP JUMPDEST POP POP POP JUMP JUMPDEST POP POP POP JUMP JUMPDEST PUSH2 0x1C10 DUP4 DUP4 PUSH2 0x194A JUMP JUMPDEST PUSH2 0x1C1D PUSH1 0x0 DUP5 DUP5 DUP5 PUSH2 0x1C61 JUMP JUMPDEST PUSH2 0x1C5C JUMPI PUSH1 0x40 MLOAD PUSH32 0x8C379A000000000000000000000000000000000000000000000000000000000 DUP2 MSTORE PUSH1 0x4 ADD PUSH2 0x1C53 SWAP1 PUSH2 0x2FE9 JUMP JUMPDEST PUSH1 0x40 MLOAD DUP1 SWAP2 SUB SWAP1 REVERT JUMPDEST POP POP POP JUMP JUMPDEST PUSH1 0x0 PUSH2 0x1C82 DUP5 PUSH20 0xFFFFFFFFFFFFFFFFFFFFFFFFFFFFFFFFFFFFFFFF AND PUSH2 0x1F48 JUMP JUMPDEST ISZERO PUSH2 0x1DDB JUMPI DUP4 PUSH20 0xFFFFFFFFFFFFFFFFFFFFFFFFFFFFFFFFFFFFFFFF AND PUSH4 0x150B7A02 PUSH2 0x1CAB PUSH2 0x11C1 JUMP JUMPDEST DUP8 DUP7 DUP7 PUSH1 0x40 MLOAD DUP6 PUSH4 0xFFFFFFFF AND PUSH1 0xE0 SHL DUP2 MSTORE PUSH1 0x4 ADD PUSH2 0x1CCD SWAP5 SWAP4 SWAP3 SWAP2 SWAP1 PUSH2 0x3446 JUMP JUMPDEST PUSH1 0x20 PUSH1 0x40 MLOAD DUP1 DUP4 SUB DUP2 PUSH1 0x0 DUP8 GAS CALL SWAP3 POP POP POP DUP1 ISZERO PUSH2 0x1D09 JUMPI POP PUSH1 0x40 MLOAD RETURNDATASIZE PUSH1 0x1F NOT PUSH1 0x1F DUP3 ADD AND DUP3 ADD DUP1 PUSH1 0x40 MSTORE POP DUP2 ADD SWAP1 PUSH2 0x1D06 SWAP2 SWAP1 PUSH2 0x34A7 JUMP JUMPDEST PUSH1 0x1 JUMPDEST PUSH2 0x1D8B JUMPI RETURNDATASIZE DUP1 PUSH1 0x0 DUP2 EQ PUSH2 0x1D39 JUMPI PUSH1 0x40 MLOAD SWAP2 POP PUSH1 0x1F NOT PUSH1 0x3F RETURNDATASIZE ADD AND DUP3 ADD PUSH1 0x40 MSTORE RETURNDATASIZE DUP3 MSTORE RETURNDATASIZE PUSH1 0x0 PUSH1 0x20 DUP5 ADD RETURNDATACOPY PUSH2 0x1D3E JUMP JUMPDEST PUSH1 0x60 SWAP2 POP JUMPDEST POP PUSH1 0x0 DUP2 MLOAD SUB PUSH2 0x1D83 JUMPI PUSH1 0x40 MLOAD PUSH32 0x8C379A000000000000000000000000000000000000000000000000000000000 DUP2 MSTORE PUSH1 0x4 ADD PUSH2 0x1D7A SWAP1 PUSH2 0x2FE9 JUMP JUMPDEST PUSH1 0x40 MLOAD DUP1 SWAP2 SUB SWAP1 REVERT JUMPDEST DUP1 MLOAD DUP2 PUSH1 0x20 ADD REVERT JUMPDEST PUSH4 0x150B7A02 PUSH1 0xE0 SHL PUSH28 0xFFFFFFFFFFFFFFFFFFFFFFFFFFFFFFFFFFFFFFFFFFFFFFFFFFFFFFFF NOT AND DUP2 PUSH28 0xFFFFFFFFFFFFFFFFFFFFFFFFFFFFFFFFFFFFFFFFFFFFFFFFFFFFFFFF NOT AND EQ SWAP2 POP POP PUSH2 0x1DE0 JUMP JUMPDEST PUSH1 0x1 SWAP1 POP JUMPDEST SWAP5 SWAP4 POP POP POP POP JUMP JUMPDEST PUSH1 0x60 PUSH1 0x0 DUP3 SUB PUSH2 0x1E2F JUMPI PUSH1 0x40 MLOAD DUP1 PUSH1 0x40 ADD PUSH1 0x40 MSTORE DUP1 PUSH1 0x1 DUP2 MSTORE PUSH1 0x20 ADD PUSH32 0x3000000000000000000000000000000000000000000000000000000000000000 DUP2 MSTORE POP SWAP1 POP PUSH2 0x1F43 JUMP JUMPDEST PUSH1 0x0 DUP3 SWAP1 POP PUSH1 0x0 JUMPDEST PUSH1 0x0 DUP3 EQ PUSH2 0x1E61 JUMPI DUP1 DUP1 PUSH2 0x1E4A SWAP1 PUSH2 0x2C0D JUMP JUMPDEST SWAP2 POP POP PUSH1 0xA DUP3 PUSH2 0x1E5A SWAP2 SWAP1 PUSH2 0x3503 JUMP JUMPDEST SWAP2 POP PUSH2 0x1E37 JUMP JUMPDEST PUSH1 0x0 DUP2 PUSH8 0xFFFFFFFFFFFFFFFF DUP2 GT ISZERO PUSH2 0x1E7D JUMPI PUSH2 0x1E7C PUSH2 0x2373 JUMP JUMPDEST JUMPDEST PUSH1 0x40 MLOAD SWAP1 DUP1 DUP3 MSTORE DUP1 PUSH1 0x1F ADD PUSH1 0x1F NOT AND PUSH1 0x20 ADD DUP3 ADD PUSH1 0x40 MSTORE DUP1 ISZERO PUSH2 0x1EAF JUMPI DUP2 PUSH1 0x20 ADD PUSH1 0x1 DUP3 MUL DUP1 CALLDATASIZE DUP4 CALLDATACOPY DUP1 DUP3 ADD SWAP2 POP POP SWAP1 POP JUMPDEST POP SWAP1 POP JUMPDEST PUSH1 0x0 DUP6 EQ PUSH2 0x1F3C JUMPI PUSH1 0x1 DUP3 PUSH2 0x1EC8 SWAP2 SWAP1 PUSH2 0x2E6B JUMP JUMPDEST SWAP2 POP PUSH1 0xA DUP6 PUSH2 0x1ED7 SWAP2 SWAP1 PUSH2 0x3534 JUMP JUMPDEST PUSH1 0x30 PUSH2 0x1EE3 SWAP2 SWAP1 PUSH2 0x2B01 JUMP JUMPDEST PUSH1 0xF8 SHL DUP2 DUP4 DUP2 MLOAD DUP2 LT PUSH2 0x1EF9 JUMPI PUSH2 0x1EF8 PUSH2 0x3565 JUMP JUMPDEST JUMPDEST PUSH1 0x20 ADD ADD SWAP1 PUSH31 0xFFFFFFFFFFFFFFFFFFFFFFFFFFFFFFFFFFFFFFFFFFFFFFFFFFFFFFFFFFFFFF NOT AND SWAP1 DUP2 PUSH1 0x0 BYTE SWAP1 MSTORE8 POP PUSH1 0xA DUP6 PUSH2 0x1F35 SWAP2 SWAP1 PUSH2 0x3503 JUMP JUMPDEST SWAP5 POP PUSH2 0x1EB3 JUMP JUMPDEST DUP1 SWAP4 POP POP POP POP JUMPDEST SWAP2 SWAP1 POP JUMP JUMPDEST PUSH1 0x0 DUP1 DUP3 PUSH20 0xFFFFFFFFFFFFFFFFFFFFFFFFFFFFFFFFFFFFFFFF AND EXTCODESIZE GT SWAP1 POP SWAP2 SWAP1 POP JUMP JUMPDEST PUSH1 0x0 PUSH1 0x40 MLOAD SWAP1 POP SWAP1 JUMP JUMPDEST PUSH1 0x0 DUP1 REVERT JUMPDEST PUSH1 0x0 DUP1 REVERT JUMPDEST PUSH1 0x0 PUSH32 0xFFFFFFFF00000000000000000000000000000000000000000000000000000000 DUP3 AND SWAP1 POP SWAP2 SWAP1 POP JUMP JUMPDEST PUSH2 0x1FB4 DUP2 PUSH2 0x1F7F JUMP JUMPDEST DUP2 EQ PUSH2 0x1FBF JUMPI PUSH1 0x0 DUP1 REVERT JUMPDEST POP JUMP JUMPDEST PUSH1 0x0 DUP2 CALLDATALOAD SWAP1 POP PUSH2 0x1FD1 DUP2 PUSH2 0x1FAB JUMP JUMPDEST SWAP3 SWAP2 POP POP JUMP JUMPDEST PUSH1 0x0 PUSH1 0x20 DUP3 DUP5 SUB SLT ISZERO PUSH2 0x1FED JUMPI PUSH2 0x1FEC PUSH2 0x1F75 JUMP JUMPDEST JUMPDEST PUSH1 0x0 PUSH2 0x1FFB DUP5 DUP3 DUP6 ADD PUSH2 0x1FC2 JUMP JUMPDEST SWAP2 POP POP SWAP3 SWAP2 POP POP JUMP JUMPDEST PUSH1 0x0 DUP2 ISZERO ISZERO SWAP1 POP SWAP2 SWAP1 POP JUMP JUMPDEST PUSH2 0x2019 DUP2 PUSH2 0x2004 JUMP JUMPDEST DUP3 MSTORE POP POP JUMP JUMPDEST PUSH1 0x0 PUSH1 0x20 DUP3 ADD SWAP1 POP PUSH2 0x2034 PUSH1 0x0 DUP4 ADD DUP5 PUSH2 0x2010 JUMP JUMPDEST SWAP3 SWAP2 POP POP JUMP JUMPDEST PUSH1 0x0 DUP2 MLOAD SWAP1 POP SWAP2 SWAP1 POP JUMP JUMPDEST PUSH1 0x0 DUP3 DUP3 MSTORE PUSH1 0x20 DUP3 ADD SWAP1 POP SWAP3 SWAP2 POP POP JUMP JUMPDEST PUSH1 0x0 JUMPDEST DUP4 DUP2 LT ISZERO PUSH2 0x2074 JUMPI DUP1 DUP3 ADD MLOAD DUP2 DUP5 ADD MSTORE PUSH1 0x20 DUP2 ADD SWAP1 POP PUSH2 0x2059 JUMP JUMPDEST PUSH1 0x0 DUP5 DUP5 ADD MSTORE POP POP POP POP JUMP JUMPDEST PUSH1 0x0 PUSH1 0x1F NOT PUSH1 0x1F DUP4 ADD AND SWAP1 POP SWAP2 SWAP1 POP JUMP JUMPDEST PUSH1 0x0 PUSH2 0x209C DUP3 PUSH2 0x203A JUMP JUMPDEST PUSH2 0x20A6 DUP2 DUP6 PUSH2 0x2045 JUMP JUMPDEST SWAP4 POP PUSH2 0x20B6 DUP2 DUP6 PUSH1 0x20 DUP7 ADD PUSH2 0x2056 JUMP JUMPDEST PUSH2 0x20BF DUP2 PUSH2 0x2080 JUMP JUMPDEST DUP5 ADD SWAP2 POP POP SWAP3 SWAP2 POP POP JUMP JUMPDEST PUSH1 0x0 PUSH1 0x20 DUP3 ADD SWAP1 POP DUP2 DUP2 SUB PUSH1 0x0 DUP4 ADD MSTORE PUSH2 0x20E4 DUP2 DUP5 PUSH2 0x2091 JUMP JUMPDEST SWAP1 POP SWAP3 SWAP2 POP POP JUMP JUMPDEST PUSH1 0x0 DUP2 SWAP1 POP SWAP2 SWAP1 POP JUMP JUMPDEST PUSH2 0x20FF DUP2 PUSH2 0x20EC JUMP JUMPDEST DUP2 EQ PUSH2 0x210A JUMPI PUSH1 0x0 DUP1 REVERT JUMPDEST POP JUMP JUMPDEST PUSH1 0x0 DUP2 CALLDATALOAD SWAP1 POP PUSH2 0x211C DUP2 PUSH2 0x20F6 JUMP JUMPDEST SWAP3 SWAP2 POP POP JUMP JUMPDEST PUSH1 0x0 PUSH1 0x20 DUP3 DUP5 SUB SLT ISZERO PUSH2 0x2138 JUMPI PUSH2 0x2137 PUSH2 0x1F75 JUMP JUMPDEST JUMPDEST PUSH1 0x0 PUSH2 0x2146 DUP5 DUP3 DUP6 ADD PUSH2 0x210D JUMP JUMPDEST SWAP2 POP POP SWAP3 SWAP2 POP POP JUMP JUMPDEST PUSH1 0x0 PUSH20 0xFFFFFFFFFFFFFFFFFFFFFFFFFFFFFFFFFFFFFFFF DUP3 AND SWAP1 POP SWAP2 SWAP1 POP JUMP JUMPDEST PUSH1 0x0 PUSH2 0x217A DUP3 PUSH2 0x214F JUMP JUMPDEST SWAP1 POP SWAP2 SWAP1 POP JUMP JUMPDEST PUSH2 0x218A DUP2 PUSH2 0x216F JUMP JUMPDEST DUP3 MSTORE POP POP JUMP JUMPDEST PUSH1 0x0 PUSH1 0x20 DUP3 ADD SWAP1 POP PUSH2 0x21A5 PUSH1 0x0 DUP4 ADD DUP5 PUSH2 0x2181 JUMP JUMPDEST SWAP3 SWAP2 POP POP JUMP JUMPDEST PUSH2 0x21B4 DUP2 PUSH2 0x216F JUMP JUMPDEST DUP2 EQ PUSH2 0x21BF JUMPI PUSH1 0x0 DUP1 REVERT JUMPDEST POP JUMP JUMPDEST PUSH1 0x0 DUP2 CALLDATALOAD SWAP1 POP PUSH2 0x21D1 DUP2 PUSH2 0x21AB JUMP JUMPDEST SWAP3 SWAP2 POP POP JUMP JUMPDEST PUSH1 0x0 DUP1 PUSH1 0x40 DUP4 DUP6 SUB SLT ISZERO PUSH2 0x21EE JUMPI PUSH2 0x21ED PUSH2 0x1F75 JUMP JUMPDEST JUMPDEST PUSH1 0x0 PUSH2 0x21FC DUP6 DUP3 DUP7 ADD PUSH2 0x21C2 JUMP JUMPDEST SWAP3 POP POP PUSH1 0x20 PUSH2 0x220D DUP6 DUP3 DUP7 ADD PUSH2 0x210D JUMP JUMPDEST SWAP2 POP POP SWAP3 POP SWAP3 SWAP1 POP JUMP JUMPDEST PUSH2 0x2220 DUP2 PUSH2 0x20EC JUMP JUMPDEST DUP3 MSTORE POP POP JUMP JUMPDEST PUSH1 0x0 PUSH1 0x20 DUP3 ADD SWAP1 POP PUSH2 0x223B PUSH1 0x0 DUP4 ADD DUP5 PUSH2 0x2217 JUMP JUMPDEST SWAP3 SWAP2 POP POP JUMP JUMPDEST PUSH1 0x0 DUP1 PUSH1 0x0 PUSH1 0x60 DUP5 DUP7 SUB SLT ISZERO PUSH2 0x225A JUMPI PUSH2 0x2259 PUSH2 0x1F75 JUMP JUMPDEST JUMPDEST PUSH1 0x0 PUSH2 0x2268 DUP7 DUP3 DUP8 ADD PUSH2 0x21C2 JUMP JUMPDEST SWAP4 POP POP PUSH1 0x20 PUSH2 0x2279 DUP7 DUP3 DUP8 ADD PUSH2 0x21C2 JUMP JUMPDEST SWAP3 POP POP PUSH1 0x40 PUSH2 0x228A DUP7 DUP3 DUP8 ADD PUSH2 0x210D JUMP JUMPDEST SWAP2 POP POP SWAP3 POP SWAP3 POP SWAP3 JUMP JUMPDEST PUSH1 0x0 PUSH1 0x20 DUP3 DUP5 SUB SLT ISZERO PUSH2 0x22AA JUMPI PUSH2 0x22A9 PUSH2 0x1F75 JUMP JUMPDEST JUMPDEST PUSH1 0x0 PUSH2 0x22B8 DUP5 DUP3 DUP6 ADD PUSH2 0x21C2 JUMP JUMPDEST SWAP2 POP POP SWAP3 SWAP2 POP POP JUMP JUMPDEST PUSH1 0x0 PUSH2 0x22CC DUP3 PUSH2 0x214F JUMP JUMPDEST SWAP1 POP SWAP2 SWAP1 POP JUMP JUMPDEST PUSH2 0x22DC DUP2 PUSH2 0x22C1 JUMP JUMPDEST DUP3 MSTORE POP POP JUMP JUMPDEST PUSH1 0x0 PUSH1 0x20 DUP3 ADD SWAP1 POP PUSH2 0x22F7 PUSH1 0x0 DUP4 ADD DUP5 PUSH2 0x22D3 JUMP JUMPDEST SWAP3 SWAP2 POP POP JUMP JUMPDEST PUSH2 0x2306 DUP2 PUSH2 0x2004 JUMP JUMPDEST DUP2 EQ PUSH2 0x2311 JUMPI PUSH1 0x0 DUP1 REVERT JUMPDEST POP JUMP JUMPDEST PUSH1 0x0 DUP2 CALLDATALOAD SWAP1 POP PUSH2 0x2323 DUP2 PUSH2 0x22FD JUMP JUMPDEST SWAP3 SWAP2 POP POP JUMP JUMPDEST PUSH1 0x0 DUP1 PUSH1 0x40 DUP4 DUP6 SUB SLT ISZERO PUSH2 0x2340 JUMPI PUSH2 0x233F PUSH2 0x1F75 JUMP JUMPDEST JUMPDEST PUSH1 0x0 PUSH2 0x234E DUP6 DUP3 DUP7 ADD PUSH2 0x21C2 JUMP JUMPDEST SWAP3 POP POP PUSH1 0x20 PUSH2 0x235F DUP6 DUP3 DUP7 ADD PUSH2 0x2314 JUMP JUMPDEST SWAP2 POP POP SWAP3 POP SWAP3 SWAP1 POP JUMP JUMPDEST PUSH1 0x0 DUP1 REVERT JUMPDEST PUSH1 0x0 DUP1 REVERT JUMPDEST PUSH32 0x4E487B7100000000000000000000000000000000000000000000000000000000 PUSH1 0x0 MSTORE PUSH1 0x41 PUSH1 0x4 MSTORE PUSH1 0x24 PUSH1 0x0 REVERT JUMPDEST PUSH2 0x23AB DUP3 PUSH2 0x2080 JUMP JUMPDEST DUP2 ADD DUP2 DUP2 LT PUSH8 0xFFFFFFFFFFFFFFFF DUP3 GT OR ISZERO PUSH2 0x23CA JUMPI PUSH2 0x23C9 PUSH2 0x2373 JUMP JUMPDEST JUMPDEST DUP1 PUSH1 0x40 MSTORE POP POP POP JUMP JUMPDEST PUSH1 0x0 PUSH2 0x23DD PUSH2 0x1F6B JUMP JUMPDEST SWAP1 POP PUSH2 0x23E9 DUP3 DUP3 PUSH2 0x23A2 JUMP JUMPDEST SWAP2 SWAP1 POP JUMP JUMPDEST PUSH1 0x0 PUSH8 0xFFFFFFFFFFFFFFFF DUP3 GT ISZERO PUSH2 0x2409 JUMPI PUSH2 0x2408 PUSH2 0x2373 JUMP JUMPDEST JUMPDEST PUSH2 0x2412 DUP3 PUSH2 0x2080 JUMP JUMPDEST SWAP1 POP PUSH1 0x20 DUP2 ADD SWAP1 POP SWAP2 SWAP1 POP JUMP JUMPDEST DUP3 DUP2 DUP4 CALLDATACOPY PUSH1 0x0 DUP4 DUP4 ADD MSTORE POP POP POP JUMP JUMPDEST PUSH1 0x0 PUSH2 0x2441 PUSH2 0x243C DUP5 PUSH2 0x23EE JUMP JUMPDEST PUSH2 0x23D3 JUMP JUMPDEST SWAP1 POP DUP3 DUP2 MSTORE PUSH1 0x20 DUP2 ADD DUP5 DUP5 DUP5 ADD GT ISZERO PUSH2 0x245D JUMPI PUSH2 0x245C PUSH2 0x236E JUMP JUMPDEST JUMPDEST PUSH2 0x2468 DUP5 DUP3 DUP6 PUSH2 0x241F JUMP JUMPDEST POP SWAP4 SWAP3 POP POP POP JUMP JUMPDEST PUSH1 0x0 DUP3 PUSH1 0x1F DUP4 ADD SLT PUSH2 0x2485 JUMPI PUSH2 0x2484 PUSH2 0x2369 JUMP JUMPDEST JUMPDEST DUP2 CALLDATALOAD PUSH2 0x2495 DUP5 DUP3 PUSH1 0x20 DUP7 ADD PUSH2 0x242E JUMP JUMPDEST SWAP2 POP POP SWAP3 SWAP2 POP POP JUMP JUMPDEST PUSH1 0x0 DUP1 PUSH1 0x0 DUP1 PUSH1 0x80 DUP6 DUP8 SUB SLT ISZERO PUSH2 0x24B8 JUMPI PUSH2 0x24B7 PUSH2 0x1F75 JUMP JUMPDEST JUMPDEST PUSH1 0x0 PUSH2 0x24C6 DUP8 DUP3 DUP9 ADD PUSH2 0x21C2 JUMP JUMPDEST SWAP5 POP POP PUSH1 0x20 PUSH2 0x24D7 DUP8 DUP3 DUP9 ADD PUSH2 0x21C2 JUMP JUMPDEST SWAP4 POP POP PUSH1 0x40 PUSH2 0x24E8 DUP8 DUP3 DUP9 ADD PUSH2 0x210D JUMP JUMPDEST SWAP3 POP POP PUSH1 0x60 DUP6 ADD CALLDATALOAD PUSH8 0xFFFFFFFFFFFFFFFF DUP2 GT ISZERO PUSH2 0x2509 JUMPI PUSH2 0x2508 PUSH2 0x1F7A JUMP JUMPDEST JUMPDEST PUSH2 0x2515 DUP8 DUP3 DUP9 ADD PUSH2 0x2470 JUMP JUMPDEST SWAP2 POP POP SWAP3 SWAP6 SWAP2 SWAP5 POP SWAP3 POP JUMP JUMPDEST PUSH1 0x0 DUP1 PUSH1 0x40 DUP4 DUP6 SUB SLT ISZERO PUSH2 0x2538 JUMPI PUSH2 0x2537 PUSH2 0x1F75 JUMP JUMPDEST JUMPDEST PUSH1 0x0 PUSH2 0x2546 DUP6 DUP3 DUP7 ADD PUSH2 0x21C2 JUMP JUMPDEST SWAP3 POP POP PUSH1 0x20 PUSH2 0x2557 DUP6 DUP3 DUP7 ADD PUSH2 0x21C2 JUMP JUMPDEST SWAP2 POP POP SWAP3 POP SWAP3 SWAP1 POP JUMP JUMPDEST PUSH1 0x0 PUSH8 0xFFFFFFFFFFFFFFFF DUP3 GT ISZERO PUSH2 0x257C JUMPI PUSH2 0x257B PUSH2 0x2373 JUMP JUMPDEST JUMPDEST PUSH2 0x2585 DUP3 PUSH2 0x2080 JUMP JUMPDEST SWAP1 POP PUSH1 0x20 DUP2 ADD SWAP1 POP SWAP2 SWAP1 POP JUMP JUMPDEST PUSH1 0x0 PUSH2 0x25A5 PUSH2 0x25A0 DUP5 PUSH2 0x2561 JUMP JUMPDEST PUSH2 0x23D3 JUMP JUMPDEST SWAP1 POP DUP3 DUP2 MSTORE PUSH1 0x20 DUP2 ADD DUP5 DUP5 DUP5 ADD GT ISZERO PUSH2 0x25C1 JUMPI PUSH2 0x25C0 PUSH2 0x236E JUMP JUMPDEST JUMPDEST PUSH2 0x25CC DUP5 DUP3 DUP6 PUSH2 0x241F JUMP JUMPDEST POP SWAP4 SWAP3 POP POP POP JUMP JUMPDEST PUSH1 0x0 DUP3 PUSH1 0x1F DUP4 ADD SLT PUSH2 0x25E9 JUMPI PUSH2 0x25E8 PUSH2 0x2369 JUMP JUMPDEST JUMPDEST DUP2 CALLDATALOAD PUSH2 0x25F9 DUP5 DUP3 PUSH1 0x20 DUP7 ADD PUSH2 0x2592 JUMP JUMPDEST SWAP2 POP POP SWAP3 SWAP2 POP POP JUMP JUMPDEST PUSH1 0x0 DUP1 PUSH1 0x40 DUP4 DUP6 SUB SLT ISZERO PUSH2 0x2619 JUMPI PUSH2 0x2618 PUSH2 0x1F75 JUMP JUMPDEST JUMPDEST PUSH1 0x0 PUSH2 0x2627 DUP6 DUP3 DUP7 ADD PUSH2 0x21C2 JUMP JUMPDEST SWAP3 POP POP PUSH1 0x20 DUP4 ADD CALLDATALOAD PUSH8 0xFFFFFFFFFFFFFFFF DUP2 GT ISZERO PUSH2 0x2648 JUMPI PUSH2 0x2647 PUSH2 0x1F7A JUMP JUMPDEST JUMPDEST PUSH2 0x2654 DUP6 DUP3 DUP7 ADD PUSH2 0x25D4 JUMP JUMPDEST SWAP2 POP POP SWAP3 POP SWAP3 SWAP1 POP JUMP JUMPDEST PUSH32 0x4E487B7100000000000000000000000000000000000000000000000000000000 PUSH1 0x0 MSTORE PUSH1 0x22 PUSH1 0x4 MSTORE PUSH1 0x24 PUSH1 0x0 REVERT JUMPDEST PUSH1 0x0 PUSH1 0x2 DUP3 DIV SWAP1 POP PUSH1 0x1 DUP3 AND DUP1 PUSH2 0x26A5 JUMPI PUSH1 0x7F DUP3 AND SWAP2 POP JUMPDEST PUSH1 0x20 DUP3 LT DUP2 SUB PUSH2 0x26B8 JUMPI PUSH2 0x26B7 PUSH2 0x265E JUMP JUMPDEST JUMPDEST POP SWAP2 SWAP1 POP JUMP JUMPDEST PUSH32 0x4552433732313A20617070726F76616C20746F2063757272656E74206F776E65 PUSH1 0x0 DUP3 ADD MSTORE PUSH32 0x7200000000000000000000000000000000000000000000000000000000000000 PUSH1 0x20 DUP3 ADD MSTORE POP JUMP JUMPDEST PUSH1 0x0 PUSH2 0x271A PUSH1 0x21 DUP4 PUSH2 0x2045 JUMP JUMPDEST SWAP2 POP PUSH2 0x2725 DUP3 PUSH2 0x26BE JUMP JUMPDEST PUSH1 0x40 DUP3 ADD SWAP1 POP SWAP2 SWAP1 POP JUMP JUMPDEST PUSH1 0x0 PUSH1 0x20 DUP3 ADD SWAP1 POP DUP2 DUP2 SUB PUSH1 0x0 DUP4 ADD MSTORE PUSH2 0x2749 DUP2 PUSH2 0x270D JUMP JUMPDEST SWAP1 POP SWAP2 SWAP1 POP JUMP JUMPDEST PUSH32 0x4552433732313A20617070726F76652063616C6C6572206973206E6F7420746F PUSH1 0x0 DUP3 ADD MSTORE PUSH32 0x6B656E206F776E6572206E6F7220617070726F76656420666F7220616C6C0000 PUSH1 0x20 DUP3 ADD MSTORE POP JUMP JUMPDEST PUSH1 0x0 PUSH2 0x27AC PUSH1 0x3E DUP4 PUSH2 0x2045 JUMP JUMPDEST SWAP2 POP PUSH2 0x27B7 DUP3 PUSH2 0x2750 JUMP JUMPDEST PUSH1 0x40 DUP3 ADD SWAP1 POP SWAP2 SWAP1 POP JUMP JUMPDEST PUSH1 0x0 PUSH1 0x20 DUP3 ADD SWAP1 POP DUP2 DUP2 SUB PUSH1 0x0 DUP4 ADD MSTORE PUSH2 0x27DB DUP2 PUSH2 0x279F JUMP JUMPDEST SWAP1 POP SWAP2 SWAP1 POP JUMP JUMPDEST PUSH32 0x4552433732313A2063616C6C6572206973206E6F7420746F6B656E206F776E65 PUSH1 0x0 DUP3 ADD MSTORE PUSH32 0x72206E6F7220617070726F766564000000000000000000000000000000000000 PUSH1 0x20 DUP3 ADD MSTORE POP JUMP JUMPDEST PUSH1 0x0 PUSH2 0x283E PUSH1 0x2E DUP4 PUSH2 0x2045 JUMP JUMPDEST SWAP2 POP PUSH2 0x2849 DUP3 PUSH2 0x27E2 JUMP JUMPDEST PUSH1 0x40 DUP3 ADD SWAP1 POP SWAP2 SWAP1 POP JUMP JUMPDEST PUSH1 0x0 PUSH1 0x20 DUP3 ADD SWAP1 POP DUP2 DUP2 SUB PUSH1 0x0 DUP4 ADD MSTORE PUSH2 0x286D DUP2 PUSH2 0x2831 JUMP JUMPDEST SWAP1 POP SWAP2 SWAP1 POP JUMP JUMPDEST PUSH1 0x0 DUP2 SWAP1 POP SWAP3 SWAP2 POP POP JUMP JUMPDEST POP JUMP JUMPDEST PUSH1 0x0 PUSH2 0x288F PUSH1 0x0 DUP4 PUSH2 0x2874 JUMP JUMPDEST SWAP2 POP PUSH2 0x289A DUP3 PUSH2 0x287F JUMP JUMPDEST PUSH1 0x0 DUP3 ADD SWAP1 POP SWAP2 SWAP1 POP JUMP JUMPDEST PUSH1 0x0 PUSH2 0x28B0 DUP3 PUSH2 0x2882 JUMP JUMPDEST SWAP2 POP DUP2 SWAP1 POP SWAP2 SWAP1 POP JUMP JUMPDEST PUSH32 0x7769746864726177206661696C65640000000000000000000000000000000000 PUSH1 0x0 DUP3 ADD MSTORE POP JUMP JUMPDEST PUSH1 0x0 PUSH2 0x28F0 PUSH1 0xF DUP4 PUSH2 0x2045 JUMP JUMPDEST SWAP2 POP PUSH2 0x28FB DUP3 PUSH2 0x28BA JUMP JUMPDEST PUSH1 0x20 DUP3 ADD SWAP1 POP SWAP2 SWAP1 POP JUMP JUMPDEST PUSH1 0x0 PUSH1 0x20 DUP3 ADD SWAP1 POP DUP2 DUP2 SUB PUSH1 0x0 DUP4 ADD MSTORE PUSH2 0x291F DUP2 PUSH2 0x28E3 JUMP JUMPDEST SWAP1 POP SWAP2 SWAP1 POP JUMP JUMPDEST PUSH32 0x4552433732313A20696E76616C696420746F6B656E2049440000000000000000 PUSH1 0x0 DUP3 ADD MSTORE POP JUMP JUMPDEST PUSH1 0x0 PUSH2 0x295C PUSH1 0x18 DUP4 PUSH2 0x2045 JUMP JUMPDEST SWAP2 POP PUSH2 0x2967 DUP3 PUSH2 0x2926 JUMP JUMPDEST PUSH1 0x20 DUP3 ADD SWAP1 POP SWAP2 SWAP1 POP JUMP JUMPDEST PUSH1 0x0 PUSH1 0x20 DUP3 ADD SWAP1 POP DUP2 DUP2 SUB PUSH1 0x0 DUP4 ADD MSTORE PUSH2 0x298B DUP2 PUSH2 0x294F JUMP JUMPDEST SWAP1 POP SWAP2 SWAP1 POP JUMP JUMPDEST PUSH32 0x4552433732313A2061646472657373207A65726F206973206E6F742061207661 PUSH1 0x0 DUP3 ADD MSTORE PUSH32 0x6C6964206F776E65720000000000000000000000000000000000000000000000 PUSH1 0x20 DUP3 ADD MSTORE POP JUMP JUMPDEST PUSH1 0x0 PUSH2 0x29EE PUSH1 0x29 DUP4 PUSH2 0x2045 JUMP JUMPDEST SWAP2 POP PUSH2 0x29F9 DUP3 PUSH2 0x2992 JUMP JUMPDEST PUSH1 0x40 DUP3 ADD SWAP1 POP SWAP2 SWAP1 POP JUMP JUMPDEST PUSH1 0x0 PUSH1 0x20 DUP3 ADD SWAP1 POP DUP2 DUP2 SUB PUSH1 0x0 DUP4 ADD MSTORE PUSH2 0x2A1D DUP2 PUSH2 0x29E1 JUMP JUMPDEST SWAP1 POP SWAP2 SWAP1 POP JUMP JUMPDEST PUSH32 0x4E487B7100000000000000000000000000000000000000000000000000000000 PUSH1 0x0 MSTORE PUSH1 0x11 PUSH1 0x4 MSTORE PUSH1 0x24 PUSH1 0x0 REVERT JUMPDEST PUSH1 0x0 PUSH2 0x2A5E DUP3 PUSH2 0x20EC JUMP JUMPDEST SWAP2 POP PUSH2 0x2A69 DUP4 PUSH2 0x20EC JUMP JUMPDEST SWAP3 POP DUP3 DUP3 MUL PUSH2 0x2A77 DUP2 PUSH2 0x20EC JUMP JUMPDEST SWAP2 POP DUP3 DUP3 DIV DUP5 EQ DUP4 ISZERO OR PUSH2 0x2A8E JUMPI PUSH2 0x2A8D PUSH2 0x2A24 JUMP JUMPDEST JUMPDEST POP SWAP3 SWAP2 POP POP JUMP JUMPDEST PUSH32 0x57726F6E67206D696E742076616C756500000000000000000000000000000000 PUSH1 0x0 DUP3 ADD MSTORE POP JUMP JUMPDEST PUSH1 0x0 PUSH2 0x2ACB PUSH1 0x10 DUP4 PUSH2 0x2045 JUMP JUMPDEST SWAP2 POP PUSH2 0x2AD6 DUP3 PUSH2 0x2A95 JUMP JUMPDEST PUSH1 0x20 DUP3 ADD SWAP1 POP SWAP2 SWAP1 POP JUMP JUMPDEST PUSH1 0x0 PUSH1 0x20 DUP3 ADD SWAP1 POP DUP2 DUP2 SUB PUSH1 0x0 DUP4 ADD MSTORE PUSH2 0x2AFA DUP2 PUSH2 0x2ABE JUMP JUMPDEST SWAP1 POP SWAP2 SWAP1 POP JUMP JUMPDEST PUSH1 0x0 PUSH2 0x2B0C DUP3 PUSH2 0x20EC JUMP JUMPDEST SWAP2 POP PUSH2 0x2B17 DUP4 PUSH2 0x20EC JUMP JUMPDEST SWAP3 POP DUP3 DUP3 ADD SWAP1 POP DUP1 DUP3 GT ISZERO PUSH2 0x2B2F JUMPI PUSH2 0x2B2E PUSH2 0x2A24 JUMP JUMPDEST JUMPDEST SWAP3 SWAP2 POP POP JUMP JUMPDEST PUSH32 0x536F6C64206F7574000000000000000000000000000000000000000000000000 PUSH1 0x0 DUP3 ADD MSTORE POP JUMP JUMPDEST PUSH1 0x0 PUSH2 0x2B6B PUSH1 0x8 DUP4 PUSH2 0x2045 JUMP JUMPDEST SWAP2 POP PUSH2 0x2B76 DUP3 PUSH2 0x2B35 JUMP JUMPDEST PUSH1 0x20 DUP3 ADD SWAP1 POP SWAP2 SWAP1 POP JUMP JUMPDEST PUSH1 0x0 PUSH1 0x20 DUP3 ADD SWAP1 POP DUP2 DUP2 SUB PUSH1 0x0 DUP4 ADD MSTORE PUSH2 0x2B9A DUP2 PUSH2 0x2B5E JUMP JUMPDEST SWAP1 POP SWAP2 SWAP1 POP JUMP JUMPDEST PUSH32 0x4578636565646564206D61782077616C6C657400000000000000000000000000 PUSH1 0x0 DUP3 ADD MSTORE POP JUMP JUMPDEST PUSH1 0x0 PUSH2 0x2BD7 PUSH1 0x13 DUP4 PUSH2 0x2045 JUMP JUMPDEST SWAP2 POP PUSH2 0x2BE2 DUP3 PUSH2 0x2BA1 JUMP JUMPDEST PUSH1 0x20 DUP3 ADD SWAP1 POP SWAP2 SWAP1 POP JUMP JUMPDEST PUSH1 0x0 PUSH1 0x20 DUP3 ADD SWAP1 POP DUP2 DUP2 SUB PUSH1 0x0 DUP4 ADD MSTORE PUSH2 0x2C06 DUP2 PUSH2 0x2BCA JUMP JUMPDEST SWAP1 POP SWAP2 SWAP1 POP JUMP JUMPDEST PUSH1 0x0 PUSH2 0x2C18 DUP3 PUSH2 0x20EC JUMP JUMPDEST SWAP2 POP PUSH32 0xFFFFFFFFFFFFFFFFFFFFFFFFFFFFFFFFFFFFFFFFFFFFFFFFFFFFFFFFFFFFFFFF DUP3 SUB PUSH2 0x2C4A JUMPI PUSH2 0x2C49 PUSH2 0x2A24 JUMP JUMPDEST JUMPDEST PUSH1 0x1 DUP3 ADD SWAP1 POP SWAP2 SWAP1 POP JUMP JUMPDEST PUSH1 0x0 DUP2 SWAP1 POP SWAP3 SWAP2 POP POP JUMP JUMPDEST PUSH1 0x0 PUSH2 0x2C6B DUP3 PUSH2 0x203A JUMP JUMPDEST PUSH2 0x2C75 DUP2 DUP6 PUSH2 0x2C55 JUMP JUMPDEST SWAP4 POP PUSH2 0x2C85 DUP2 DUP6 PUSH1 0x20 DUP7 ADD PUSH2 0x2056 JUMP JUMPDEST DUP1 DUP5 ADD SWAP2 POP POP SWAP3 SWAP2 POP POP JUMP JUMPDEST PUSH1 0x0 PUSH2 0x2C9D DUP3 DUP6 PUSH2 0x2C60 JUMP JUMPDEST SWAP2 POP PUSH2 0x2CA9 DUP3 DUP5 PUSH2 0x2C60 JUMP JUMPDEST SWAP2 POP DUP2 SWAP1 POP SWAP4 SWAP3 POP POP POP JUMP JUMPDEST PUSH32 0x4F776E61626C653A206E6577206F776E657220697320746865207A65726F2061 PUSH1 0x0 DUP3 ADD MSTORE PUSH32 0x6464726573730000000000000000000000000000000000000000000000000000 PUSH1 0x20 DUP3 ADD MSTORE POP JUMP JUMPDEST PUSH1 0x0 PUSH2 0x2D11 PUSH1 0x26 DUP4 PUSH2 0x2045 JUMP JUMPDEST SWAP2 POP PUSH2 0x2D1C DUP3 PUSH2 0x2CB5 JUMP JUMPDEST PUSH1 0x40 DUP3 ADD SWAP1 POP SWAP2 SWAP1 POP JUMP JUMPDEST PUSH1 0x0 PUSH1 0x20 DUP3 ADD SWAP1 POP DUP2 DUP2 SUB PUSH1 0x0 DUP4 ADD MSTORE PUSH2 0x2D40 DUP2 PUSH2 0x2D04 JUMP JUMPDEST SWAP1 POP SWAP2 SWAP1 POP JUMP JUMPDEST PUSH32 0x4552433732313A207472616E736665722066726F6D20696E636F727265637420 PUSH1 0x0 DUP3 ADD MSTORE PUSH32 0x6F776E6572000000000000000000000000000000000000000000000000000000 PUSH1 0x20 DUP3 ADD MSTORE POP JUMP JUMPDEST PUSH1 0x0 PUSH2 0x2DA3 PUSH1 0x25 DUP4 PUSH2 0x2045 JUMP JUMPDEST SWAP2 POP PUSH2 0x2DAE DUP3 PUSH2 0x2D47 JUMP JUMPDEST PUSH1 0x40 DUP3 ADD SWAP1 POP SWAP2 SWAP1 POP JUMP JUMPDEST PUSH1 0x0 PUSH1 0x20 DUP3 ADD SWAP1 POP DUP2 DUP2 SUB PUSH1 0x0 DUP4 ADD MSTORE PUSH2 0x2DD2 DUP2 PUSH2 0x2D96 JUMP JUMPDEST SWAP1 POP SWAP2 SWAP1 POP JUMP JUMPDEST PUSH32 0x4552433732313A207472616E7366657220746F20746865207A65726F20616464 PUSH1 0x0 DUP3 ADD MSTORE PUSH32 0x7265737300000000000000000000000000000000000000000000000000000000 PUSH1 0x20 DUP3 ADD MSTORE POP JUMP JUMPDEST PUSH1 0x0 PUSH2 0x2E35 PUSH1 0x24 DUP4 PUSH2 0x2045 JUMP JUMPDEST SWAP2 POP PUSH2 0x2E40 DUP3 PUSH2 0x2DD9 JUMP JUMPDEST PUSH1 0x40 DUP3 ADD SWAP1 POP SWAP2 SWAP1 POP JUMP JUMPDEST PUSH1 0x0 PUSH1 0x20 DUP3 ADD SWAP1 POP DUP2 DUP2 SUB PUSH1 0x0 DUP4 ADD MSTORE PUSH2 0x2E64 DUP2 PUSH2 0x2E28 JUMP JUMPDEST SWAP1 POP SWAP2 SWAP1 POP JUMP JUMPDEST PUSH1 0x0 PUSH2 0x2E76 DUP3 PUSH2 0x20EC JUMP JUMPDEST SWAP2 POP PUSH2 0x2E81 DUP4 PUSH2 0x20EC JUMP JUMPDEST SWAP3 POP DUP3 DUP3 SUB SWAP1 POP DUP2 DUP2 GT ISZERO PUSH2 0x2E99 JUMPI PUSH2 0x2E98 PUSH2 0x2A24 JUMP JUMPDEST JUMPDEST SWAP3 SWAP2 POP POP JUMP JUMPDEST PUSH32 0x4F776E61626C653A2063616C6C6572206973206E6F7420746865206F776E6572 PUSH1 0x0 DUP3 ADD MSTORE POP JUMP JUMPDEST PUSH1 0x0 PUSH2 0x2ED5 PUSH1 0x20 DUP4 PUSH2 0x2045 JUMP JUMPDEST SWAP2 POP PUSH2 0x2EE0 DUP3 PUSH2 0x2E9F JUMP JUMPDEST PUSH1 0x20 DUP3 ADD SWAP1 POP SWAP2 SWAP1 POP JUMP JUMPDEST PUSH1 0x0 PUSH1 0x20 DUP3 ADD SWAP1 POP DUP2 DUP2 SUB PUSH1 0x0 DUP4 ADD MSTORE PUSH2 0x2F04 DUP2 PUSH2 0x2EC8 JUMP JUMPDEST SWAP1 POP SWAP2 SWAP1 POP JUMP JUMPDEST PUSH32 0x4552433732313A20617070726F766520746F2063616C6C657200000000000000 PUSH1 0x0 DUP3 ADD MSTORE POP JUMP JUMPDEST PUSH1 0x0 PUSH2 0x2F41 PUSH1 0x19 DUP4 PUSH2 0x2045 JUMP JUMPDEST SWAP2 POP PUSH2 0x2F4C DUP3 PUSH2 0x2F0B JUMP JUMPDEST PUSH1 0x20 DUP3 ADD SWAP1 POP SWAP2 SWAP1 POP JUMP JUMPDEST PUSH1 0x0 PUSH1 0x20 DUP3 ADD SWAP1 POP DUP2 DUP2 SUB PUSH1 0x0 DUP4 ADD MSTORE PUSH2 0x2F70 DUP2 PUSH2 0x2F34 JUMP JUMPDEST SWAP1 POP SWAP2 SWAP1 POP JUMP JUMPDEST PUSH32 0x4552433732313A207472616E7366657220746F206E6F6E204552433732315265 PUSH1 0x0 DUP3 ADD MSTORE PUSH32 0x63656976657220696D706C656D656E7465720000000000000000000000000000 PUSH1 0x20 DUP3 ADD MSTORE POP JUMP JUMPDEST PUSH1 0x0 PUSH2 0x2FD3 PUSH1 0x32 DUP4 PUSH2 0x2045 JUMP JUMPDEST SWAP2 POP PUSH2 0x2FDE DUP3 PUSH2 0x2F77 JUMP JUMPDEST PUSH1 0x40 DUP3 ADD SWAP1 POP SWAP2 SWAP1 POP JUMP JUMPDEST PUSH1 0x0 PUSH1 0x20 DUP3 ADD SWAP1 POP DUP2 DUP2 SUB PUSH1 0x0 DUP4 ADD MSTORE PUSH2 0x3002 DUP2 PUSH2 0x2FC6 JUMP JUMPDEST SWAP1 POP SWAP2 SWAP1 POP JUMP JUMPDEST PUSH32 0x4552433732313A206D696E7420746F20746865207A65726F2061646472657373 PUSH1 0x0 DUP3 ADD MSTORE POP JUMP JUMPDEST PUSH1 0x0 PUSH2 0x303F PUSH1 0x20 DUP4 PUSH2 0x2045 JUMP JUMPDEST SWAP2 POP PUSH2 0x304A DUP3 PUSH2 0x3009 JUMP JUMPDEST PUSH1 0x20 DUP3 ADD SWAP1 POP SWAP2 SWAP1 POP JUMP JUMPDEST PUSH1 0x0 PUSH1 0x20 DUP3 ADD SWAP1 POP DUP2 DUP2 SUB PUSH1 0x0 DUP4 ADD MSTORE PUSH2 0x306E DUP2 PUSH2 0x3032 JUMP JUMPDEST SWAP1 POP SWAP2 SWAP1 POP JUMP JUMPDEST PUSH32 0x4552433732313A20746F6B656E20616C7265616479206D696E74656400000000 PUSH1 0x0 DUP3 ADD MSTORE POP JUMP JUMPDEST PUSH1 0x0 PUSH2 0x30AB PUSH1 0x1C DUP4 PUSH2 0x2045 JUMP JUMPDEST SWAP2 POP PUSH2 0x30B6 DUP3 PUSH2 0x3075 JUMP JUMPDEST PUSH1 0x20 DUP3 ADD SWAP1 POP SWAP2 SWAP1 POP JUMP JUMPDEST PUSH1 0x0 PUSH1 0x20 DUP3 ADD SWAP1 POP DUP2 DUP2 SUB PUSH1 0x0 DUP4 ADD MSTORE PUSH2 0x30DA DUP2 PUSH2 0x309E JUMP JUMPDEST SWAP1 POP SWAP2 SWAP1 POP JUMP JUMPDEST PUSH32 0x45524337323155524953746F726167653A2055524920736574206F66206E6F6E PUSH1 0x0 DUP3 ADD MSTORE PUSH32 0x6578697374656E7420746F6B656E000000000000000000000000000000000000 PUSH1 0x20 DUP3 ADD MSTORE POP JUMP JUMPDEST PUSH1 0x0 PUSH2 0x313D PUSH1 0x2E DUP4 PUSH2 0x2045 JUMP JUMPDEST SWAP2 POP PUSH2 0x3148 DUP3 PUSH2 0x30E1 JUMP JUMPDEST PUSH1 0x40 DUP3 ADD SWAP1 POP SWAP2 SWAP1 POP JUMP JUMPDEST PUSH1 0x0 PUSH1 0x20 DUP3 ADD SWAP1 POP DUP2 DUP2 SUB PUSH1 0x0 DUP4 ADD MSTORE PUSH2 0x316C DUP2 PUSH2 0x3130 JUMP JUMPDEST SWAP1 POP SWAP2 SWAP1 POP JUMP JUMPDEST PUSH1 0x0 DUP2 SWAP1 POP DUP2 PUSH1 0x0 MSTORE PUSH1 0x20 PUSH1 0x0 KECCAK256 SWAP1 POP SWAP2 SWAP1 POP JUMP JUMPDEST PUSH1 0x0 PUSH1 0x20 PUSH1 0x1F DUP4 ADD DIV SWAP1 POP SWAP2 SWAP1 POP JUMP JUMPDEST PUSH1 0x0 DUP3 DUP3 SHL SWAP1 POP SWAP3 SWAP2 POP POP JUMP JUMPDEST PUSH1 0x0 PUSH1 0x8 DUP4 MUL PUSH2 0x31D5 PUSH32 0xFFFFFFFFFFFFFFFFFFFFFFFFFFFFFFFFFFFFFFFFFFFFFFFFFFFFFFFFFFFFFFFF DUP3 PUSH2 0x3198 JUMP JUMPDEST PUSH2 0x31DF DUP7 DUP4 PUSH2 0x3198 JUMP JUMPDEST SWAP6 POP DUP1 NOT DUP5 AND SWAP4 POP DUP1 DUP7 AND DUP5 OR SWAP3 POP POP POP SWAP4 SWAP3 POP POP POP JUMP JUMPDEST PUSH1 0x0 DUP2 SWAP1 POP SWAP2 SWAP1 POP JUMP JUMPDEST PUSH1 0x0 PUSH2 0x321C PUSH2 0x3217 PUSH2 0x3212 DUP5 PUSH2 0x20EC JUMP JUMPDEST PUSH2 0x31F7 JUMP JUMPDEST PUSH2 0x20EC JUMP JUMPDEST SWAP1 POP SWAP2 SWAP1 POP JUMP JUMPDEST PUSH1 0x0 DUP2 SWAP1 POP SWAP2 SWAP1 POP JUMP JUMPDEST PUSH2 0x3236 DUP4 PUSH2 0x3201 JUMP JUMPDEST PUSH2 0x324A PUSH2 0x3242 DUP3 PUSH2 0x3223 JUMP JUMPDEST DUP5 DUP5 SLOAD PUSH2 0x31A5 JUMP JUMPDEST DUP3 SSTORE POP POP POP POP JUMP JUMPDEST PUSH1 0x0 SWAP1 JUMP JUMPDEST PUSH2 0x325F PUSH2 0x3252 JUMP JUMPDEST PUSH2 0x326A DUP2 DUP5 DUP5 PUSH2 0x322D JUMP JUMPDEST POP POP POP JUMP JUMPDEST JUMPDEST DUP2 DUP2 LT ISZERO PUSH2 0x328E JUMPI PUSH2 0x3283 PUSH1 0x0 DUP3 PUSH2 0x3257 JUMP JUMPDEST PUSH1 0x1 DUP2 ADD SWAP1 POP PUSH2 0x3270 JUMP JUMPDEST POP POP JUMP JUMPDEST PUSH1 0x1F DUP3 GT ISZERO PUSH2 0x32D3 JUMPI PUSH2 0x32A4 DUP2 PUSH2 0x3173 JUMP JUMPDEST PUSH2 0x32AD DUP5 PUSH2 0x3188 JUMP JUMPDEST DUP2 ADD PUSH1 0x20 DUP6 LT ISZERO PUSH2 0x32BC JUMPI DUP2 SWAP1 POP JUMPDEST PUSH2 0x32D0 PUSH2 0x32C8 DUP6 PUSH2 0x3188 JUMP JUMPDEST DUP4 ADD DUP3 PUSH2 0x326F JUMP JUMPDEST POP POP JUMPDEST POP POP POP JUMP JUMPDEST PUSH1 0x0 DUP3 DUP3 SHR SWAP1 POP SWAP3 SWAP2 POP POP JUMP JUMPDEST PUSH1 0x0 PUSH2 0x32F6 PUSH1 0x0 NOT DUP5 PUSH1 0x8 MUL PUSH2 0x32D8 JUMP JUMPDEST NOT DUP1 DUP4 AND SWAP2 POP POP SWAP3 SWAP2 POP POP JUMP JUMPDEST PUSH1 0x0 PUSH2 0x330F DUP4 DUP4 PUSH2 0x32E5 JUMP JUMPDEST SWAP2 POP DUP3 PUSH1 0x2 MUL DUP3 OR SWAP1 POP SWAP3 SWAP2 POP POP JUMP JUMPDEST PUSH2 0x3328 DUP3 PUSH2 0x203A JUMP JUMPDEST PUSH8 0xFFFFFFFFFFFFFFFF DUP2 GT ISZERO PUSH2 0x3341 JUMPI PUSH2 0x3340 PUSH2 0x2373 JUMP JUMPDEST JUMPDEST PUSH2 0x334B DUP3 SLOAD PUSH2 0x268D JUMP JUMPDEST PUSH2 0x3356 DUP3 DUP3 DUP6 PUSH2 0x3292 JUMP JUMPDEST PUSH1 0x0 PUSH1 0x20 SWAP1 POP PUSH1 0x1F DUP4 GT PUSH1 0x1 DUP2 EQ PUSH2 0x3389 JUMPI PUSH1 0x0 DUP5 ISZERO PUSH2 0x3377 JUMPI DUP3 DUP8 ADD MLOAD SWAP1 POP JUMPDEST PUSH2 0x3381 DUP6 DUP3 PUSH2 0x3303 JUMP JUMPDEST DUP7 SSTORE POP PUSH2 0x33E9 JUMP JUMPDEST PUSH1 0x1F NOT DUP5 AND PUSH2 0x3397 DUP7 PUSH2 0x3173 JUMP JUMPDEST PUSH1 0x0 JUMPDEST DUP3 DUP2 LT ISZERO PUSH2 0x33BF JUMPI DUP5 DUP10 ADD MLOAD DUP3 SSTORE PUSH1 0x1 DUP3 ADD SWAP2 POP PUSH1 0x20 DUP6 ADD SWAP5 POP PUSH1 0x20 DUP2 ADD SWAP1 POP PUSH2 0x339A JUMP JUMPDEST DUP7 DUP4 LT ISZERO PUSH2 0x33DC JUMPI DUP5 DUP10 ADD MLOAD PUSH2 0x33D8 PUSH1 0x1F DUP10 AND DUP3 PUSH2 0x32E5 JUMP JUMPDEST DUP4 SSTORE POP JUMPDEST PUSH1 0x1 PUSH1 0x2 DUP9 MUL ADD DUP9 SSTORE POP POP POP JUMPDEST POP POP POP POP POP POP JUMP JUMPDEST PUSH1 0x0 DUP2 MLOAD SWAP1 POP SWAP2 SWAP1 POP JUMP JUMPDEST PUSH1 0x0 DUP3 DUP3 MSTORE PUSH1 0x20 DUP3 ADD SWAP1 POP SWAP3 SWAP2 POP POP JUMP JUMPDEST PUSH1 0x0 PUSH2 0x3418 DUP3 PUSH2 0x33F1 JUMP JUMPDEST PUSH2 0x3422 DUP2 DUP6 PUSH2 0x33FC JUMP JUMPDEST SWAP4 POP PUSH2 0x3432 DUP2 DUP6 PUSH1 0x20 DUP7 ADD PUSH2 0x2056 JUMP JUMPDEST PUSH2 0x343B DUP2 PUSH2 0x2080 JUMP JUMPDEST DUP5 ADD SWAP2 POP POP SWAP3 SWAP2 POP POP JUMP JUMPDEST PUSH1 0x0 PUSH1 0x80 DUP3 ADD SWAP1 POP PUSH2 0x345B PUSH1 0x0 DUP4 ADD DUP8 PUSH2 0x2181 JUMP JUMPDEST PUSH2 0x3468 PUSH1 0x20 DUP4 ADD DUP7 PUSH2 0x2181 JUMP JUMPDEST PUSH2 0x3475 PUSH1 0x40 DUP4 ADD DUP6 PUSH2 0x2217 JUMP JUMPDEST DUP2 DUP2 SUB PUSH1 0x60 DUP4 ADD MSTORE PUSH2 0x3487 DUP2 DUP5 PUSH2 0x340D JUMP JUMPDEST SWAP1 POP SWAP6 SWAP5 POP POP POP POP POP JUMP JUMPDEST PUSH1 0x0 DUP2 MLOAD SWAP1 POP PUSH2 0x34A1 DUP2 PUSH2 0x1FAB JUMP JUMPDEST SWAP3 SWAP2 POP POP JUMP JUMPDEST PUSH1 0x0 PUSH1 0x20 DUP3 DUP5 SUB SLT ISZERO PUSH2 0x34BD JUMPI PUSH2 0x34BC PUSH2 0x1F75 JUMP JUMPDEST JUMPDEST PUSH1 0x0 PUSH2 0x34CB DUP5 DUP3 DUP6 ADD PUSH2 0x3492 JUMP JUMPDEST SWAP2 POP POP SWAP3 SWAP2 POP POP JUMP JUMPDEST PUSH32 0x4E487B7100000000000000000000000000000000000000000000000000000000 PUSH1 0x0 MSTORE PUSH1 0x12 PUSH1 0x4 MSTORE PUSH1 0x24 PUSH1 0x0 REVERT JUMPDEST PUSH1 0x0 PUSH2 0x350E DUP3 PUSH2 0x20EC JUMP JUMPDEST SWAP2 POP PUSH2 0x3519 DUP4 PUSH2 0x20EC JUMP JUMPDEST SWAP3 POP DUP3 PUSH2 0x3529 JUMPI PUSH2 0x3528 PUSH2 0x34D4 JUMP JUMPDEST JUMPDEST DUP3 DUP3 DIV SWAP1 POP SWAP3 SWAP2 POP POP JUMP JUMPDEST PUSH1 0x0 PUSH2 0x353F DUP3 PUSH2 0x20EC JUMP JUMPDEST SWAP2 POP PUSH2 0x354A DUP4 PUSH2 0x20EC JUMP JUMPDEST SWAP3 POP DUP3 PUSH2 0x355A JUMPI PUSH2 0x3559 PUSH2 0x34D4 JUMP JUMPDEST JUMPDEST DUP3 DUP3 MOD SWAP1 POP SWAP3 SWAP2 POP POP JUMP JUMPDEST PUSH32 0x4E487B7100000000000000000000000000000000000000000000000000000000 PUSH1 0x0 MSTORE PUSH1 0x32 PUSH1 0x4 MSTORE PUSH1 0x24 PUSH1 0x0 REVERT INVALID LOG2 PUSH5 0x6970667358 0x22 SLT KECCAK256 0xD4 SELFBALANCE 0x2B SWAP15 CALLDATASIZE 0x24 SELFDESTRUCT 0xBD PUSH12 0xC82F1E7798AEF95B88942CEC SWAP4 0xB2 PUSH22 0x1BD1979013D14F1B64736F6C63430008110033000000 "},"methodIdentifiers":{"approve(address,uint256)":"095ea7b3","balanceOf(address)":"70a08231","getApproved(uint256)":"081812fc","isApprovedForAll(address,address)":"e985e9c5","maxPerWallet()":"453c2310","maxSupply()":"d5abeb01","mint(uint256)":"a0712d68","mintNFT(address,string)":"eacabe14","mintPrice()":"6817c76c","name()":"06fdde03","owner()":"8da5cb5b","ownerOf(uint256)":"6352211e","renounceOwnership()":"715018a6","safeTransferFrom(address,address,uint256)":"42842e0e","safeTransferFrom(address,address,uint256,bytes)":"b88d4fde","setApprovalForAll(address,bool)":"a22cb465","supportsInterface(bytes4)":"01ffc9a7","symbol()":"95d89b41","tokenURI(uint256)":"c87b56dd","totalSupply()":"18160ddd","transferFrom(address,address,uint256)":"23b872dd","transferOwnership(address)":"f2fde38b","walletMints(address)":"f0293fd3","withdraw()":"3ccfd60b","withdrawWallet()":"85d178f4"}}}}}