{
  "_format": "hh-sol-artifact-1",
  "contractName": "Pokemon",
  "sourceName": "contracts/Pokemon.sol",
  "abi": [
    {
      "inputs": [],
      "stateMutability": "payable",
      "type": "constructor"
    },
    {
      "anonymous": false,
      "inputs": [
        {
          "indexed": true,
          "internalType": "address",
          "name": "owner",
          "type": "address"
        },
        {
          "indexed": true,
          "internalType": "address",
          "name": "approved",
          "type": "address"
        },
        {
          "indexed": true,
          "internalType": "uint256",
          "name": "tokenId",
          "type": "uint256"
        }
      ],
      "name": "Approval",
      "type": "event"
    },
    {
      "anonymous": false,
      "inputs": [
        {
          "indexed": true,
          "internalType": "address",
          "name": "owner",
          "type": "address"
        },
        {
          "indexed": true,
          "internalType": "address",
          "name": "operator",
          "type": "address"
        },
        {
          "indexed": false,
          "internalType": "bool",
          "name": "approved",
          "type": "bool"
        }
      ],
      "name": "ApprovalForAll",
      "type": "event"
    },
    {
      "anonymous": false,
      "inputs": [
        {
          "indexed": true,
          "internalType": "address",
          "name": "previousOwner",
          "type": "address"
        },
        {
          "indexed": true,
          "internalType": "address",
          "name": "newOwner",
          "type": "address"
        }
      ],
      "name": "OwnershipTransferred",
      "type": "event"
    },
    {
      "anonymous": false,
      "inputs": [
        {
          "indexed": true,
          "internalType": "address",
          "name": "from",
          "type": "address"
        },
        {
          "indexed": true,
          "internalType": "address",
          "name": "to",
          "type": "address"
        },
        {
          "indexed": true,
          "internalType": "uint256",
          "name": "tokenId",
          "type": "uint256"
        }
      ],
      "name": "Transfer",
      "type": "event"
    },
    {
      "inputs": [
        {
          "internalType": "address",
          "name": "to",
          "type": "address"
        },
        {
          "internalType": "uint256",
          "name": "tokenId",
          "type": "uint256"
        }
      ],
      "name": "approve",
      "outputs": [],
      "stateMutability": "nonpayable",
      "type": "function"
    },
    {
      "inputs": [
        {
          "internalType": "address",
          "name": "owner",
          "type": "address"
        }
      ],
      "name": "balanceOf",
      "outputs": [
        {
          "internalType": "uint256",
          "name": "",
          "type": "uint256"
        }
      ],
      "stateMutability": "view",
      "type": "function"
    },
    {
      "inputs": [
        {
          "internalType": "uint256",
          "name": "tokenId",
          "type": "uint256"
        }
      ],
      "name": "getApproved",
      "outputs": [
        {
          "internalType": "address",
          "name": "",
          "type": "address"
        }
      ],
      "stateMutability": "view",
      "type": "function"
    },
    {
      "inputs": [
        {
          "internalType": "address",
          "name": "owner",
          "type": "address"
        },
        {
          "internalType": "address",
          "name": "operator",
          "type": "address"
        }
      ],
      "name": "isApprovedForAll",
      "outputs": [
        {
          "internalType": "bool",
          "name": "",
          "type": "bool"
        }
      ],
      "stateMutability": "view",
      "type": "function"
    },
    {
      "inputs": [],
      "name": "maxPerWallet",
      "outputs": [
        {
          "internalType": "uint256",
          "name": "",
          "type": "uint256"
        }
      ],
      "stateMutability": "view",
      "type": "function"
    },
    {
      "inputs": [],
      "name": "maxSupply",
      "outputs": [
        {
          "internalType": "uint256",
          "name": "",
          "type": "uint256"
        }
      ],
      "stateMutability": "view",
      "type": "function"
    },
    {
      "inputs": [
        {
          "internalType": "uint256",
          "name": "_quantity",
          "type": "uint256"
        }
      ],
      "name": "mint",
      "outputs": [],
      "stateMutability": "payable",
      "type": "function"
    },
    {
      "inputs": [
        {
          "internalType": "address",
          "name": "recipient",
          "type": "address"
        },
        {
          "internalType": "string",
          "name": "tokenURI",
          "type": "string"
        }
      ],
      "name": "mintNFT",
      "outputs": [
        {
          "internalType": "uint256",
          "name": "",
          "type": "uint256"
        }
      ],
      "stateMutability": "nonpayable",
      "type": "function"
    },
    {
      "inputs": [],
      "name": "mintPrice",
      "outputs": [
        {
          "internalType": "uint256",
          "name": "",
          "type": "uint256"
        }
      ],
      "stateMutability": "view",
      "type": "function"
    },
    {
      "inputs": [],
      "name": "name",
      "outputs": [
        {
          "internalType": "string",
          "name": "",
          "type": "string"
        }
      ],
      "stateMutability": "view",
      "type": "function"
    },
    {
      "inputs": [],
      "name": "owner",
      "outputs": [
        {
          "internalType": "address",
          "name": "",
          "type": "address"
        }
      ],
      "stateMutability": "view",
      "type": "function"
    },
    {
      "inputs": [
        {
          "internalType": "uint256",
          "name": "tokenId",
          "type": "uint256"
        }
      ],
      "name": "ownerOf",
      "outputs": [
        {
          "internalType": "address",
          "name": "",
          "type": "address"
        }
      ],
      "stateMutability": "view",
      "type": "function"
    },
    {
      "inputs": [],
      "name": "renounceOwnership",
      "outputs": [],
      "stateMutability": "nonpayable",
      "type": "function"
    },
    {
      "inputs": [
        {
          "internalType": "address",
          "name": "from",
          "type": "address"
        },
        {
          "internalType": "address",
          "name": "to",
          "type": "address"
        },
        {
          "internalType": "uint256",
          "name": "tokenId",
          "type": "uint256"
        }
      ],
      "name": "safeTransferFrom",
      "outputs": [],
      "stateMutability": "nonpayable",
      "type": "function"
    },
    {
      "inputs": [
        {
          "internalType": "address",
          "name": "from",
          "type": "address"
        },
        {
          "internalType": "address",
          "name": "to",
          "type": "address"
        },
        {
          "internalType": "uint256",
          "name": "tokenId",
          "type": "uint256"
        },
        {
          "internalType": "bytes",
          "name": "data",
          "type": "bytes"
        }
      ],
      "name": "safeTransferFrom",
      "outputs": [],
      "stateMutability": "nonpayable",
      "type": "function"
    },
    {
      "inputs": [
        {
          "internalType": "address",
          "name": "operator",
          "type": "address"
        },
        {
          "internalType": "bool",
          "name": "approved",
          "type": "bool"
        }
      ],
      "name": "setApprovalForAll",
      "outputs": [],
      "stateMutability": "nonpayable",
      "type": "function"
    },
    {
      "inputs": [
        {
          "internalType": "bytes4",
          "name": "interfaceId",
          "type": "bytes4"
        }
      ],
      "name": "supportsInterface",
      "outputs": [
        {
          "internalType": "bool",
          "name": "",
          "type": "bool"
        }
      ],
      "stateMutability": "view",
      "type": "function"
    },
    {
      "inputs": [],
      "name": "symbol",
      "outputs": [
        {
          "internalType": "string",
          "name": "",
          "type": "string"
        }
      ],
      "stateMutability": "view",
      "type": "function"
    },
    {
      "inputs": [
        {
          "internalType": "uint256",
          "name": "tokenId",
          "type": "uint256"
        }
      ],
      "name": "tokenURI",
      "outputs": [
        {
          "internalType": "string",
          "name": "",
          "type": "string"
        }
      ],
      "stateMutability": "view",
      "type": "function"
    },
    {
      "inputs": [],
      "name": "totalSupply",
      "outputs": [
        {
          "internalType": "uint256",
          "name": "",
          "type": "uint256"
        }
      ],
      "stateMutability": "view",
      "type": "function"
    },
    {
      "inputs": [
        {
          "internalType": "address",
          "name": "from",
          "type": "address"
        },
        {
          "internalType": "address",
          "name": "to",
          "type": "address"
        },
        {
          "internalType": "uint256",
          "name": "tokenId",
          "type": "uint256"
        }
      ],
      "name": "transferFrom",
      "outputs": [],
      "stateMutability": "nonpayable",
      "type": "function"
    },
    {
      "inputs": [
        {
          "internalType": "address",
          "name": "newOwner",
          "type": "address"
        }
      ],
      "name": "transferOwnership",
      "outputs": [],
      "stateMutability": "nonpayable",
      "type": "function"
    },
    {
      "inputs": [
        {
          "internalType": "address",
          "name": "",
          "type": "address"
        }
      ],
      "name": "walletMints",
      "outputs": [
        {
          "internalType": "uint256",
          "name": "",
          "type": "uint256"
        }
      ],
      "stateMutability": "view",
      "type": "function"
    },
    {
      "inputs": [],
      "name": "withdraw",
      "outputs": [],
      "stateMutability": "nonpayable",
      "type": "function"
    },
    {
      "inputs": [],
      "name": "withdrawWallet",
      "outputs": [
        {
          "internalType": "address payable",
          "name": "",
          "type": "address"
        }
      ],
      "stateMutability": "view",
      "type": "function"
    }
  ],
  "bytecode": "0x60806040526040518060400160405280600a81526020017f506f6b656d6f6e4e4654000000000000000000000000000000000000000000008152506040518060400160405280600781526020017f506f6b654e465400000000000000000000000000000000000000000000000000815250816000908162000081919062000423565b50806001908162000093919062000423565b505050620000b6620000aa620000db60201b60201c565b620000e360201b60201c565b66470de4df8200006009819055506103e8600a819055506003600c819055506200050a565b600033905090565b6000600760009054906101000a900473ffffffffffffffffffffffffffffffffffffffff16905081600760006101000a81548173ffffffffffffffffffffffffffffffffffffffff021916908373ffffffffffffffffffffffffffffffffffffffff1602179055508173ffffffffffffffffffffffffffffffffffffffff168173ffffffffffffffffffffffffffffffffffffffff167f8be0079c531659141344cd1fd0a4f28419497f9722a3daafe3b4186f6b6457e060405160405180910390a35050565b600081519050919050565b7f4e487b7100000000000000000000000000000000000000000000000000000000600052604160045260246000fd5b7f4e487b7100000000000000000000000000000000000000000000000000000000600052602260045260246000fd5b600060028204905060018216806200022b57607f821691505b602082108103620002415762000240620001e3565b5b50919050565b60008190508160005260206000209050919050565b60006020601f8301049050919050565b600082821b905092915050565b600060088302620002ab7fffffffffffffffffffffffffffffffffffffffffffffffffffffffffffffffff826200026c565b620002b786836200026c565b95508019841693508086168417925050509392505050565b6000819050919050565b6000819050919050565b600062000304620002fe620002f884620002cf565b620002d9565b620002cf565b9050919050565b6000819050919050565b6200032083620002e3565b620003386200032f826200030b565b84845462000279565b825550505050565b600090565b6200034f62000340565b6200035c81848462000315565b505050565b5b8181101562000384576200037860008262000345565b60018101905062000362565b5050565b601f821115620003d3576200039d8162000247565b620003a8846200025c565b81016020851015620003b8578190505b620003d0620003c7856200025c565b83018262000361565b50505b505050565b600082821c905092915050565b6000620003f860001984600802620003d8565b1980831691505092915050565b6000620004138383620003e5565b9150826002028217905092915050565b6200042e82620001a9565b67ffffffffffffffff8111156200044a5762000449620001b4565b5b62000456825462000212565b6200046382828562000388565b600060209050601f8311600181146200049b576000841562000486578287015190505b62000492858262000405565b86555062000502565b601f198416620004ab8662000247565b60005b82811015620004d557848901518255600182019150602085019450602081019050620004ae565b86831015620004f55784890151620004f1601f891682620003e5565b8355505b6001600288020188555050505b505050505050565b6135cb806200051a6000396000f3fe6080604052600436106101665760003560e01c8063715018a6116100d1578063b88d4fde1161008a578063e985e9c511610064578063e985e9c51461050b578063eacabe1414610548578063f0293fd314610585578063f2fde38b146105c257610166565b8063b88d4fde1461047a578063c87b56dd146104a3578063d5abeb01146104e057610166565b8063715018a61461039d57806385d178f4146103b45780638da5cb5b146103df57806395d89b411461040a578063a0712d6814610435578063a22cb4651461045157610166565b80633ccfd60b116101235780633ccfd60b1461028d57806342842e0e146102a4578063453c2310146102cd5780636352211e146102f85780636817c76c1461033557806370a082311461036057610166565b806301ffc9a71461016b57806306fdde03146101a8578063081812fc146101d3578063095ea7b31461021057806318160ddd1461023957806323b872dd14610264575b600080fd5b34801561017757600080fd5b50610192600480360381019061018d9190611fd8565b6105eb565b60405161019f9190612020565b60405180910390f35b3480156101b457600080fd5b506101bd6106cd565b6040516101ca91906120cb565b60405180910390f35b3480156101df57600080fd5b506101fa60048036038101906101f59190612123565b61075f565b6040516102079190612191565b60405180910390f35b34801561021c57600080fd5b50610237600480360381019061023291906121d8565b6107a5565b005b34801561024557600080fd5b5061024e6108bc565b60405161025b9190612227565b60405180910390f35b34801561027057600080fd5b5061028b60048036038101906102869190612242565b6108c2565b005b34801561029957600080fd5b506102a2610922565b005b3480156102b057600080fd5b506102cb60048036038101906102c69190612242565b6109fb565b005b3480156102d957600080fd5b506102e2610a1b565b6040516102ef9190612227565b60405180910390f35b34801561030457600080fd5b5061031f600480360381019061031a9190612123565b610a21565b60405161032c9190612191565b60405180910390f35b34801561034157600080fd5b5061034a610ad2565b6040516103579190612227565b60405180910390f35b34801561036c57600080fd5b5061038760048036038101906103829190612295565b610ad8565b6040516103949190612227565b60405180910390f35b3480156103a957600080fd5b506103b2610b8f565b005b3480156103c057600080fd5b506103c9610ba3565b6040516103d691906122e3565b60405180910390f35b3480156103eb57600080fd5b506103f4610bc9565b6040516104019190612191565b60405180910390f35b34801561041657600080fd5b5061041f610bf3565b60405161042c91906120cb565b60405180910390f35b61044f600480360381019061044a9190612123565b610c85565b005b34801561045d57600080fd5b506104786004803603810190610473919061232a565b610e0e565b005b34801561048657600080fd5b506104a1600480360381019061049c919061249f565b610e24565b005b3480156104af57600080fd5b506104ca60048036038101906104c59190612123565b610e86565b6040516104d791906120cb565b60405180910390f35b3480156104ec57600080fd5b506104f5610f98565b6040516105029190612227565b60405180910390f35b34801561051757600080fd5b50610532600480360381019061052d9190612522565b610f9e565b60405161053f9190612020565b60405180910390f35b34801561055457600080fd5b5061056f600480360381019061056a9190612603565b611032565b60405161057c9190612227565b60405180910390f35b34801561059157600080fd5b506105ac60048036038101906105a79190612295565b611072565b6040516105b99190612227565b60405180910390f35b3480156105ce57600080fd5b506105e960048036038101906105e49190612295565b61108a565b005b60007f80ac58cd000000000000000000000000000000000000000000000000000000007bffffffffffffffffffffffffffffffffffffffffffffffffffffffff1916827bffffffffffffffffffffffffffffffffffffffffffffffffffffffff191614806106b657507f5b5e139f000000000000000000000000000000000000000000000000000000007bffffffffffffffffffffffffffffffffffffffffffffffffffffffff1916827bffffffffffffffffffffffffffffffffffffffffffffffffffffffff1916145b806106c657506106c58261110d565b5b9050919050565b6060600080546106dc9061268e565b80601f01602080910402602001604051908101604052809291908181526020018280546107089061268e565b80156107555780601f1061072a57610100808354040283529160200191610755565b820191906000526020600020905b81548152906001019060200180831161073857829003601f168201915b5050505050905090565b600061076a82611177565b6004600083815260200190815260200160002060009054906101000a900473ffffffffffffffffffffffffffffffffffffffff169050919050565b60006107b082610a21565b90508073ffffffffffffffffffffffffffffffffffffffff168373ffffffffffffffffffffffffffffffffffffffff1603610820576040517f08c379a000000000000000000000000000000000000000000000000000000000815260040161081790612731565b60405180910390fd5b8073ffffffffffffffffffffffffffffffffffffffff1661083f6111c2565b73ffffffffffffffffffffffffffffffffffffffff16148061086e575061086d816108686111c2565b610f9e565b5b6108ad576040517f08c379a00000000000000000000000000000000000000000000000000000000081526004016108a4906127c3565b60405180910390fd5b6108b783836111ca565b505050565b600b5481565b6108d36108cd6111c2565b82611283565b610912576040517f08c379a000000000000000000000000000000000000000000000000000000000815260040161090990612855565b60405180910390fd5b61091d838383611318565b505050565b61092a61157e565b6000600d60009054906101000a900473ffffffffffffffffffffffffffffffffffffffff1673ffffffffffffffffffffffffffffffffffffffff1647604051610972906128a6565b60006040518083038185875af1925050503d80600081146109af576040519150601f19603f3d011682016040523d82523d6000602084013e6109b4565b606091505b50509050806109f8576040517f08c379a00000000000000000000000000000000000000000000000000000000081526004016109ef90612907565b60405180910390fd5b50565b610a1683838360405180602001604052806000815250610e24565b505050565b600c5481565b6000806002600084815260200190815260200160002060009054906101000a900473ffffffffffffffffffffffffffffffffffffffff169050600073ffffffffffffffffffffffffffffffffffffffff168173ffffffffffffffffffffffffffffffffffffffff1603610ac9576040517f08c379a0000000000000000000000000000000000000000000000000000000008152600401610ac090612973565b60405180910390fd5b80915050919050565b60095481565b60008073ffffffffffffffffffffffffffffffffffffffff168273ffffffffffffffffffffffffffffffffffffffff1603610b48576040517f08c379a0000000000000000000000000000000000000000000000000000000008152600401610b3f90612a05565b60405180910390fd5b600360008373ffffffffffffffffffffffffffffffffffffffff1673ffffffffffffffffffffffffffffffffffffffff168152602001908152602001600020549050919050565b610b9761157e565b610ba160006115fc565b565b600d60009054906101000a900473ffffffffffffffffffffffffffffffffffffffff1681565b6000600760009054906101000a900473ffffffffffffffffffffffffffffffffffffffff16905090565b606060018054610c029061268e565b80601f0160208091040260200160405190810160405280929190818152602001828054610c2e9061268e565b8015610c7b5780601f10610c5057610100808354040283529160200191610c7b565b820191906000526020600020905b815481529060010190602001808311610c5e57829003601f168201915b5050505050905090565b60095481610c939190612a54565b341015610cd5576040517f08c379a0000000000000000000000000000000000000000000000000000000008152600401610ccc90612ae2565b60405180910390fd5b600a5481600b54610ce69190612b02565b1115610d27576040517f08c379a0000000000000000000000000000000000000000000000000000000008152600401610d1e90612b82565b60405180910390fd5b600c5481600e60003373ffffffffffffffffffffffffffffffffffffffff1673ffffffffffffffffffffffffffffffffffffffff16815260200190815260200160002054610d759190612b02565b1115610db6576040517f08c379a0000000000000000000000000000000000000000000000000000000008152600401610dad90612bee565b60405180910390fd5b60005b81811015610e0a5760006001600b54610dd29190612b02565b9050600b6000815480929190610de790612c0e565b9190505550610df633826116c2565b508080610e0290612c0e565b915050610db9565b5050565b610e20610e196111c2565b83836116e0565b5050565b610e35610e2f6111c2565b83611283565b610e74576040517f08c379a0000000000000000000000000000000000000000000000000000000008152600401610e6b90612855565b60405180910390fd5b610e808484848461184c565b50505050565b6060610e9182611177565b6000600660008481526020019081526020016000208054610eb19061268e565b80601f0160208091040260200160405190810160405280929190818152602001828054610edd9061268e565b8015610f2a5780601f10610eff57610100808354040283529160200191610f2a565b820191906000526020600020905b815481529060010190602001808311610f0d57829003601f168201915b505050505090506000610f3b6118a8565b90506000815103610f50578192505050610f93565b600082511115610f85578082604051602001610f6d929190612c92565b60405160208183030381529060405292505050610f93565b610f8e846118bf565b925050505b919050565b600a5481565b6000600560008473ffffffffffffffffffffffffffffffffffffffff1673ffffffffffffffffffffffffffffffffffffffff16815260200190815260200160002060008373ffffffffffffffffffffffffffffffffffffffff1673ffffffffffffffffffffffffffffffffffffffff16815260200190815260200160002060009054906101000a900460ff16905092915050565b600061103c61157e565b6110466008611927565b6000611052600861193d565b905061105e848261194b565b6110688184611b24565b8091505092915050565b600e6020528060005260406000206000915090505481565b61109261157e565b600073ffffffffffffffffffffffffffffffffffffffff168173ffffffffffffffffffffffffffffffffffffffff1603611101576040517f08c379a00000000000000000000000000000000000000000000000000000000081526004016110f890612d28565b60405180910390fd5b61110a816115fc565b50565b60007f01ffc9a7000000000000000000000000000000000000000000000000000000007bffffffffffffffffffffffffffffffffffffffffffffffffffffffff1916827bffffffffffffffffffffffffffffffffffffffffffffffffffffffff1916149050919050565b61118081611b91565b6111bf576040517f08c379a00000000000000000000000000000000000000000000000000000000081526004016111b690612973565b60405180910390fd5b50565b600033905090565b816004600083815260200190815260200160002060006101000a81548173ffffffffffffffffffffffffffffffffffffffff021916908373ffffffffffffffffffffffffffffffffffffffff160217905550808273ffffffffffffffffffffffffffffffffffffffff1661123d83610a21565b73ffffffffffffffffffffffffffffffffffffffff167f8c5be1e5ebec7d5bd14f71427d1e84f3dd0314c0f7b2291e5b200ac8c7c3b92560405160405180910390a45050565b60008061128f83610a21565b90508073ffffffffffffffffffffffffffffffffffffffff168473ffffffffffffffffffffffffffffffffffffffff1614806112d157506112d08185610f9e565b5b8061130f57508373ffffffffffffffffffffffffffffffffffffffff166112f78461075f565b73ffffffffffffffffffffffffffffffffffffffff16145b91505092915050565b8273ffffffffffffffffffffffffffffffffffffffff1661133882610a21565b73ffffffffffffffffffffffffffffffffffffffff161461138e576040517f08c379a000000000000000000000000000000000000000000000000000000000815260040161138590612dba565b60405180910390fd5b600073ffffffffffffffffffffffffffffffffffffffff168273ffffffffffffffffffffffffffffffffffffffff16036113fd576040517f08c379a00000000000000000000000000000000000000000000000000000000081526004016113f490612e4c565b60405180910390fd5b611408838383611bfd565b6114136000826111ca565b6001600360008573ffffffffffffffffffffffffffffffffffffffff1673ffffffffffffffffffffffffffffffffffffffff16815260200190815260200160002060008282546114639190612e6c565b925050819055506001600360008473ffffffffffffffffffffffffffffffffffffffff1673ffffffffffffffffffffffffffffffffffffffff16815260200190815260200160002060008282546114ba9190612b02565b92505081905550816002600083815260200190815260200160002060006101000a81548173ffffffffffffffffffffffffffffffffffffffff021916908373ffffffffffffffffffffffffffffffffffffffff160217905550808273ffffffffffffffffffffffffffffffffffffffff168473ffffffffffffffffffffffffffffffffffffffff167fddf252ad1be2c89b69c2b068fc378daa952ba7f163c4a11628f55a4df523b3ef60405160405180910390a4611579838383611c02565b505050565b6115866111c2565b73ffffffffffffffffffffffffffffffffffffffff166115a4610bc9565b73ffffffffffffffffffffffffffffffffffffffff16146115fa576040517f08c379a00000000000000000000000000000000000000000000000000000000081526004016115f190612eec565b60405180910390fd5b565b6000600760009054906101000a900473ffffffffffffffffffffffffffffffffffffffff16905081600760006101000a81548173ffffffffffffffffffffffffffffffffffffffff021916908373ffffffffffffffffffffffffffffffffffffffff1602179055508173ffffffffffffffffffffffffffffffffffffffff168173ffffffffffffffffffffffffffffffffffffffff167f8be0079c531659141344cd1fd0a4f28419497f9722a3daafe3b4186f6b6457e060405160405180910390a35050565b6116dc828260405180602001604052806000815250611c07565b5050565b8173ffffffffffffffffffffffffffffffffffffffff168373ffffffffffffffffffffffffffffffffffffffff160361174e576040517f08c379a000000000000000000000000000000000000000000000000000000000815260040161174590612f58565b60405180910390fd5b80600560008573ffffffffffffffffffffffffffffffffffffffff1673ffffffffffffffffffffffffffffffffffffffff16815260200190815260200160002060008473ffffffffffffffffffffffffffffffffffffffff1673ffffffffffffffffffffffffffffffffffffffff16815260200190815260200160002060006101000a81548160ff0219169083151502179055508173ffffffffffffffffffffffffffffffffffffffff168373ffffffffffffffffffffffffffffffffffffffff167f17307eab39ab6107e8899845ad3d59bd9653f200f220920489ca2b5937696c318360405161183f9190612020565b60405180910390a3505050565b611857848484611318565b61186384848484611c62565b6118a2576040517f08c379a000000000000000000000000000000000000000000000000000000000815260040161189990612fea565b60405180910390fd5b50505050565b606060405180602001604052806000815250905090565b60606118ca82611177565b60006118d46118a8565b905060008151116118f4576040518060200160405280600081525061191f565b806118fe84611de9565b60405160200161190f929190612c92565b6040516020818303038152906040525b915050919050565b6001816000016000828254019250508190555050565b600081600001549050919050565b600073ffffffffffffffffffffffffffffffffffffffff168273ffffffffffffffffffffffffffffffffffffffff16036119ba576040517f08c379a00000000000000000000000000000000000000000000000000000000081526004016119b190613056565b60405180910390fd5b6119c381611b91565b15611a03576040517f08c379a00000000000000000000000000000000000000000000000000000000081526004016119fa906130c2565b60405180910390fd5b611a0f60008383611bfd565b6001600360008473ffffffffffffffffffffffffffffffffffffffff1673ffffffffffffffffffffffffffffffffffffffff1681526020019081526020016000206000828254611a5f9190612b02565b92505081905550816002600083815260200190815260200160002060006101000a81548173ffffffffffffffffffffffffffffffffffffffff021916908373ffffffffffffffffffffffffffffffffffffffff160217905550808273ffffffffffffffffffffffffffffffffffffffff16600073ffffffffffffffffffffffffffffffffffffffff167fddf252ad1be2c89b69c2b068fc378daa952ba7f163c4a11628f55a4df523b3ef60405160405180910390a4611b2060008383611c02565b5050565b611b2d82611b91565b611b6c576040517f08c379a0000000000000000000000000000000000000000000000000000000008152600401611b6390613154565b60405180910390fd5b80600660008481526020019081526020016000209081611b8c9190613320565b505050565b60008073ffffffffffffffffffffffffffffffffffffffff166002600084815260200190815260200160002060009054906101000a900473ffffffffffffffffffffffffffffffffffffffff1673ffffffffffffffffffffffffffffffffffffffff1614159050919050565b505050565b505050565b611c11838361194b565b611c1e6000848484611c62565b611c5d576040517f08c379a0000000000000000000000000000000000000000000000000000000008152600401611c5490612fea565b60405180910390fd5b505050565b6000611c838473ffffffffffffffffffffffffffffffffffffffff16611f49565b15611ddc578373ffffffffffffffffffffffffffffffffffffffff1663150b7a02611cac6111c2565b8786866040518563ffffffff1660e01b8152600401611cce9493929190613447565b6020604051808303816000875af1925050508015611d0a57506040513d601f19601f82011682018060405250810190611d0791906134a8565b60015b611d8c573d8060008114611d3a576040519150601f19603f3d011682016040523d82523d6000602084013e611d3f565b606091505b506000815103611d84576040517f08c379a0000000000000000000000000000000000000000000000000000000008152600401611d7b90612fea565b60405180910390fd5b805181602001fd5b63150b7a0260e01b7bffffffffffffffffffffffffffffffffffffffffffffffffffffffff1916817bffffffffffffffffffffffffffffffffffffffffffffffffffffffff191614915050611de1565b600190505b949350505050565b606060008203611e30576040518060400160405280600181526020017f30000000000000000000000000000000000000000000000000000000000000008152509050611f44565b600082905060005b60008214611e62578080611e4b90612c0e565b915050600a82611e5b9190613504565b9150611e38565b60008167ffffffffffffffff811115611e7e57611e7d612374565b5b6040519080825280601f01601f191660200182016040528015611eb05781602001600182028036833780820191505090505b5090505b60008514611f3d57600182611ec99190612e6c565b9150600a85611ed89190613535565b6030611ee49190612b02565b60f81b818381518110611efa57611ef9613566565b5b60200101907effffffffffffffffffffffffffffffffffffffffffffffffffffffffffffff1916908160001a905350600a85611f369190613504565b9450611eb4565b8093505050505b919050565b6000808273ffffffffffffffffffffffffffffffffffffffff163b119050919050565b6000604051905090565b600080fd5b600080fd5b60007fffffffff0000000000000000000000000000000000000000000000000000000082169050919050565b611fb581611f80565b8114611fc057600080fd5b50565b600081359050611fd281611fac565b92915050565b600060208284031215611fee57611fed611f76565b5b6000611ffc84828501611fc3565b91505092915050565b60008115159050919050565b61201a81612005565b82525050565b60006020820190506120356000830184612011565b92915050565b600081519050919050565b600082825260208201905092915050565b60005b8381101561207557808201518184015260208101905061205a565b60008484015250505050565b6000601f19601f8301169050919050565b600061209d8261203b565b6120a78185612046565b93506120b7818560208601612057565b6120c081612081565b840191505092915050565b600060208201905081810360008301526120e58184612092565b905092915050565b6000819050919050565b612100816120ed565b811461210b57600080fd5b50565b60008135905061211d816120f7565b92915050565b60006020828403121561213957612138611f76565b5b60006121478482850161210e565b91505092915050565b600073ffffffffffffffffffffffffffffffffffffffff82169050919050565b600061217b82612150565b9050919050565b61218b81612170565b82525050565b60006020820190506121a66000830184612182565b92915050565b6121b581612170565b81146121c057600080fd5b50565b6000813590506121d2816121ac565b92915050565b600080604083850312156121ef576121ee611f76565b5b60006121fd858286016121c3565b925050602061220e8582860161210e565b9150509250929050565b612221816120ed565b82525050565b600060208201905061223c6000830184612218565b92915050565b60008060006060848603121561225b5761225a611f76565b5b6000612269868287016121c3565b935050602061227a868287016121c3565b925050604061228b8682870161210e565b9150509250925092565b6000602082840312156122ab576122aa611f76565b5b60006122b9848285016121c3565b91505092915050565b60006122cd82612150565b9050919050565b6122dd816122c2565b82525050565b60006020820190506122f860008301846122d4565b92915050565b61230781612005565b811461231257600080fd5b50565b600081359050612324816122fe565b92915050565b6000806040838503121561234157612340611f76565b5b600061234f858286016121c3565b925050602061236085828601612315565b9150509250929050565b600080fd5b600080fd5b7f4e487b7100000000000000000000000000000000000000000000000000000000600052604160045260246000fd5b6123ac82612081565b810181811067ffffffffffffffff821117156123cb576123ca612374565b5b80604052505050565b60006123de611f6c565b90506123ea82826123a3565b919050565b600067ffffffffffffffff82111561240a57612409612374565b5b61241382612081565b9050602081019050919050565b82818337600083830152505050565b600061244261243d846123ef565b6123d4565b90508281526020810184848401111561245e5761245d61236f565b5b612469848285612420565b509392505050565b600082601f8301126124865761248561236a565b5b813561249684826020860161242f565b91505092915050565b600080600080608085870312156124b9576124b8611f76565b5b60006124c7878288016121c3565b94505060206124d8878288016121c3565b93505060406124e98782880161210e565b925050606085013567ffffffffffffffff81111561250a57612509611f7b565b5b61251687828801612471565b91505092959194509250565b6000806040838503121561253957612538611f76565b5b6000612547858286016121c3565b9250506020612558858286016121c3565b9150509250929050565b600067ffffffffffffffff82111561257d5761257c612374565b5b61258682612081565b9050602081019050919050565b60006125a66125a184612562565b6123d4565b9050828152602081018484840111156125c2576125c161236f565b5b6125cd848285612420565b509392505050565b600082601f8301126125ea576125e961236a565b5b81356125fa848260208601612593565b91505092915050565b6000806040838503121561261a57612619611f76565b5b6000612628858286016121c3565b925050602083013567ffffffffffffffff81111561264957612648611f7b565b5b612655858286016125d5565b9150509250929050565b7f4e487b7100000000000000000000000000000000000000000000000000000000600052602260045260246000fd5b600060028204905060018216806126a657607f821691505b6020821081036126b9576126b861265f565b5b50919050565b7f4552433732313a20617070726f76616c20746f2063757272656e74206f776e6560008201527f7200000000000000000000000000000000000000000000000000000000000000602082015250565b600061271b602183612046565b9150612726826126bf565b604082019050919050565b6000602082019050818103600083015261274a8161270e565b9050919050565b7f4552433732313a20617070726f76652063616c6c6572206973206e6f7420746f60008201527f6b656e206f776e6572206e6f7220617070726f76656420666f7220616c6c0000602082015250565b60006127ad603e83612046565b91506127b882612751565b604082019050919050565b600060208201905081810360008301526127dc816127a0565b9050919050565b7f4552433732313a2063616c6c6572206973206e6f7420746f6b656e206f776e6560008201527f72206e6f7220617070726f766564000000000000000000000000000000000000602082015250565b600061283f602e83612046565b915061284a826127e3565b604082019050919050565b6000602082019050818103600083015261286e81612832565b9050919050565b600081905092915050565b50565b6000612890600083612875565b915061289b82612880565b600082019050919050565b60006128b182612883565b9150819050919050565b7f7769746864726177206661696c65640000000000000000000000000000000000600082015250565b60006128f1600f83612046565b91506128fc826128bb565b602082019050919050565b60006020820190508181036000830152612920816128e4565b9050919050565b7f4552433732313a20696e76616c696420746f6b656e2049440000000000000000600082015250565b600061295d601883612046565b915061296882612927565b602082019050919050565b6000602082019050818103600083015261298c81612950565b9050919050565b7f4552433732313a2061646472657373207a65726f206973206e6f74206120766160008201527f6c6964206f776e65720000000000000000000000000000000000000000000000602082015250565b60006129ef602983612046565b91506129fa82612993565b604082019050919050565b60006020820190508181036000830152612a1e816129e2565b9050919050565b7f4e487b7100000000000000000000000000000000000000000000000000000000600052601160045260246000fd5b6000612a5f826120ed565b9150612a6a836120ed565b9250828202612a78816120ed565b91508282048414831517612a8f57612a8e612a25565b5b5092915050565b7f57726f6e67206d696e742076616c756500000000000000000000000000000000600082015250565b6000612acc601083612046565b9150612ad782612a96565b602082019050919050565b60006020820190508181036000830152612afb81612abf565b9050919050565b6000612b0d826120ed565b9150612b18836120ed565b9250828201905080821115612b3057612b2f612a25565b5b92915050565b7f536f6c64206f7574000000000000000000000000000000000000000000000000600082015250565b6000612b6c600883612046565b9150612b7782612b36565b602082019050919050565b60006020820190508181036000830152612b9b81612b5f565b9050919050565b7f4578636565646564206d61782077616c6c657400000000000000000000000000600082015250565b6000612bd8601383612046565b9150612be382612ba2565b602082019050919050565b60006020820190508181036000830152612c0781612bcb565b9050919050565b6000612c19826120ed565b91507fffffffffffffffffffffffffffffffffffffffffffffffffffffffffffffffff8203612c4b57612c4a612a25565b5b600182019050919050565b600081905092915050565b6000612c6c8261203b565b612c768185612c56565b9350612c86818560208601612057565b80840191505092915050565b6000612c9e8285612c61565b9150612caa8284612c61565b91508190509392505050565b7f4f776e61626c653a206e6577206f776e657220697320746865207a65726f206160008201527f6464726573730000000000000000000000000000000000000000000000000000602082015250565b6000612d12602683612046565b9150612d1d82612cb6565b604082019050919050565b60006020820190508181036000830152612d4181612d05565b9050919050565b7f4552433732313a207472616e736665722066726f6d20696e636f72726563742060008201527f6f776e6572000000000000000000000000000000000000000000000000000000602082015250565b6000612da4602583612046565b9150612daf82612d48565b604082019050919050565b60006020820190508181036000830152612dd381612d97565b9050919050565b7f4552433732313a207472616e7366657220746f20746865207a65726f2061646460008201527f7265737300000000000000000000000000000000000000000000000000000000602082015250565b6000612e36602483612046565b9150612e4182612dda565b604082019050919050565b60006020820190508181036000830152612e6581612e29565b9050919050565b6000612e77826120ed565b9150612e82836120ed565b9250828203905081811115612e9a57612e99612a25565b5b92915050565b7f4f776e61626c653a2063616c6c6572206973206e6f7420746865206f776e6572600082015250565b6000612ed6602083612046565b9150612ee182612ea0565b602082019050919050565b60006020820190508181036000830152612f0581612ec9565b9050919050565b7f4552433732313a20617070726f766520746f2063616c6c657200000000000000600082015250565b6000612f42601983612046565b9150612f4d82612f0c565b602082019050919050565b60006020820190508181036000830152612f7181612f35565b9050919050565b7f4552433732313a207472616e7366657220746f206e6f6e20455243373231526560008201527f63656976657220696d706c656d656e7465720000000000000000000000000000602082015250565b6000612fd4603283612046565b9150612fdf82612f78565b604082019050919050565b6000602082019050818103600083015261300381612fc7565b9050919050565b7f4552433732313a206d696e7420746f20746865207a65726f2061646472657373600082015250565b6000613040602083612046565b915061304b8261300a565b602082019050919050565b6000602082019050818103600083015261306f81613033565b9050919050565b7f4552433732313a20746f6b656e20616c7265616479206d696e74656400000000600082015250565b60006130ac601c83612046565b91506130b782613076565b602082019050919050565b600060208201905081810360008301526130db8161309f565b9050919050565b7f45524337323155524953746f726167653a2055524920736574206f66206e6f6e60008201527f6578697374656e7420746f6b656e000000000000000000000000000000000000602082015250565b600061313e602e83612046565b9150613149826130e2565b604082019050919050565b6000602082019050818103600083015261316d81613131565b9050919050565b60008190508160005260206000209050919050565b60006020601f8301049050919050565b600082821b905092915050565b6000600883026131d67fffffffffffffffffffffffffffffffffffffffffffffffffffffffffffffffff82613199565b6131e08683613199565b95508019841693508086168417925050509392505050565b6000819050919050565b600061321d613218613213846120ed565b6131f8565b6120ed565b9050919050565b6000819050919050565b61323783613202565b61324b61324382613224565b8484546131a6565b825550505050565b600090565b613260613253565b61326b81848461322e565b505050565b5b8181101561328f57613284600082613258565b600181019050613271565b5050565b601f8211156132d4576132a581613174565b6132ae84613189565b810160208510156132bd578190505b6132d16132c985613189565b830182613270565b50505b505050565b600082821c905092915050565b60006132f7600019846008026132d9565b1980831691505092915050565b600061331083836132e6565b9150826002028217905092915050565b6133298261203b565b67ffffffffffffffff81111561334257613341612374565b5b61334c825461268e565b613357828285613293565b600060209050601f83116001811461338a5760008415613378578287015190505b6133828582613304565b8655506133ea565b601f19841661339886613174565b60005b828110156133c05784890151825560018201915060208501945060208101905061339b565b868310156133dd57848901516133d9601f8916826132e6565b8355505b6001600288020188555050505b505050505050565b600081519050919050565b600082825260208201905092915050565b6000613419826133f2565b61342381856133fd565b9350613433818560208601612057565b61343c81612081565b840191505092915050565b600060808201905061345c6000830187612182565b6134696020830186612182565b6134766040830185612218565b8181036060830152613488818461340e565b905095945050505050565b6000815190506134a281611fac565b92915050565b6000602082840312156134be576134bd611f76565b5b60006134cc84828501613493565b91505092915050565b7f4e487b7100000000000000000000000000000000000000000000000000000000600052601260045260246000fd5b600061350f826120ed565b915061351a836120ed565b92508261352a576135296134d5565b5b828204905092915050565b6000613540826120ed565b915061354b836120ed565b92508261355b5761355a6134d5565b5b828206905092915050565b7f4e487b7100000000000000000000000000000000000000000000000000000000600052603260045260246000fdfea26469706673582212201d1958df35ae85f03e6de733a81947124f7a94222d8cd3d3c3341f9e2d29797a64736f6c63430008110033",
  "linkReferences": {},
  "deployedLinkReferences": {}
}